:020000040800F2
:200000000050002049480008094400080B4400080D4400080F44000811440008000000001A
:20002000000000000000000000000000134400081544000800000000174400081944000838
:20004000914800089148000891480008914800089148000891480008914800089148000898
:200060009148000891480008914800089148000891480008254400089148000891480008E8
:20008000914800089148000891480008914800089148000891480008914800089148000858
:2000A0009148000891480008914800089148000891480008354400084944000891480008E4
:2000C000914800089148000891480008914800089148000891480008914800089148000818
:2000E00091480008914800089148000800000000000000000000000000000000000000005D
:2001000000000000000000005FF808F110B5054C237833B9044B13B10448AFF3008001234D
:20012000237010BD7804002000000000FC51000808B5034B1BB103490348AFF3008008BD19
:20014000000000007C040020FC510008034613F8012B002AFBD1181A0138704710B5044603
:200160000E4B18784FF47A73B3FBF0F30C4A1068B0FBF3F000F0A0F868B90F2C01D901209A
:200180000AE0002221464FF0FF3000F055F8034B5C60002000E0012010BD00BF000000206A
:2001A0000C04002008B5074A136843F010031360032000F02FF80020FFF7D0FF04F0D4F8EE
:2001C000002008BD00200240034A1168034B1B780B441360704700BFC004002000000020F5
:2001E000014B1868704700BFC004002038B50446FFF7F6FF0546B4F1FF3F02D0044B1B78D5
:200200001C44FFF7EDFF401BA042FAD338BD00BF00000020074AD36823F4E0631B041B0C92
:20022000000200F4E060184340F0BF6040F40030D060704700ED00E030B4174BDB68C3F387
:200240000223C3F10704042C28BF04241D1D062D18D9033B4FF0FF3505FA04F421EA040165
:20026000994005FA03F322EA0303194300280BDB0901C9B200F1604000F5614080F80013FD
:2002800030BC70470023E5E700F00F000901C9B2024B1954F4E700BF00ED00E014ED00E046
:2002A00000F01F02400901239340024A42F82030704700BF00E100E00138B0F1807F0AD22B
:2002C000064B5860064AF02182F823100020986007221A6070470120704700BF10E000E02E
:2002E00000ED00E0042805D0054A136823F0040313607047024A136843F0040313607047F7
:2003000010E000E0704708B5FFF7FCFF08BD70B4066CC56B0124B4406C600468636043685E
:20032000102B05D0036899600368DA6070BC704703689A600368D960F8E70000002830D0B1
:2003400010B403460168184A0A441848A0FB0202120992001A64164ADA63022283F82120D0
:20036000086820F47F5020F030005A689C682243DC6822431C6922435C6922439C69224398
:20038000DC69224302430A6000209862D862186358639863012283F8212083F8200010BC39
:2003A00070470120704700BFF8FFFDBFCDCCCCCC0000024038B590F82040012C32D00124A0
:2003C00080F8204090F82140012C04D0002380F82030022038BD0446022084F82100002030
:2003E000A0632568286820F0010028602046FFF78EFFE36A5BB12268136843F00E03136046
:200400002268136843F0010313600020E2E72268136823F0040313602268136843F00A036D
:200420001360EDE70220D5E738B5C36B1A6804682568016C04238B40134235D015F0040F30
:2004400032D0236813F0200F03D1236823F0040323600368434A934214D01432934218D02D
:200460001432934217D01432934217D01432934217D01432934202D04FF0806203E04FF442
:20048000800200E00422384B5A60C36A03B1984738BD4022F7E74FF48062F4E74FF480429D
:2004A000F1E74FF48022EEE702238B4013423CD015F0020F39D0236813F0200F06D123681B
:2004C00023F00A032360012380F821300368254A934214D0143293421CD0143293421BD0EC
:2004E000143293421BD0143293421BD01432934202D04FF0007203E04FF4001200E0022216
:20050000194B5A60002380F82030836A002BBFD09847BDE72022F3E74FF40072F0E74FF4BD
:200520000052EDE74FF40032EAE7082303FA01F11142ADD015F0080FAAD0236823F00E0320
:200540002360026CC16B012303FA02F24A60836380F82130002380F82030036B002B97D025
:20056000984795E70800024000000240044B0022DA61044A136943F001031361018070473B
:20058000C8040020002002401A4BDB6813F0100F27D0194AD36943F00203D3611023154AAF
:2005A000D26812F0040F06D01349CA6942F00102CA6143F004030F4AD26912F0010F09D06E
:2005C0000D49CA6942F00402CA610A49CA6922F00102CA6140F20112934204D0054AD360F9
:2005E00070470023DBE7034AD36923F00103D361704700BF00200240C80400200A4B1B69EE
:2006000013F0800F0DD0084B084A5A6002F188325A601B6913F0800F01D0012070470020C6
:2006200070470020704700BF0020024023016745034A136943F0800313610020704700BFB2
:200640000020024038B50446FFF7CAFD0546174BDB6813F0010F0AD0B4F1FF3FF7D00CB3FE
:20066000FFF7BEFD401BA042F1D9032019E00F4BDB6813F0200F02D00C4B2022DA600B4BDC
:20068000DB6813F0100F09D1084BDB6913F0010F04D1064BDB6813F0040F05D0FFF774FFB4
:2006A000012038BD0320FCE70020FAE7002002402DE9F843234C247E012C41D01E469046E1
:2006C0000F4604461F4B01221A764CF25030FFF7B9FF034670BB012C29D0022C24D04FF0F7
:2006E000040900244C4525D22101C1F12002A1F1200328FA01F106FA02F2114326FA03F324
:20070000194389B207EB4400FFF730FF4CF25030FFF798FF0C4B1D6925F001051D610346DD
:2007200040B90134E4B2DDE74FF00209D9E74FF00109D6E7034A002111761846BDE8F883AE
:200740000223FAE7C804002000200240F0B482B000263546A1E0002C59D0012C00D1CE68C4
:20076000FF2B68D88446FF2B68D8AC00DCF800200F27A74022EA070206FA04F42243CCF8E8
:2007800000204A6812F0805F00F086805E4A946944F001049461926902F001020192019ABF
:2007A000AC08A71C594A52F8272005F00307BF004FF00F0C0CFA07FC22EA0C0C544A9042D9
:2007C00042D002F5806290427FD002F5806290427DD002F58062904234D0042235E04D4F8F
:2007E000BC4214D00BD94C4FBC4210D007F58037BC420CD0A7F58017BC42B1D107E0A7F5F7
:200800008017BC4203D007F58037BC42A8D18C687CB1012C08D042610826A1E7CE68083653
:200820009EE7CE680C369BE70261082698E7002696E7042694E700F1040C94E7A5F10804C3
:20084000A40093E7032200E00022BA4042EA0C0202342E4F47F824204A6812F4803F38D06A
:200860002E4C22681A4322604A6812F4003F36D02A4C62681A4362604A6812F4801F34D0DE
:20088000264CA2681A43A2604A6812F4001F32D0224CE2681343E36001350F2D31D80122B5
:2008A000AA400B6813409A42F6D14C68122CB8D095D8022CB2D07FF64EAF032CB7D0112CE9
:2008C0007FF44EAFCE6804364AE70122BDE70222BBE7124C226822EA03022260C4E70F4CF9
:2008E000626822EA03026260C6E70C4CA26822EA0302A260C8E7094CE26822EA0303E36096
:20090000CAE702B0F0BC70470010024000000140000801400000211000003110000401407E
:2009200012B909040161704701617047014B01221A60704720000E4282B0084B1B68084A43
:20094000A2FB03235B0A00FB03F0019000BF019B5A1E0192002BF9D102B070470C040020FC
:20096000D34D621070B582B00446036813F0010F2CD0AB4B5B6803F00C03042B1DD0A84B00
:200980005B6803F00C03082B12D06368B3F5803F41D0002B55D103F1804303F504331A6881
:2009A00022F480321A601A6822F480221A6037E09B4B5B6813F4803FE7D0994B1B6813F496
:2009C000003F03D06368002B00F0AE81236813F0020F76D0924B5B6813F00C0F5FD0904B43
:2009E0005B6803F00C03082B54D02369002B00F08A808C4B01221A60FFF7F2FB0546884BB5
:200A00001B6813F0020F75D1FFF7EAFB401B0228F5D903208BE1824A136843F48033136098
:200A2000636843B3FFF7DCFB05467D4B1B6813F4003FCBD1FFF7D4FB401B6428F5D9032013
:200A400075E1B3F5A02F09D0754B1A6822F480321A601A6822F480221A60E1E703F1804339
:200A6000A3F53C331A6842F480221A601A6842F480321A60D4E7FFF7B3FB0546684B1B68D7
:200A800013F4003FA2D0FFF7ABFB401B6428F5D903204CE1624B5B6813F4803FA5D1604BA6
:200AA0001B6813F0020F04D02369012B01D001203DE15B4A136823F0F803616943EAC1031A
:200AC0001360236813F0080F32D0A369002B5BD0554B01221A60FFF783FB0546504B5B6A3E
:200AE00013F0020F21D1FFF77BFB401B0228F5D903201CE14A4A136823F0F803616943EAFD
:200B0000C1031360DDE7474B00221A60FFF768FB0546434B1B6813F0020FD2D0FFF760FBF0
:200B2000401B0228F5D9032001E10120FFF704FF236813F0040F00F09780394BDB6913F0D0
:200B4000805F33D1364BDA6942F08052DA61DB6903F080530193019B0125344B1B6813F446
:200B6000807F25D0E368012B36D0002B4CD103F1804303F504331A6A22F001021A621A6A3D
:200B800022F004021A622CE0274B00221A60FFF727FB0546224B5B6A13F0020FC8D0FFF770
:200BA0001FFB401B0228F5D90320C0E00025D4E71E4A136843F480731360FFF711FB064657
:200BC0001A4B1B6813F4807FCCD1FFF709FB801B6428F5D90320AAE0114A136A43F00103DF
:200BE0001362E36873B3FFF7FBFA06460C4B1B6A13F0020F37D1FFF7F3FA801B41F2883374
:200C00009842F3D9032092E0052B11D0044B1A6A22F001021A621A6A22F004021A62E0E745
:200C200000100240000042428004424200700040414B1A6A42F004021A621A6A42F00102A9
:200C40001A62CEE7FFF7CCFA06463B4B1B6A13F0020F08D0FFF7C4FA801B41F2883398424D
:200C6000F3D9032063E0E5B9E369002B5ED0324A526802F00C02082A5BD0022B17D02F4BDE
:200C800000221A60FFF7ACFA04462B4B1B6813F0007F47D0FFF7A4FA001B0228F5D9032076
:200CA00045E0254AD36923F08053D361DCE7234B00221A60FFF794FA05461F4B1B6813F0BE
:200CC000007F06D0FFF78CFA401B0228F5D903202DE0236AB3F5803F1AD017494B6823F4B8
:200CE0007413226A606A024313434B60134B01221A60FFF775FA04460F4B1B6813F0007FC8
:200D00000ED1FFF76DFA001B0228F5D903200EE0094A536823F40033A1680B435360DCE74E
:200D2000002004E0002002E0012000E0002002B070BD0120FBE700BF0010024060004242B5
:200D400010B487B0164C94E80F000DF1180C0CE90F00238AADF80430124B5B6803F00C02DE
:200D6000082A1AD1C3F38342624412F8102C13F4803F05D10C4800FB02F007B010BC7047D8
:200D8000084B5B68C3F34043634413F8143C074800FB02F0B0FBF3F0EFE70448EDE700BF83
:200DA000145200080010024000093D0000127A00594B1B6803F007038B420CD2564A1368B7
:200DC00023F007030B431360136803F007038B4201D00120704770B5036813F0020F06D0CD
:200DE0004E4A536823F0F0038468234353600C460546036813F0010F52D04368012B23D08E
:200E0000022B28D0454A126812F0020F00F0828042494A6822F0030213434B60FFF7E0F97B
:200E200006466B68012B1DD0022B2AD03B4B5B6813F00C0F34D0FFF7D3F9801B41F288339D
:200E40009842F3D9032064E0344A126812F4003FDED101205DE0314A126812F0007FD7D11D
:200E6000012056E02D4B5B6803F00C03042B17D0FFF7B6F9801B41F288339842F2D90320D2
:200E800047E0264B5B6803F00C03082B08D0FFF7A7F9801B41F288339842F2D9032038E0EB
:200EA0001D4B1B6803F00703A3420CD91A4A136823F0070323431360136803F00703A3424E
:200EC00001D0012025E02B6813F0040F06D0134A536823F4E063E9680B4353602B6813F042
:200EE000080F07D00D4A536823F46053296943EAC1035360FFF724FF084B5B68C3F30313F7
:200F0000074AD35CD840074B18600020FFF726F9002070BD0120FCE7002002400010024035
:200F20003C5200080C040020014B1868704700BF0C04002008B5FFF7F7FF044B5B68C3F308
:200F40000223034AD35CD84008BD00BF001002404C52000808B5FFF7E7FF044B5B68C3F3FB
:200F6000C223034AD35CD84008BD00BF001002404C52000870B582B00446036813F0010F5D
:200F800034D03E4BDB6913F0805F48D13B4BDA6942F08052DA61DB6903F080530193019B43
:200FA0000125374B1B6813F4807F3AD0334B1B6A13F4407311D0626802F440729A420CD02E
:200FC0002E4A136A23F440702E4901260E6000260E60106213F0010F37D1284A136A23F422
:200FE000407361680B431362002D3FD1236813F0020F06D0214A536823F44043A1680B43E9
:201000005360236813F0100F35D01C4A536823F48003E1680B435360002002B070BD002542
:20102000BFE7174A136843F480731360FFF7D8F80646134B1B6813F4807FB7D1FFF7D0F852
:20104000801B6428F5D90320E7E7FFF7C9F806460A4B1B6A13F0020FBFD1FFF7C1F8801BDF
:2010600041F288339842F3D90320D6E7D36923F08053D361BAE70020CFE700BF001002401E
:20108000007000404004424230B587B00546384C94E80F000DF1180C0CE90F00238AADF8EA
:2010A0000430022D50D0102D03D0012D2BD0002054E0304B5A681B6813F0807F50D0C2F389
:2010C000834306A90B4413F8100C12F4803F16D0284B5B68C3F340430B4413F8142C264B00
:2010E000B3FBF2F300FB03F0224B5B6813F4800F34D14000214BA3FB003040082EE0204B69
:2011000003FB00F0F0E71B4B1B6A40F202321A40B2F5817F26D003F44073B3F5007F04D01D
:20112000B3F5407F09D0002018E0124A526A12F0020FF5D049F6404010E00E4B1B6813F4D5
:20114000003F12D1002009E0FFF704FF094B5B68C3F3813301335B00B0FBF3F007B030BD29
:201160000020FBE74FF40040F8E74FF22440F5E7285200080010024000127A00ABAAAAAA81
:2011800000093D0030B402689469A5B2D369916988B2854205D0D06980B240EA014030BC99
:2011A000704798B240EA0440F9E70368186A5B6A9BB243EA00407047002302E001330A3842
:2011C000C0B20928FAD81B01DBB218437047030903EB83035A0000F00F001044C0B2704789
:2011E00010F0030F16D10D4BA3FB00235B09642202FB13039BB27BB9084BA3FB0023DB0967
:201200004FF4C87202FB130080B208B1002070470120704700207047012070471F85EB5118
:2012200010B400F5FA64022920D901EB4103C1EBC3011F4BA3FB011302EB5303234403EB1F
:2012400094031C4AA2FB0424A3EB541303EBD41302331948A0FB03201A1A00EB52008008B5
:20126000C0EBC000181AC0B210BC704701EB4103C1EBC3010E4BA3FB011302EB5303234487
:2012800000F2CF7003EB90030A4AA2FB0020A3EB501303EBD01304330748A0FB03201A1A51
:2012A00000EB52008008C0EBC000181ADBE700BF398EE3381F85EB51254992242DE9F84314
:2012C0000746884690F80F90447B857B002603E01E2D1FD80135013646453DD2012CF7D0C7
:2012E000032CF5D0052CF3D0072CF1D0082CEFD00A2CEDD00C2CEBD0042C15D0062C13D00F
:20130000092C11D00B2C0FD0022CE4D11B2D12D80135E0E70C2C02D001340125DBE709F16E
:20132000010901252C46D6E71D2D01D80135D2E701340125CFE71C2D04D01D2DCBD10134F3
:201340000125C8E71FFA89F0FFF74AFF08B10135C1E701340125BEE787F80F90E1B27973B3
:20136000EAB2BA734846FFF75BFF3873BDE8F88338B50446FEF734FF054623685A6812F002
:20138000200F07D1FEF72CFF401BB0F57A7FF4D9032004E05A6842F010025A60002038BD84
:2013A00038B504460268536823F010035360FEF717FF054623685B6813F0200F07D1FEF755
:2013C0000FFF401BB0F57A7FF4D9032000E0002038BD38B505460C46FFF7CAFF10B10123F3
:2013E000184638BD2B68220C9A612B68A4B2DC612846FFF7D5FF03460028F1D00123EFE754
:2014000038B505460C46FFF7B3FF10B10123184638BD2B68220C1A622B68A4B25C62284610
:20142000FFF7BEFF03460028F1D00123EFE770B5002857D00446002956D0037C012B55D0F0
:201440000E460123037402234374BAB90D784B78C3EB03139A004FF4616303FB05258B7876
:201460001D4429462046FFF7B4FF0646C8B104236374002323740126304670BD0878FFF7D0
:20148000A6FE4FF4616505FB00F57078FFF79FFEC0EB001083001D44B078FFF798FE054493
:2014A000DFE72268536823F0050353602046FFF77CFEB0F1FF3F01D0854204D8012363742F
:2014C00000232374D8E700F5A83101F5C0712046FFF796FF0028F1D004236374002323740C
:2014E0000126C9E70126C7E70126C5E70226C3E7002875D02DE9F0470546002972D00368C0
:201500005B6813F0040F02D00120BDE8F08716460C46FFF737FE0746364AA2FB0032D20A92
:201520004FF4616000FB1270334BA3FB00135B096370C3EB03139900411AA170172A10D8D2
:201540002270002E54D02078FFF736FE20706078FFF732FE6070A078FFF72EFEA07000201D
:20156000D3E7264BA3FB07384FEA1848244BA3FB02131B0903EB4303D900531A2370284609
:20158000FFF713FE8246B0F1FF3F03D087421CD2A0EB070A194BA3FB07394FEA1949194B36
:2015A00003FB197949462846FFF713FFE0B9BAF1FF3F0DD00AEB09012846FFF721FFA8B953
:2015C00041462846FFF77AFEBBE74FF0FF3AE1E751462846FFF714FF0028F1D0012094E733
:2015E00001207047012090E701208EE701208CE700208AE7C5B3A2918988888807452EC2B8
:20160000ABAAAAAA8051010000285DD038B5044600295BD0037C012B5AD00D4601230374AC
:2016200002234374D2B9CB78C3734B7843738B788373A27B617BE07BFFF7F2FD20732870F4
:201640002046FFF79FFD234BA3FB0023B3F5484F11D2012363740020207438BDC878FFF767
:20166000B6FDE0736878FFF7B2FD6073A878FFF7AEFDA073DDE7184DA5FB00352D0C174B9F
:2016800003FB150529462046FFF7A3FE28B104236374002323740120DFE72046FFF785FD70
:2016A000B0F1FF3FD5D08542D3D900F5A83101F5C0712046FFF7A4FE0028CAD00423637480
:2016C000002323740120C8E7012070470120C4E70220C2E7C5B3A29107452EC28051010058
:2016E000C0B138B504460268536823F008035360FEF776FD054623685B6813F0080F07D159
:18170000FEF76EFD401BB0F57A7FF4D9032000E0002038BD01207047BB
:00000001FF
