:020000040800F2
:2000000000500020293F0008E93A0008EB3A0008ED3A0008EF3A0008F13A00080000000015
:20002000000000000000000000000000F33A0008F53A000800000000F73A0008F93A0008E0
:20004000713F0008713F0008713F0008713F0008713F0008713F0008713F0008713F0008E0
:20006000713F0008713F0008713F0008713F0008713F0008053B0008713F0008713F000830
:20008000713F0008713F0008713F0008713F0008713F0008713F0008713F0008713F0008A0
:2000A000713F0008713F0008713F0008713F0008713F0008153B0008293B0008713F00082C
:2000C000713F0008713F0008713F0008713F0008713F0008713F0008713F0008713F000860
:2000E000713F0008713F0008713F00080000000000000000000000000000000000000000D8
:2001000000000000000000005FF808F110B5054C237833B9044B13B10448AFF3008001234D
:20012000237010BD5404002000000000DC48000808B5034B1BB103490348AFF3008008BD66
:200140000000000058040020DC480008034613F8012B002AFBD1181A0138704710B5044650
:200160000E4B18784FF47A73B3FBF0F30C4A1068B0FBF3F000F0A0F868B90F2C01D901209A
:200180000AE0002221464FF0FF3000F055F8034B5C60002000E0012010BD00BF000000206A
:2001A000EC03002008B5074A136843F010031360032000F02FF80020FFF7D0FF03F044FC9C
:2001C000002008BD00200240034A1168034B1B780B441360704700BFA00400200000002015
:2001E000014B1868704700BFA004002038B50446FFF7F6FF0546B4F1FF3F02D0044B1B78F5
:200200001C44FFF7EDFF401BA042FAD338BD00BF00000020074AD36823F4E0631B041B0C92
:20022000000200F4E060184340F0BF6040F40030D060704700ED00E030B4174BDB68C3F387
:200240000223C3F10704042C28BF04241D1D062D18D9033B4FF0FF3505FA04F421EA040165
:20026000994005FA03F322EA0303194300280BDB0901C9B200F1604000F5614080F80013FD
:2002800030BC70470023E5E700F00F000901C9B2024B1954F4E700BF00ED00E014ED00E046
:2002A00000F01F02400901239340024A42F82030704700BF00E100E00138B0F1807F0AD22B
:2002C000064B5860064AF02182F823100020986007221A6070470120704700BF10E000E02E
:2002E00000ED00E0042805D0054A136823F0040313607047024A136843F0040313607047F7
:2003000010E000E0704708B5FFF7FCFF08BD70B4066CC56B0124B4406C600468636043685E
:20032000102B05D0036899600368DA6070BC704703689A600368D960F8E70000002830D0B1
:2003400010B403460168184A0A441848A0FB0202120992001A64164ADA63022283F82120D0
:20036000086820F47F5020F030005A689C682243DC6822431C6922435C6922439C69224398
:20038000DC69224302430A6000209862D862186358639863012283F8212083F8200010BC39
:2003A00070470120704700BFF8FFFDBFCDCCCCCC0000024038B590F82040012C32D00124A0
:2003C00080F8204090F82140012C04D0002380F82030022038BD0446022084F82100002030
:2003E000A0632568286820F0010028602046FFF78EFFE36A5BB12268136843F00E03136046
:200400002268136843F0010313600020E2E72268136823F0040313602268136843F00A036D
:200420001360EDE70220D5E738B5C36B1A6804682568016C04238B40134235D015F0040F30
:2004400032D0236813F0200F03D1236823F0040323600368434A934214D01432934218D02D
:200460001432934217D01432934217D01432934217D01432934202D04FF0806203E04FF442
:20048000800200E00422384B5A60C36A03B1984738BD4022F7E74FF48062F4E74FF480429D
:2004A000F1E74FF48022EEE702238B4013423CD015F0020F39D0236813F0200F06D123681B
:2004C00023F00A032360012380F821300368254A934214D0143293421CD0143293421BD0EC
:2004E000143293421BD0143293421BD01432934202D04FF0007203E04FF4001200E0022216
:20050000194B5A60002380F82030836A002BBFD09847BDE72022F3E74FF40072F0E74FF4BD
:200520000052EDE74FF40032EAE7082303FA01F11142ADD015F0080FAAD0236823F00E0320
:200540002360026CC16B012303FA02F24A60836380F82130002380F82030036B002B97D025
:20056000984795E70800024000000240F0B482B000263546A1E0002C59D0012C00D1CE6813
:20058000FF2B68D88446FF2B68D8AC00DCF800200F27A74022EA070206FA04F42243CCF8CA
:2005A00000204A6812F0805F00F086805E4A946944F001049461926902F001020192019AA1
:2005C000AC08A71C594A52F8272005F00307BF004FF00F0C0CFA07FC22EA0C0C544A9042BB
:2005E00042D002F5806290427FD002F5806290427DD002F58062904234D0042235E04D4F71
:20060000BC4214D00BD94C4FBC4210D007F58037BC420CD0A7F58017BC42B1D107E0A7F5D8
:200620008017BC4203D007F58037BC42A8D18C687CB1012C08D042610826A1E7CE68083635
:200640009EE7CE680C369BE70261082698E7002696E7042694E700F1040C94E7A5F10804A5
:20066000A40093E7032200E00022BA4042EA0C0202342E4F47F824204A6812F4803F38D04C
:200680002E4C22681A4322604A6812F4003F36D02A4C62681A4362604A6812F4801F34D0C0
:2006A000264CA2681A43A2604A6812F4001F32D0224CE2681343E36001350F2D31D8012297
:2006C000AA400B6813409A42F6D14C68122CB8D095D8022CB2D07FF64EAF032CB7D0112CCB
:2006E0007FF44EAFCE6804364AE70122BDE70222BBE7124C226822EA03022260C4E70F4CDB
:20070000626822EA03026260C6E70C4CA26822EA0302A260C8E7094CE26822EA0303E36077
:20072000CAE702B0F0BC704700100240000001400008014000002110000031100004014060
:2007400012B909040161704701617047014B01221A60704720000E4282B0084B1B68084A25
:20076000A2FB03235B0A00FB03F0019000BF019B5A1E0192002BF9D102B07047EC030020FF
:20078000D34D621070B582B00446036813F0010F2CD0AB4B5B6803F00C03042B1DD0A84BE2
:2007A0005B6803F00C03082B12D06368B3F5803F41D0002B55D103F1804303F504331A6863
:2007C00022F480321A601A6822F480221A6037E09B4B5B6813F4803FE7D0994B1B6813F478
:2007E000003F03D06368002B00F0AE81236813F0020F76D0924B5B6813F00C0F5FD0904B25
:200800005B6803F00C03082B54D02369002B00F08A808C4B01221A60FFF7E2FC0546884BA5
:200820001B6813F0020F75D1FFF7DAFC401B0228F5D903208BE1824A136843F48033136089
:20084000636843B3FFF7CCFC05467D4B1B6813F4003FCBD1FFF7C4FC401B6428F5D9032013
:2008600075E1B3F5A02F09D0754B1A6822F480321A601A6822F480221A60E1E703F180431B
:20088000A3F53C331A6842F480221A601A6842F480321A60D4E7FFF7A3FC0546684B1B68C8
:2008A00013F4003FA2D0FFF79BFC401B6428F5D903204CE1624B5B6813F4803FA5D1604B97
:2008C0001B6813F0020F04D02369012B01D001203DE15B4A136823F0F803616943EAC103FC
:2008E0001360236813F0080F32D0A369002B5BD0554B01221A60FFF773FC0546504B5B6A2F
:2009000013F0020F21D1FFF76BFC401B0228F5D903201CE14A4A136823F0F803616943EAED
:20092000C1031360DDE7474B00221A60FFF758FC0546434B1B6813F0020FD2D0FFF750FCF0
:20094000401B0228F5D9032001E10120FFF704FF236813F0040F00F09780394BDB6913F0B2
:20096000805F33D1364BDA6942F08052DA61DB6903F080530193019B0125344B1B6813F428
:20098000807F25D0E368012B36D0002B4CD103F1804303F504331A6A22F001021A621A6A1F
:2009A00022F004021A622CE0274B00221A60FFF717FC0546224B5B6A13F0020FC8D0FFF761
:2009C0000FFC401B0228F5D90320C0E00025D4E71E4A136843F480731360FFF701FC064657
:2009E0001A4B1B6813F4807FCCD1FFF7F9FB801B6428F5D90320AAE0114A136A43F00103D1
:200A00001362E36873B3FFF7EBFB06460C4B1B6A13F0020F37D1FFF7E3FB801B41F2883373
:200A20009842F3D9032092E0052B11D0044B1A6A22F001021A621A6A22F004021A62E0E727
:200A400000100240000042428004424200700040414B1A6A42F004021A621A6A42F001028B
:200A60001A62CEE7FFF7BCFB06463B4B1B6A13F0020F08D0FFF7B4FB801B41F2883398424D
:200A8000F3D9032063E0E5B9E369002B5ED0324A526802F00C02082A5BD0022B17D02F4BC0
:200AA00000221A60FFF79CFB04462B4B1B6813F0007F47D0FFF794FB001B0228F5D9032076
:200AC00045E0254AD36923F08053D361DCE7234B00221A60FFF784FB05461F4B1B6813F0AF
:200AE000007F06D0FFF77CFB401B0228F5D903202DE0236AB3F5803F1AD017494B6823F4A9
:200B00007413226A606A024313434B60134B01221A60FFF765FB04460F4B1B6813F0007FB8
:200B20000ED1FFF75DFB001B0228F5D903200EE0094A536823F40033A1680B435360DCE73F
:200B4000002004E0002002E0012000E0002002B070BD0120FBE700BF001002406000424297
:200B600010B487B0164C94E80F000DF1180C0CE90F00238AADF80430124B5B6803F00C02C0
:200B8000082A1AD1C3F38342624412F8102C13F4803F05D10C4800FB02F007B010BC7047BA
:200BA000084B5B68C3F34043634413F8143C074800FB02F0B0FBF3F0EFE70448EDE700BF65
:200BC000F44800080010024000093D0000127A00594B1B6803F007038B420CD2564A1368C3
:200BE00023F007030B431360136803F007038B4201D00120704770B5036813F0020F06D0AF
:200C00004E4A536823F0F0038468234353600C460546036813F0010F52D04368012B23D06F
:200C2000022B28D0454A126812F0020F00F0828042494A6822F0030213434B60FFF7D0FA6C
:200C400006466B68012B1DD0022B2AD03B4B5B6813F00C0F34D0FFF7C3FA801B41F288338E
:200C60009842F3D9032064E0344A126812F4003FDED101205DE0314A126812F0007FD7D1FF
:200C8000012056E02D4B5B6803F00C03042B17D0FFF7A6FA801B41F288339842F2D90320C3
:200CA00047E0264B5B6803F00C03082B08D0FFF797FA801B41F288339842F2D9032038E0DC
:200CC0001D4B1B6803F00703A3420CD91A4A136823F0070323431360136803F00703A34230
:200CE00001D0012025E02B6813F0040F06D0134A536823F4E063E9680B4353602B6813F024
:200D0000080F07D00D4A536823F46053296943EAC1035360FFF724FF084B5B68C3F30313D8
:200D2000074AD35CD840074B18600020FFF716FA002070BD0120FCE7002002400010024026
:200D40001C490008EC030020014B1868704700BFEC03002008B5FFF7F7FF044B5B68C3F355
:200D60000223034AD35CD84008BD00BF001002402C49000808B5FFF7E7FF044B5B68C3F306
:200D8000C223034AD35CD84008BD00BF001002402C49000870B582B00446036813F0010F68
:200DA00034D03E4BDB6913F0805F48D13B4BDA6942F08052DA61DB6903F080530193019B25
:200DC0000125374B1B6813F4807F3AD0334B1B6A13F4407311D0626802F440729A420CD010
:200DE0002E4A136A23F440702E4901260E6000260E60106213F0010F37D1284A136A23F404
:200E0000407361680B431362002D3FD1236813F0020F06D0214A536823F44043A1680B43CA
:200E20005360236813F0100F35D01C4A536823F48003E1680B435360002002B070BD002524
:200E4000BFE7174A136843F480731360FFF7C8F90646134B1B6813F4807FB7D1FFF7C0F952
:200E6000801B6428F5D90320E7E7FFF7B9F906460A4B1B6A13F0020FBFD1FFF7B1F9801BDF
:200E800041F288339842F3D90320D6E7D36923F08053D361BAE70020CFE700BF0010024000
:200EA000007000404004424230B587B00546384C94E80F000DF1180C0CE90F00238AADF8CC
:200EC0000430022D50D0102D03D0012D2BD0002054E0304B5A681B6813F0807F50D0C2F36B
:200EE000834306A90B4413F8100C12F4803F16D0284B5B68C3F340430B4413F8142C264BE2
:200F0000B3FBF2F300FB03F0224B5B6813F4800F34D14000214BA3FB003040082EE0204B4A
:200F200003FB00F0F0E71B4B1B6A40F202321A40B2F5817F26D003F44073B3F5007F04D0FF
:200F4000B3F5407F09D0002018E0124A526A12F0020FF5D049F6404010E00E4B1B6813F4B7
:200F6000003F12D1002009E0FFF704FF094B5B68C3F3813301335B00B0FBF3F007B030BD0B
:200F80000020FBE74FF40040F8E74FF22440F5E7084900080010024000127A00ABAAAAAA8C
:200FA00000093D0030B402689469A5B2D369916988B2854205D0D06980B240EA014030BC7B
:200FC000704798B240EA0440F9E70368186A5B6A9BB243EA00407047002302E001330A3824
:200FE000C0B20928FAD81B01DBB218437047030903EB83035A0000F00F001044C0B270476B
:2010000010F0030F16D10D4BA3FB00235B09642202FB13039BB27BB9084BA3FB0023DB0948
:201020004FF4C87202FB130080B208B1002070470120704700207047012070471F85EB51FA
:2010400010B400F5FA64022920D901EB4103C1EBC3011F4BA3FB011302EB5303234403EB01
:2010600094031C4AA2FB0424A3EB541303EBD41302331948A0FB03201A1A00EB5200800897
:20108000C0EBC000181AC0B210BC704701EB4103C1EBC3010E4BA3FB011302EB5303234469
:2010A00000F2CF7003EB90030A4AA2FB0020A3EB501303EBD01304330748A0FB03201A1A33
:2010C00000EB52008008C0EBC000181ADBE700BF398EE3381F85EB51254992242DE9F843F6
:2010E0000746884690F80F90447B857B002603E01E2D1FD80135013646453DD2012CF7D0A9
:20110000032CF5D0052CF3D0072CF1D0082CEFD00A2CEDD00C2CEBD0042C15D0062C13D0F0
:20112000092C11D00B2C0FD0022CE4D11B2D12D80135E0E70C2C02D001340125DBE709F150
:20114000010901252C46D6E71D2D01D80135D2E701340125CFE71C2D04D01D2DCBD10134D5
:201160000125C8E71FFA89F0FFF74AFF08B10135C1E701340125BEE787F80F90E1B2797395
:20118000EAB2BA734846FFF75BFF3873BDE8F88338B50446FFF724F8054623685A6812F0FA
:2011A000200F07D1FFF71CF8401BB0F57A7FF4D9032004E05A6842F010025A60002038BD7C
:2011C00038B504460268536823F010035360FFF707F8054623685B6813F0200F07D1FEF74D
:2011E000FFFF401BB0F57A7FF4D9032000E0002038BD38B505460C46FFF7CAFF10B10123E5
:20120000184638BD2B68220C9A612B68A4B2DC612846FFF7D5FF03460028F1D00123EFE735
:2012200038B505460C46FFF7B3FF10B10123184638BD2B68220C1A622B68A4B25C622846F2
:20124000FFF7BEFF03460028F1D00123EFE770B5002857D00446002956D0037C012B55D0D2
:201260000E460123037402234374BAB90D784B78C3EB03139A004FF4616303FB05258B7858
:201280001D4429462046FFF7B4FF0646C8B104236374002323740126304670BD0878FFF7B2
:2012A000A6FE4FF4616505FB00F57078FFF79FFEC0EB001083001D44B078FFF798FE054475
:2012C000DFE72268536823F0050353602046FFF77CFEB0F1FF3F01D0854204D80123637411
:2012E00000232374D8E700F5A83101F5C0712046FFF796FF0028F1D00423637400232374EE
:201300000126C9E70126C7E70126C5E70226C3E7002875D02DE9F0470546002972D00368A1
:201320005B6813F0040F02D00120BDE8F08716460C46FFF737FE0746364AA2FB0032D20A74
:201340004FF4616000FB1270334BA3FB00135B096370C3EB03139900411AA170172A10D8B4
:201360002270002E54D02078FFF736FE20706078FFF732FE6070A078FFF72EFEA0700020FF
:20138000D3E7264BA3FB07384FEA1848244BA3FB02131B0903EB4303D900531A23702846EB
:2013A000FFF713FE8246B0F1FF3F03D087421CD2A0EB070A194BA3FB07394FEA1949194B18
:2013C00003FB197949462846FFF713FFE0B9BAF1FF3F0DD00AEB09012846FFF721FFA8B935
:2013E00041462846FFF77AFEBBE74FF0FF3AE1E751462846FFF714FF0028F1D0012094E715
:2014000001207047012090E701208EE701208CE700208AE7C5B3A2918988888807452EC299
:20142000ABAAAAAA8051010000285DD038B5044600295BD0037C012B5AD00D46012303748E
:2014400002234374D2B9CB78C3734B7843738B788373A27B617BE07BFFF7F2FD20732870D6
:201460002046FFF79FFD234BA3FB0023B3F5484F11D2012363740020207438BDC878FFF749
:20148000B6FDE0736878FFF7B2FD6073A878FFF7AEFDA073DDE7184DA5FB00352D0C174B81
:2014A00003FB150529462046FFF7A3FE28B104236374002323740120DFE72046FFF785FD52
:2014C000B0F1FF3FD5D08542D3D900F5A83101F5C0712046FFF7A4FE0028CAD00423637462
:2014E000002323740120C8E7012070470120C4E70220C2E7C5B3A29107452EC2805101003A
:20150000C0B138B504460268536823F008035360FEF766FE054623685B6813F0080F07D149
:20152000FEF75EFE401BB0F57A7FF4D9032000E0002038BD0120704700285AD010B5044643
:20154000437C53B1022363742046FFF7D9FF40B1042363740123184610BD037402F054FAA3
:20156000F0E72046FFF714FE002830D12268536823F007035360A36823B11F4A136B23F00F
:20158000010313631C4AD36A23F46073A1680B43D3626268B2F1FF3F1DD021688B6823F091
:2015A0000F0343EA12438B602168CB681B0C1B0492B21343CB602046FFF702FE0346A0B9E7
:2015C0000022E27301226273A2736274C3E7042363740123BFE70120FFF766FC08B1421EAD
:2015E000DBE7042363740123B5E7042363740123B1E7012318467047006C004070B4036A3B
:2016000023F001030362036A4268846924F073040D6845EA040623F002048B6823430D4D45
:20162000A84209D00B4DA8420DD0426086614A684263036270BC704723F00803CC682343E8
:2016400023F00403EEE722F440724C6914438A692243EAE7002C014030B4036A23F48073D6
:201660000362036A4268C46924F073040D682C4323F400738D6843EA05230F4DA84209D05F
:201680000D4DA8420ED04260C4614A68C263036230BC704723F40063CD6843EA052323F467
:2016A0008063EDE722F440524D6942EA05128D6942EA0512E7E700BF002C014030B4036A4E
:2016C00023F480530362036A4468C26922F4E6420D6842EA052223F400538D6843EA0533AD
:2016E000074DA84206D04460C2614A680264036230BC704724F480444D6944EA8514F2E7BD
:20170000002C014010B4036A046A24F001040462846924F0F00444EA021223F00A030B4399
:201720008261036210BC704710B4036A23F0100303628469036A24F4704444EA023223F087
:20174000A00343EA01138261036210BC7047836823F0700341F0070119438160704710B478
:20176000846824F47F4442EA03230B432343836010BC7047022380F83D300268136843F014
:2017800001031360012380F83D3000207047022380F83D300368196A41F21112114208D178
:2017A000196A40F24442114203D11A6822F001021A60012380F83D30002070470268D36831
:2017C00043F00103D3600268136843F0010313600020704790F83C30012B7DD010B50446BD
:2017E000012380F83C30022380F83D300268936823F47F4323F0770393600B68402B57D014
:2018000010D9702B3ED01FD8502B47D0602B32D1CA6849680068FFF787FF60212068FFF759
:2018200096FF28E0102B4DD008D9202B4FD0302B21D130210068FFF78AFF1CE0DBB9002132
:201840000068FFF784FF16E0B3F5805F0ED0B3F5005F10D1CB684A6889680068FFF77FFFB2
:201860002268936843F48043936004E00268936823F007039360012384F83D30002084F8F4
:201880003C0010BDCB684A6889680068FFF767FF2268936843F077039360ECE7CA684968CA
:2018A0000068FFF72FFF50212068FFF750FFE2E7CA6849680068FFF725FF40212068FFF751
:2018C00046FFD8E710210068FFF741FFD3E720210068FFF73CFFCEE70220704770477047A5
:2018E00070477047704710B5044603681A6912F0020F11D0DA6812F0020F0DD06FF002023D
:201900001A610123037703689B6913F0030F70D0FFF7E6FF0023237723681A6912F0040F2F
:2019200012D0DA6812F0040F0ED06FF004021A610223237723689B6913F4407F5FD0204607
:20194000FFF7CEFF0023237723681A6912F0080F12D0DA6812F0080F0ED06FF008021A61E1
:20196000042323772368DB6913F0030F4ED02046FFF7B6FF0023237723681A6912F0100FA7
:2019800012D0DA6812F0100F0ED06FF010021A61082323772368DB6913F4407F3DD020466B
:2019A000FFF79EFF0023237723681A6912F0010F03D0DA6812F0010F36D123681A6912F079
:2019C000800F03D0DA6812F0800F34D123681A6912F0400F03D0DA6812F0400F32D123687A
:2019E0001A6912F0200F03D0DA6812F0200F30D110BDFFF774FF2046FFF773FF8AE7204611
:201A0000FFF76DFF2046FFF76CFF9BE72046FFF766FF2046FFF765FFACE72046FFF75FFF4D
:201A20002046FFF75EFFBDE76FF001021A612046FFF754FFC1E76FF080021A61204600F063
:201A40009BF9C3E76FF040021A612046FFF74AFFC5E76FF020021A61204600F08CF9C7E756
:201A600003681B4A90420AD0B0F1804F07D0A2F59432904203D002F58062904203D123F00F
:201A800070034A681343124A90420AD0B0F1804F07D0A2F59432904203D002F580629042CF
:201AA00003D123F44073CA68134323F080034A69134303608B68C3620B688362044B984265
:201AC00002D00123436170470B690363F9E700BF002C0140A8B110B5044690F83D305BB166
:201AE000022384F83D30211D2068FFF7B9FF012384F83D30002010BD80F83C3002F0D0F8CC
:201B0000EEE701207047A8B110B5044690F83D305BB1022384F83D30211D2068FFF7A0FF46
:201B2000012384F83D30002010BD80F83C3002F0A3F8EEE70120704730B4036A23F0100316
:201B40000362036A4468826922F4E6420D6842EA052223F020038D6843EA05130E4DA84261
:201B600009D00D4DA8420ED0446082614A688263036230BC704723F08003CD6843EA051334
:201B800023F04003EDE724F440644D6944EA85048D6944EA8504E7E7002C014038B590F895
:201BA0003C30012B66D00D460446012380F83C30022380F83D300C2A1AD8DFE802F00719A7
:201BC0001919201919193419191947000068FFF715FD2268936943F00803936122689369F4
:201BE00023F0040393612268936929690B439361012384F83D30002084F83C0038BD00683B
:201C0000FFF79AFF2268936943F4006393612268936923F48063936122689369296943EA68
:201C200001239361E4E70068FFF716FD2268D36943F00803D3612268D36923F00403D36104
:201C40002268D36929690B43D361D1E70068FFF735FD2268D36943F40063D3612268D36908
:201C600023F48063D3612268D369296943EA0123D361BDE70220C1E710B4012303FA01F411
:201C8000036A23EA04030362036A8A401343036210BC704710B5044601220068FFF7ECFF6E
:201CA0002368074A934206D02268136843F001031360002010BD5A6C42F400425A64F3E72B
:201CC000002C014010B5044600220068FFF7D4FF2368134A934213D02368196A41F2111231
:201CE000114208D1196A40F24442114203D11A6822F001021A60012384F83D30002010BD4B
:201D0000196A41F211121142E6D1196A40F244421142E1D15A6C22F400425A64DCE700BF42
:201D2000002C014090F83C30012B22D030B4012280F83C20022380F83D300468636823F0F5
:201D400070036360046863680D682B4363600468A36823F08003A3600468A36849680B43EA
:201D6000A36080F83D20002380F83C30184630BC704702207047704770470268D36823F084
:201D8000C003D360202380F8393070470268D36823F49073D3600268536923F0010353618F
:201DA000202380F83A3070472DE9F84305460268136923F44053C1680B43136183680269DA
:201DC0001343426913430168CA6822F4B05222F00C021343CB600268536923F4407381697E
:201DE0000B4353610268594B9A4257D0FEF7B2FF00EB800000EB80006C68A400B0FBF4F449
:201E0000534FA7FB043464092601FEF7A3FF00EB800000EB80006C68A400B0FBF4F9FEF740
:201E200099FF00EB800000EB80006C68A400B0FBF4F4A7FB043464094FF0640808FB14948C
:201E400024013234A7FB0434640904F0F0043444FEF780FF00EB800000EB80006E68B6007A
:201E6000B0FBF6F6FEF776FF00EB800000EB80006B689B00B0FBF3F0A7FB0030400908FB71
:201E800010684FEA081808F13208A7FB0837C7F343172B6827449F60BDE8F883FEF76AFFCE
:201EA00000EB800000EB80006C68A400B0FBF4F4274FA7FB043464092601FEF75BFF00EB23
:201EC000800000EB80006C68A400B0FBF4F9FEF751FF00EB800000EB80006C68A400B0FBC9
:201EE000F4F4A7FB043464094FF0640808FB149424013234A7FB0434640904F0F00434442B
:201F0000FEF738FF00EB800000EB80006E68B600B0FBF6F6FEF72EFF00EB800000EB8000A4
:201F20006B689B00B0FBF3F0A7FB0030400908FB10684FEA081808F13208A7FB0837C7F3E8
:201F400043172B6827449F60A6E700BF003801401F85EB512DE9F04105460F461646984664
:201F6000069C2B681B6837EA03030CBF01230023B3421DD1B4F1FF3FF3D02CB1FEF730F9EC
:201F8000A0EB0800A042ECD92A68D36823F4D073D3602A68536923F001035361202385F8D4
:201FA000393085F83A30002385F83830032000E00020BDE8F08158B310B5044690F8393085
:201FC0000BB3242384F839302268D36823F40053D3602046FFF7E8FE2268136923F4904383
:201FE00013612268536923F02A0353612268D36843F40053D3600020E063202384F8393026
:020000040800F2
:2020000084F83A3010BD80F8383001F013FFD8E7012070472DE9F04182B01E4690F83930C5
:20202000DBB2202B55D104460D469046002955D0002A55D090F83830012B53D0012380F8B7
:2020400038300023C363212380F83930FEF7C8F80746A4F82480A4F8268010E000963B461F
:20206000002280212046FFF775FF00283CD12B882268C3F3080353602369C3B90235E38C39
:202080009BB2B3B1E38C013B9BB2E384A368B3F5805FE3D000963B46002280212046FFF7B5
:2020A00059FF18BB2A7823685A600135E7E70135E5E700963B46002240212046FFF74AFFC9
:2020C0000346A8B9202284F83920002284F8382000E00223184602B0BDE8F0810123F9E71A
:2020E0000123F7E70223F5E70323F3E70323F1E70323EFE730B583B090F83A40E4B2202CE7
:202100003DD100293ED0002A3ED090F83830012B3CD013460A460446012180F83810826261
:2021200083850025C563222180F83A10416B18488862616B1748C862616B17480863616B98
:202140004D6321680431606BFEF734F9019523681A6801925A680192019A84F83850DA68B8
:2021600042F48072DA602268536943F0010353612268536943F040035361284600E00220EC
:2021800003B030BD0120FBE70120F9E70220F7E79F210008DF210008EB210008704708B543
:2021A000436A0268126812F0200F13D10022DA851968CA6822F48072CA6019684A6922F0CD
:2021C00001024A6119684A6922F040024A61202283F83A201846FFF7E1FF08BD704708B59A
:2021E000406AFFF7FBFF08BD704710B5446A23685A6994F83930DBB2212B10D023685A690C
:2022000002F0400294F83A30DBB2222B11D0E36B43F01003E3632046FFF7E6FF10BD02F0FF
:202220008002002AEAD00023E3842046FFF7A5FDE4E7002AEBD00023E3852046FFF7A6FD76
:20224000E5E7000008B528B1002210210648FEF777FA08BD0122102100F1804000F58430A2
:20226000FEF76EFAF5E700BF0008014008B528B1002202210648FEF763FA08BD0122022197
:2022800000F1804000F58430FEF75AFAF5E700BF0008014008B530B100224FF40041074824
:2022A000FEF74EFA08BD01224FF4004100F1804000F58830FEF744FAF4E700BF00100140F9
:2022C00008B528B1002204210648FEF739FA08BD0122042100F1804000F58430FEF730FA25
:2022E000F5E700BF0008014008B528B1002208210648FEF725FA08BD0122082100F18040F5
:2023000000F58430FEF71CFAF5E700BF0008014008B528B1002240210648FEF711FA08BDF9
:202320000122402100F1804000F58430FEF708FAF5E700BF0008014008B528B1002280218B
:202340000648FEF7FDF908BD0122802100F1804000F58430FEF7F4F9F5E700BF000801409B
:2023600008B530B100224FF480410748FEF7E8F908BD01224FF4804100F1804000F588302A
:20238000FEF7DEF9F4E700BF0010014008B530B101224FF480710748FEF7D2F908BD00229B
:2023A0004FF4807100F1804000F58430FEF7C8F9F4E700BF0008014008B530B101224FF4F2
:2023C00000710748FEF7BCF908BD00224FF4007100F1804000F58430FEF7B2F9F4E700BF64
:2023E0000008014008B530B101224FF480610748FEF7A6F908BD00224FF4806100F1804010
:2024000000F58430FEF79CF9F4E700BF0008014008B530B101224FF400610748FEF790F974
:2024200008BD00224FF4006100F1804000F58430FEF786F9F4E700BF0008014010B5F34B5D
:2024400000225A62044600284FD0012C66D0022C7DD0032C00F09480042C00F0AA80052C81
:2024600000F0C080062C00F0D680072C00F0EC80082C00F00281092C00F018810A2C00F09A
:202480002E810B2C00F044810C2C00F05A810D2C00F070810E2C00F086810F2C00F09C810B
:2024A000102C00F0B581112C00F0CB81122C00F0E181132C00F0F781142C00F00D82152C0A
:2024C00000F02382162C00F03982172C00F04F82182C00F06582212C00F07B82222C00F0E3
:2024E0009182232C00F0A78210BD0120FFF7AAFE0120FFF70DFF0120FFF7B8FE0020FFF7CF
:202500001BFF0120FFF7F0FE0120FFF7C3FE0120FFF7D6FE0020FFF723FF96E70020FFF70E
:2025200091FE0020FFF7F4FE0120FFF79FFE0020FFF702FF0020FFF7D7FE0120FFF7AAFE8F
:202540000020FFF7BDFE0020FFF70AFF7FE70120FFF778FE0020FFF7DBFE0120FFF786FE0E
:202560000120FFF7E9FE0120FFF7BEFE0020FFF791FE0120FFF7A4FE0020FFF7F1FE68E7D8
:202580000120FFF75FFE0020FFF7C2FE0120FFF76DFE0120FFF7D0FE0020FFF7A5FE0120B0
:2025A000FFF778FE0120FFF78BFE0020FFF7D8FE52E70020FFF746FE0120FFF7A9FE0120B1
:2025C000FFF754FE0120FFF7B7FE0020FFF78CFE0120FFF75FFE0020FFF772FE0020FFF737
:2025E000BFFE3CE70120FFF72DFE0120FFF790FE0020FFF73BFE0120FFF79EFE0020FFF7FC
:2026000073FE0120FFF746FE0120FFF759FE0020FFF7A6FE26E70120FFF714FE0120FFF779
:2026200077FE0020FFF722FE0120FFF785FE0120FFF75AFE0120FFF72DFE0120FFF740FE4F
:202640000020FFF78DFE10E70120FFF7FBFD0020FFF75EFE0120FFF709FE0020FFF76CFEC3
:202660000020FFF741FE0120FFF714FE0020FFF727FE0020FFF774FEFAE60120FFF7E2FD43
:202680000120FFF745FE0120FFF7F0FD0120FFF753FE0120FFF728FE0120FFF7FBFD012007
:2026A000FFF70EFE0020FFF75BFEE4E60120FFF7C9FD0120FFF72CFE0120FFF7D7FD0120B5
:2026C000FFF73AFE0020FFF70FFE0120FFF7E2FD0120FFF7F5FD0020FFF742FECEE601207F
:2026E000FFF7B0FD0120FFF713FE0120FFF7BEFD0120FFF721FE0120FFF7F6FD0120FFF7E6
:20270000C9FD0020FFF7DCFD0020FFF729FEB8E60020FFF797FD0120FFF7FAFD0020FFF75B
:20272000A5FD0120FFF708FE0120FFF7DDFD0120FFF7B0FD0120FFF7C3FD0020FFF710FE2A
:20274000A2E60120FFF77EFD0120FFF7E1FD0020FFF78CFD0020FFF7EFFD0120FFF7C4FDF1
:202760000020FFF797FD0120FFF7AAFD0020FFF7F7FD8CE60020FFF765FD0020FFF7C8FD22
:202780000120FFF773FD0120FFF7D6FD0120FFF7ABFD0120FFF77EFD0120FFF791FD0020B2
:2027A000FFF7DEFD76E60120FFF74CFD0120FFF7AFFD0020FFF75AFD0120FFF7BDFD01206A
:2027C000FFF792FD0020FFF765FD0120FFF778FD0020FFF7C5FD60E60120FFF733FD0120EA
:2027E000FFF796FD0020FFF741FD0120FFF7A4FD0120FFF779FD0020FFF74CFD0020FFF742
:202800005FFD0020FFF7ACFD4AE600BF000400400020FFF717FD0020FFF77AFD0020FFF79D
:2028200025FD0020FFF788FD0020FFF75DFD0020FFF730FD0020FFF743FD0120FFF790FD2E
:2028400031E60020FFF7FEFC0020FFF761FD0020FFF70CFD0020FFF76FFD0020FFF744FDE5
:202860000020FFF717FD0020FFF72AFD0020FFF777FD1BE60020FFF7E5FC0120FFF748FD13
:202880000120FFF7F3FC0020FFF756FD0120FFF72BFD0120FFF7FEFC0020FFF711FD002035
:2028A000FFF75EFD05E60120FFF7CCFC0020FFF72FFD0020FFF7DAFC0120FFF73DFD00205E
:2028C000FFF712FD0020FFF7E5FC0120FFF7F8FC0020FFF745FDEFE50020FFF7B3FC0120DF
:2028E000FFF716FD0020FFF7C1FC0020FFF724FD0120FFF7F9FC0020FFF7CCFC0120FFF7C4
:20290000DFFC0020FFF72CFDD9E50020FFF79AFC0020FFF7FDFC0020FFF7A8FC0120FFF753
:202920000BFD0120FFF7E0FC0120FFF7B3FC0120FFF7C6FC0020FFF713FDC3E50020FFF719
:2029400081FC0020FFF7E4FC0020FFF78FFC0020FFF7F2FC0120FFF7C7FC0120FFF79AFCD8
:202960000120FFF7ADFC0020FFF7FAFCADE50020FFF768FC0120FFF7CBFC0120FFF776FC18
:202980000120FFF7D9FC0120FFF7AEFC0120FFF781FC0020FFF794FC0020FFF7E1FC97E5E1
:2029A0000020FFF74FFC0020FFF7B2FC0020FFF75DFC0020FFF7C0FC0020FFF795FC0120E9
:2029C000FFF768FC0020FFF77BFC0020FFF7C8FC81E50020FFF736FC0020FFF799FC0020BD
:2029E000FFF744FC0020FFF7A7FC0020FFF77CFC0020FFF74FFC0120FFF762FC0020FFF76E
:202A0000AFFC6BE50020FFF71DFC0020FFF780FC0020FFF72BFC0120FFF78EFC0020FFF706
:202A200063FC0020FFF736FC0020FFF749FC0020FFF796FC55E50120FFF704FC0020FFF785
:202A400067FC0020FFF712FC0020FFF775FC0020FFF74AFC0020FFF71DFC0020FFF730FC9B
:202A60000020FFF77DFC3FE538B504464FF0804300225A62012802D0022C13D038BD4FF448
:202A80007A72DA624FF4FA725A63114D00212846FFF700F91420FDF7A9FB00212846FFF775
:202AA00011F9E9E74FF080434FF4FA62DA624FF47A725A63064C00212046FFF7EBF8502051
:202AC000FDF794FB00212046FFF7FCF8D6E700BFB00A002008B50220FFF7C6FF0120FFF7FB
:202AE000C3FF0220FFF7C0FF0920FFF7A7FC08BD08B50120FFF7B8FF1020FFF79FFCC82082
:202B0000FDF774FB1120FFF799FC08BD014B1878704700BF70040020014B1870704700BFA1
:202B20007004002010B50020624B5862FFF7F4FF40E0614B5A6861498A5C1B7A9A4212D15A
:202B40005D4B5B685D4AD05CFFF778FCC820FDF74DFB1120FFF772FC0020FFF7DDFF554B82
:202B600000225A622AE0564C5649204601F08AFA2046FDF7EBFA642382B221465248FFF760
:202B800049FA4D4B5A684D498A5C1A72D8E71120FFF754FC484B00225A7213E001241CE0C5
:202BA0004A4B9B6813F4807F7FD10020FFF730FCFF2C7CD1FFF7AAFF0128BAD03E4B5B7ABD
:202BC000012BE4D001F02AFA0120FFF7DFFB3F4B9B6813F0200FE1D1FF243C4B9B6813F0EE
:202BE000080F00D00224394B9B6813F0100F00D00324364B9B6813F4807F00D00A24002080
:202C0000FFF7C4FB0120FFF7D7FB304B9B6813F0200F00D004242D4B9B6813F0080F00D009
:202C200005242A4B9B6813F0100F00D00624274B9B6813F4807F00D00B240020FFF7BCFB90
:202C40000120FFF7CFFB214B9B6813F0200F00D007241E4B9B6813F0080F00D008241B4B0F
:202C60009B6813F0100F00D00924184B9B6813F4807F00D00C240020FFF7B4FB0120FFF7EA
:202C8000C7FB124B9B6813F0200F00D00E240F4B9B6813F0080F00D000240C4B9B6813F016
:202CA000100F3FF47DAF0F247AE70D247DE7204610BD00BF00080040700400200800002077
:202CC000A804002034490008740B0020000C014070B5084C00256572FFF724FF06461420A9
:202CE000FDF784FA6572FFF71DFF8642F1D1304670BD00BF7004002070B51020FFF79EFB15
:202D00000220FFF7B1FEFFF7E3FF06460120FFF7ABFE3546304601F05DF93046FFF78EFBDB
:202D20004FF4FA70FDF762FA00240AE00120FFF79BFEE0B2FFF782FB4FF49670FDF756FA46
:202D40000134A542F2D21120FFF778FB01F066F94FF47A70FDF74AFA304670BD38B500F0C4
:202D600011FE00F0EBFF00F00FFF00F049FF01F025F83948FEF722FD384C4E2238492046B6
:202D800001F01CF92046FDF7E1F9642382B221463448FFF73FF9FFF7AFFF334B83F8E303AA
:202DA000032855D0314B0522DA6001F037F9304D85FB0032C317C3EBA20303EB83035A009B
:202DC000831A294C637001F029F985FB0032C317C3EBA20303EB83035A00831AA37001F0AD
:202DE0001DF985FB0035C317C3EBA50303EB83035A00831AE37001F011F91E4B83FB002315
:202E0000A3EBE07303EB43035A00831A0A3323716278A3789A42C8D0E1788B42C5D08A42E5
:202E2000C3D0124BDA681A615A600C4C124B07CB20606160A2602046FDF788F9642382B2CB
:202E400021460848FFF7E6F80C48FEF7B7FC38BD064B0022DA60E4E7700A0020A804002018
:202E600040490008740B0020080000207004002067666666ABAAAA2A90490008300A002069
:202E80002DE9F047B2B00446154699469DF8E870FFF71EFF0220FFF7E7FD4FF49670FDF7C6
:202EA000A5F92D1B684E2A466849304601F0EAF83046FDF74BF9DFF8A8A1642382B231460C
:202EC0005046FFF7A7F80120FFF7CEFD604CA4FB05346409E0B2FFF7B1FA4FF4FA70FDF720
:202EE00085F91120FFF7AAFA6420FDF77FF90120FFF7BAFD4FF0640808FB1450554CA4FB79
:202F00000030C0F3C700FFF799FA4FF4FA70FDF76DF91120FFF792FA4046FDF767F90120C9
:202F2000FFF7A2FDA4FB0530C00800EB80004300E81AC0B2FFF782FA4FF4FA70FDF756F9DC
:202F40001120FFF77BFA4FF4FA70FDF74FF9FFF7BFFE3B464A464049304601F093F8304637
:202F6000FDF7F4F8434682B231465046FFF752F80220FFF779FD4FF49670FDF737F902204A
:202F8000FFF772FD4FF49670FDF730F90120FFF76BFDA4FB0923DB0803EB83035800A9EBD9
:202FA0000000C0B2FFF74AFA4FF4FA70FDF71EF91120FFF743FA4046FDF718F90120FFF7A7
:202FC00053FDA4FB0734E4082046FFF737FA4FF4FA70FDF70BF91120FFF730FA4046FDF7DE
:202FE00005F90120FFF740FD04EB84046000381AC0B2FFF723FA4FF4FA70FDF7F7F813200E
:20300000FFF71CFA2A461549684601F03BF800F03BFA0120FFF728FD1220FFF70FFA6846C4
:2030200000F054FB0120FFF71FFD1120FFF706FAFFF74EFE0120FFF717FD4FF47A70FDF769
:20304000D5F832B0BDE8F087A80400209C4900081F85EB51CDCCCCCCAC490008BC490008D1
:20306000740B0020014B5872704700BF7004002008B50220FFF7F8FC1220FFF7DFF94FF485
:203080009670FDF7B3F80220FFF7EEFC1320FFF7D5F94FF49670FDF7A9F80220FFF7E4FCBC
:2030A0001120FFF7CBF94FF4FA70FDF79FF808BD08B50220FFF7D8FC1220FFF7BFF94FF45C
:2030C0009670FDF793F80220FFF7CEFC1320FFF7B5F94FF49670FDF789F80220FFF7C4FC1C
:2030E0001220FFF7ABF94FF49670FDF77FF80220FFF7BAFC1320FFF7A1F94FF49670FDF782
:2031000075F80220FFF7B0FC1220FFF797F94FF49670FDF76BF80220FFF7A6FC1120FFF745
:203120008DF94FF47A70FDF761F81020FFF786F908BD000030B583B0934B1A69DB689A428D
:2031400035D0924B93F8E333032B19D08E4B1B6913F0030F34D100F061FF8D4B83FB002395
:20316000A3EBE07303EB43035A00831A864A12690A33DBB285498B54043A8A5C9342EAD0CE
:20318000824B93F8E333032B3DD00220FFF76CFC7D4C23697D4AD05CFFF750F9E368636071
:2031A0007C4B00225A627C48FEF7E4FA9AE07B4900220A704A708A707948FEF748F8C0E7A8
:2031C00000F02CFF774A82FB0032C317C3EBA20303EB83035A00831A6B4A1269DBB26B495B
:2031E0008B54501E095C8B42EAD0911E6748415C8B42E5D0D11E415C8B42E1D0043A825CF3
:203200009342DDD0BCE7604B1A69DB689A42BCD10120FFF729FC1120FFF710F90120FFF72C
:2032200011F8FFF755FD584C20750220FFF71CFC207DFFF703F94FF4FA70FCF7D7FF11209E
:20324000FFF7FCF80120FFF777F8FFF741FD60750220FFF709FC607DFFF7F0F84FF4FA7070
:20326000FCF7C4FF1120FFF7E9F80120FFF728F8FFF72EFDA0750220FFF7F6FBA07DFFF707
:20328000DDF84FF49670FCF7B1FF237D627D02EB82025100642202FB0313A27D1344236199
:2032A00073E7394D0024EC75FFF722FC6B6801336B60384B5C622046FFF72EFC09E0FFF71D
:2032C000D7FE314C6368314AD05CFFF7B7F8E36863602D4B5A681B699A422ED82A4BDB7D0A
:2032E000012B2AD8FFF7F4FC274B5B68274AD35C9842D6D0244AD37D0133DBB2D375012B72
:20330000DDD92548FEF743FAFFF7D2FE234D002229462348FDF7FCFFA9781B4C21766A7836
:2033200062762B78A3760191009222696168E068FFF7A6FDE3682361CBE71748FEF727FAAA
:20334000114BDB7D3BB1104B1A6940F2E2339A4216D803B030BD0C4A136901331361D2688A
:20336000114C9A1A1149204600F08CFE2046FCF7EDFE642382B221460D48FEF74BFEE2E740
:20338000FFF7A8FBE5E700BF7004002008000020ABAAAA2A00080040300A0020A4040020BA
:2033A0001C0A002067666666A8040020CC490008740B002003684268816809684968511A1B
:2033C0000B44C068834202D21B1AD0187047181A704710B4034601684468826812685268E0
:2033E000A21A0A44C068824209D0421CDA60007821448A4201D3121BDA6010BC70470020DF
:20340000FBE7026043608160C260704710B51848FFF7D0FF174B186016E0164B1879164AFF
:20342000002111541971154C1549204600F02AFE2046FCF78BFE642382B221461148FEF7ED
:20344000E9FD6420FCF7D2FE0A4A1368591E11606BB10748FFF7BDFF0A28DED00D28F3D093
:20346000044A1379591C1171034AD054ECE710BD0C0800208C0400201C0800200C05002011
:20348000D8490008740B002070B5804C4FF4807322467F497F48FFF7B4FF7F4E4FF480729B
:2034A00021463046FEF726FE7C4C7D4D0FCD20606160A260E3602A88AB782282A37420462C
:2034C000FCF744FE774D642382B221462846FEF7A1FD6420FCF78AFE734B03CB2060616004
:2034E0001B7823722046FCF731FE4FF47A7382B221462846FEF78EFD2046FCF727FE4FF4A2
:203500007A7382B221463046FEF784FD4FF4FA70FCF76CFEFFF77AFF644B186820609A88ED
:203520009B79A280A3712046FCF710FE4FF47A7382B221462846FEF76DFD2046FCF706FEE5
:203540004FF47A7382B221463046FEF763FD6420FCF74CFEFFF75AFF554B03CB2060616016
:203560001B7823722046FCF7F1FD4FF47A7382B221462846FEF74EFD2046FCF7E7FD4FF4E3
:203580007A7382B221463046FEF744FD4FF4FA70FCF72CFEFFF73AFF464B07CB206061605A
:2035A000A2601B88A3812046FCF7D0FD4FF47A7382B221462846FEF72DFD2046FCF7C6FDA8
:2035C0004FF47A7382B221463046FEF723FD6420FCF70CFEFFF71AFF4FF4FA60FCF706FE71
:2035E000354B364A3649204600F04CFD2046FCF7ADFD4FF47A7382B221462846FEF70AFD75
:203600002046FCF7A3FD4FF47A7382B221463046FEF700FD42F21070FCF7E8FDFFF7F6FE08
:18362000284B03CB206061601A889B782281A3722046FCF78BFD4FF47F
:00000001FF
