:020000040800F2
:2000000000500020A12D0008212A0008232A0008252A0008272A0008292A000800000000E7
:200020000000000000000000000000002B2A00082D2A0008000000002F2A0008312A000840
:20004000E92D0008E92D0008E92D0008E92D0008E92D0008E92D00083D2A0008552A0008F6
:200060006D2A0008852A0008E92D0008E92D0008E92D00089D2A0008E92D0008E92D0008C5
:20008000E92D0008E92D0008E92D0008E92D0008E92D0008E92D0008E92D0008E92D000870
:2000A000E92D0008E92D0008E92D0008E92D0008E92D0008AD2A0008E92D0008E92D00088F
:2000C000E92D0008E92D0008E92D0008E92D0008E92D0008E92D0008E92D0008E92D000830
:2000E000E92D0008E92D0008E92D00080000000000000000000000000000000000000000A6
:2001000000000000000000005FF808F110B5054C237833B9044B13B10448AFF3008001234D
:20012000237010BD70000020000000009436000808B5034B1BB103490348AFF3008008BDA8
:20014000000000007400002094360008034613F8012B002AFBD1181A0138704710B5044692
:200160000E4B18784FF47A73B3FBF0F30C4A1068B0FBF3F000F05CFB68B90F2C01D90120DB
:200180000AE0002221464FF0FF3000F011FB034B5C60002000E0012010BD00BF00000020AB
:2001A0000800002008B5074A136843F010031360032000F0EBFA0020FFF7D0FF02F0E0FB2B
:2001C000002008BD00200240034A1168034B1B780B441360704700BF1C010020000000209C
:2001E000014B1868704700BF1C01002038B50446FFF7F6FF0546B4F1FF3F02D0044B1B787C
:200200001C44FFF7EDFF401BA042FAD338BD00BF00000020F0B583B005460C460023019392
:20022000FFF7DEFF2B689A6812F4807F23D106465A6812F4807F03D1DB6A13F4700F24D0B7
:200240004B4B1F68022001F0F5F8B7FBF0F02B681969484A11422FD1D96802F15C421142D0
:200260002AD11969444A114239D1DA68434B1A4237D029273AE0AB6A43F02003AB620023DE
:2002800085F82430012003B0F0BD2B681B6813F0020F48D1B4F1FF3FF7D024B1FFF7A0FFB5
:2002A000801BA042F1D9AB6A43F00403AB62002385F824300320E6E719692F4A114204D194
:2002C000D96802F16E4211420DD019692C4A0A405AB9DA682A4B13405BB1FC2706E0292746
:2002E00004E0142702E0542700E0FC2707FB00F704E05427FAE7019B01330193019BBB4249
:2003000011D2B4F1FF3FF6D024B1FFF769FF801BA042F0D9AB6A43F00403AB62002385F8DC
:2003200024300320AFE72B686FF012021A60AB6A43F40073AB622B689B6803F46023B3F5AC
:20034000602F01D000209EE7EB686BB9AB6A23F48073AB62AB6A13F4805F07D1AB6A43F0DA
:200360000103AB6200208EE700208CE700208AE70800002024499224922449129224490058
:20038000499224000368D86C7047000030B482B00023019390F82430012B00F08B800246E0
:2003A000012380F824304B68062B29D80568686B03EB8303053B1F249C4020EA04000C68D3
:2003C00004FA03F303436B630B68092B38D91568E86803EB43031E3B07249C4020EA0400EE
:2003E0008C6804FA03F30343EB600B68103B012B34D90020002382F8243002B030BC704727
:200400000C2B0ED80568286B03EB8303233B1F249C4020EA04000C6804FA03F303432B6384
:20042000D2E70568E86A03EB8303413B1F249C4020EA04000C6804FA03F30343EB62C3E782
:200440001568286903EB430307249C4020EA04008C6804FA03F303432B61C6E71368164805
:20046000834205D0936A43F0200393620120C1E7986810F4000F1BD1986840F400009860A6
:200480000B68102B01D00020B4E70C4B1B680C49A1FB03139B0C03EB83035900019102E059
:2004A000019B013B0193019B002BF9D10020A1E700209FE70220A0E70024014008000020BB
:2004C00083DE1B4330B583B00023019303689A6812F0010F2ED19A6842F001029A60174B7D
:2004E0001B68174AA2FB03239B0C019302E0019B013B0193019B002BF9D10446FFF770FE8D
:20050000054623689B6813F0010F11D1FFF768FE401B0228F5D9A36A43F01003A362E36AB9
:2005200043F00103E362002384F82430012002E0002000E0002003B030BD00BF08000020A2
:2005400083DE1B4390F82430012B6AD010B50446012380F82430FFF7B5FF024600285BD155
:20056000A36A23F4407323F0010343F48073A36223682D498B4227D0A16A21F48011A162E5
:20058000596811F4806F05D0A16A21F4405141F48051A162A16A11F4805F2BD0E16A21F0D1
:2005A0000601E162002184F824106FF0020119602368996801F46021B1F5602F1DD0996820
:2005C00041F4801199602AE0A1F58061496811F4702FD1D0A16A41F48011A1621349496804
:2005E00011F4806FD6D0A16A21F4405141F48051A162CFE70021E162D4E70B498B4204D0DD
:20060000996841F4A001996009E0A1F58061496811F4702FD3D1F3E7002384F8243010468E
:2006200010BD022210467047002801400024014038B503689A6812F0010F01D1002038BD9B
:2006400004469A6822F001029A60FFF7C9FD054623689B6813F0010F0ED0FFF7C1FD401BAA
:200660000228F5D9A36A43F01003A362E36A43F00103E3620120E2E70020E0E700287FD019
:2006800038B50446836A002B33D02046FFF7D0FFA36A13F010036DD100286BD1A26A22F4F6
:2006A000885222F0020242F00202A2626268E1690A43E56842EA4502A168B1F5807F21D050
:2006C00001291CD0616901291FD02568696821F469410B436B6021688D682A4B2B40134337
:2006E0008B60A368B3F5807F20D0012B1ED000211FE0C36280F8243002F004F8C5E74FF465
:200700008073DFE74FF48073DCE735B9A169013943EA413343F40063D7E7A16A41F020019F
:20072000A162E16A41F00101E162CEE72369013B19052568EB6A23F470030B43EB622368C8
:200740009968114B0B409A420BD0A36A23F0120343F01003A362E36A43F00103E3620120D0
:200760000DE00023E362A36A23F0030343F00103A36204E0A36A43F01003A362012038BD70
:2007800001207047FDF7E1FFFE0E1FFF074AD36823F4E0631B041B0C000200F4E0601843C6
:2007A00040F0BF6040F40030D060704700ED00E030B4174BDB68C3F30223C3F10704042C7F
:2007C00028BF04241D1D062D18D9033B4FF0FF3505FA04F421EA0401994005FA03F322EA1A
:2007E0000303194300280BDB0901C9B200F1604000F5614080F8001330BC70470023E5E7C0
:2008000000F00F000901C9B2024B1954F4E700BF00ED00E014ED00E000F01F0240090123D4
:200820009340024A42F82030704700BF00E100E00138B0F1807F0AD2064B5860064AF021B9
:2008400082F823100020986007221A6070470120704700BF10E000E000ED00E0042805D044
:20086000054A136823F0040313607047024A136843F004031360704710E000E0704708B5FB
:20088000FFF7FCFF08BD70B4066CC56B0124B4406C60046863604368102B05D003689960A9
:2008A0000368DA6070BC704703689A600368D960F8E70000002830D010B403460168184AC8
:2008C0000A441848A0FB0202120992001A64164ADA63022283F82120086820F47F5020F0C0
:2008E00030005A689C682243DC6822431C6922435C6922439C692243DC69224302430A601D
:2009000000209862D862186358639863012283F8212083F8200010BC70470120704700BFBE
:20092000F8FFFDBFCDCCCCCC0000024038B590F82040012C32D0012480F8204090F82140A7
:20094000012C04D0002380F82030022038BD0446022084F821000020A0632568286820F03B
:20096000010028602046FFF78EFFE36A5BB12268136843F00E0313602268136843F00103B4
:2009800013600020E2E72268136823F0040313602268136843F00A031360EDE70220D5E7FF
:2009A00038B5C36B1A6804682568016C04238B40134235D015F0040F32D0236813F0200F11
:2009C00003D1236823F0040323600368434A934214D01432934218D01432934217D014321F
:2009E000934217D01432934217D01432934202D04FF0806203E04FF4800200E00422384BFA
:200A00005A60C36A03B1984738BD4022F7E74FF48062F4E74FF48042F1E74FF48022EEE790
:200A200002238B4013423CD015F0020F39D0236813F0200F06D1236823F00A032360012360
:200A400080F821300368254A934214D0143293421CD0143293421BD0143293421BD01432E1
:200A600093421BD01432934202D04FF0007203E04FF4001200E00222194B5A60002380F823
:200A80002030836A002BBFD09847BDE72022F3E74FF40072F0E74FF40052EDE74FF4003256
:200AA000EAE7082303FA01F11142ADD015F0080FAAD0236823F00E032360026CC16B0123F5
:200AC00003FA02F24A60836380F82130002380F82030036B002B97D0984795E7080002403C
:200AE00000000240F0B482B000263546A1E0002C59D0012C00D1CE68FF2B68D88446FF2BD5
:200B000068D8AC00DCF800200F27A74022EA070206FA04F42243CCF800204A6812F0805FEF
:200B200000F086805E4A946944F001049461926902F001020192019AAC08A71C594A52F86A
:200B4000272005F00307BF004FF00F0C0CFA07FC22EA0C0C544A904242D002F580629042DC
:200B60007FD002F5806290427DD002F58062904234D0042235E04D4FBC4214D00BD94C4F47
:200B8000BC4210D007F58037BC420CD0A7F58017BC42B1D107E0A7F58017BC4203D007F550
:200BA0008037BC42A8D18C687CB1012C08D042610826A1E7CE6808369EE7CE680C369BE795
:200BC0000261082698E7002696E7042694E700F1040C94E7A5F10804A40093E7032200E07C
:200BE0000022BA4042EA0C0202342E4F47F824204A6812F4803F38D02E4C22681A43226007
:200C00004A6812F4003F36D02A4C62681A4362604A6812F4801F34D0264CA2681A43A26042
:200C20004A6812F4001F32D0224CE2681343E36001350F2D31D80122AA400B6813409A4260
:200C4000F6D14C68122CB8D095D8022CB2D07FF64EAF032CB7D0112C7FF44EAFCE680436F1
:200C60004AE70122BDE70222BBE7124C226822EA03022260C4E70F4C626822EA0302626098
:200C8000C6E70C4CA26822EA0302A260C8E7094CE26822EA0303E360CAE702B0F0BC7047C9
:200CA00000100240000001400008014000002110000031100004014012B9090401617047B0
:200CC000016170477047000008B5054B5B69034200D108BD024B5861FFF7F4FFF9E700BF0A
:200CE0000004014082B0084B1B68084AA2FB03235B0A00FB03F0019000BF019B5A1E019248
:200D0000002BF9D102B0704708000020D34D621070B582B00446036813F0010F2CD0AB4BAA
:200D20005B6803F00C03042B1DD0A84B5B6803F00C03082B12D06368B3F5803F41D0002B97
:200D400055D103F1804303F504331A6822F480321A601A6822F480221A6037E09B4B5B684F
:200D600013F4803FE7D0994B1B6813F4003F03D06368002B00F0AE81236813F0020F76D07C
:200D8000924B5B6813F00C0F5FD0904B5B6803F00C03082B54D02369002B00F08A808C4BE7
:200DA00001221A60FFF71CFA0546884B1B6813F0020F75D1FFF714FA401B0228F5D9032015
:200DC0008BE1824A136843F480331360636843B3FFF706FA05467D4B1B6813F4003FCBD1D4
:200DE000FFF7FEF9401B6428F5D9032075E1B3F5A02F09D0754B1A6822F480321A601A6882
:200E000022F480221A60E1E703F18043A3F53C331A6842F480221A601A6842F480321A6062
:200E2000D4E7FFF7DDF90546684B1B6813F4003FA2D0FFF7D5F9401B6428F5D903204CE129
:200E4000624B5B6813F4803FA5D1604B1B6813F0020F04D02369012B01D001203DE15B4A63
:200E6000136823F0F803616943EAC1031360236813F0080F32D0A369002B5BD0554B0122EF
:200E80001A60FFF7ADF90546504B5B6A13F0020F21D1FFF7A5F9401B0228F5D903201CE184
:200EA0004A4A136823F0F803616943EAC1031360DDE7474B00221A60FFF792F90546434B9B
:200EC0001B6813F0020FD2D0FFF78AF9401B0228F5D9032001E10120FFF704FF236813F060
:200EE000040F00F09780394BDB6913F0805F33D1364BDA6942F08052DA61DB6903F080531D
:200F00000193019B0125344B1B6813F4807F25D0E368012B36D0002B4CD103F1804303F50A
:200F200004331A6A22F001021A621A6A22F004021A622CE0274B00221A60FFF751F90546A8
:200F4000224B5B6A13F0020FC8D0FFF749F9401B0228F5D90320C0E00025D4E71E4A1368A2
:200F600043F480731360FFF73BF906461A4B1B6813F4807FCCD1FFF733F9801B6428F5D9BC
:200F80000320AAE0114A136A43F001031362E36873B3FFF725F906460C4B1B6A13F0020F5F
:200FA00037D1FFF71DF9801B41F288339842F3D9032092E0052B11D0044B1A6A22F0010260
:200FC0001A621A6A22F004021A62E0E700100240000042428004424200700040414B1A6A18
:200FE00042F004021A621A6A42F001021A62CEE7FFF7F6F806463B4B1B6A13F0020F08D02C
:20100000FFF7EEF8801B41F288339842F3D9032063E0E5B9E369002B5ED0324A526802F0F4
:201020000C02082A5BD0022B17D02F4B00221A60FFF7D6F804462B4B1B6813F0007F47D07B
:20104000FFF7CEF8001B0228F5D9032045E0254AD36923F08053D361DCE7234B00221A60E7
:20106000FFF7BEF805461F4B1B6813F0007F06D0FFF7B6F8401B0228F5D903202DE0236A80
:20108000B3F5803F1AD017494B6823F47413226A606A024313434B60134B01221A60FFF7C1
:2010A0009FF804460F4B1B6813F0007F0ED1FFF797F8001B0228F5D903200EE0094A53685A
:2010C00023F40033A1680B435360DCE7002004E0002002E0012000E0002002B070BD0120D2
:2010E000FBE700BF001002406000424210B487B0164C94E80F000DF1180C0CE90F00238A5E
:20110000ADF80430124B5B6803F00C02082A1AD1C3F38342624412F8102C13F4803F05D1B5
:201120000C4800FB02F007B010BC7047084B5B68C3F34043634413F8143C074800FB02F0A7
:20114000B0FBF3F0EFE70448EDE700BFAC3600080010024000093D0000127A00594B1B6817
:2011600003F007038B420CD2564A136823F007030B431360136803F007038B4201D0012097
:20118000704770B5036813F0020F06D04E4A536823F0F0038468234353600C4605460368B8
:2011A00013F0010F52D04368012B23D0022B28D0454A126812F0020F00F0828042494A68C0
:2011C00022F0030213434B60FFF70AF806466B68012B1DD0022B2AD03B4B5B6813F00C0F39
:2011E00034D0FEF7FDFF801B41F288339842F3D9032064E0344A126812F4003FDED1012057
:201200005DE0314A126812F0007FD7D1012056E02D4B5B6803F00C03042B17D0FEF7E0FFF5
:20122000801B41F288339842F2D9032047E0264B5B6803F00C03082B08D0FEF7D1FF801B95
:2012400041F288339842F2D9032038E01D4B1B6803F00703A3420CD91A4A136823F0070312
:2012600023431360136803F00703A34201D0012025E02B6813F0040F06D0134A536823F493
:20128000E063E9680B4353602B6813F0080F07D00D4A536823F46053296943EAC103536023
:2012A000FFF724FF084B5B68C3F30313074AD35CD840074B18600020FEF750FF002070BD20
:2012C0000120FCE70020024000100240D436000808000020014B1868704700BF08000020B2
:2012E00008B5FFF7F7FF044B5B68C3F30223034AD35CD84008BD00BF00100240E4360008CC
:2013000008B5FFF7E7FF044B5B68C3F3C223034AD35CD84008BD00BF00100240E4360008FB
:2013200070B582B00446036813F0010F34D03E4BDB6913F0805F48D13B4BDA6942F08052F5
:20134000DA61DB6903F080530193019B0125374B1B6813F4807F3AD0334B1B6A13F4407320
:2013600011D0626802F440729A420CD02E4A136A23F440702E4901260E6000260E60106294
:2013800013F0010F37D1284A136A23F4407361680B431362002D3FD1236813F0020F06D03B
:2013A000214A536823F44043A1680B435360236813F0100F35D01C4A536823F48003E168AD
:2013C0000B435360002002B070BD0025BFE7174A136843F480731360FEF702FF0646134B29
:2013E0001B6813F4807FB7D1FEF7FAFE801B6428F5D90320E7E7FEF7F3FE06460A4B1B6AFD
:2014000013F0020FBFD1FEF7EBFE801B41F288339842F3D90320D6E7D36923F08053D361E5
:20142000BAE70020CFE700BF00100240007000404004424230B587B00546384C94E80F0036
:201440000DF1180C0CE90F00238AADF80430022D50D0102D03D0012D2BD0002054E0304B89
:201460005A681B6813F0807F50D0C2F3834306A90B4413F8100C12F4803F16D0284B5B6884
:20148000C3F340430B4413F8142C264BB3FBF2F300FB03F0224B5B6813F4800F34D140007C
:2014A000214BA3FB003040082EE0204B03FB00F0F0E71B4B1B6A40F202321A40B2F5817F1A
:2014C00026D003F44073B3F5007F04D0B3F5407F09D0002018E0124A526A12F0020FF5D029
:2014E00049F6404010E00E4B1B6813F4003F12D1002009E0FFF704FF094B5B68C3F38133B5
:2015000001335B00B0FBF3F007B030BD0020FBE74FF40040F8E74FF22440F5E7C036000827
:201520000010024000127A00ABAAAAAA00093D0010B4036A046A24F001040462846924F0BF
:20154000F00444EA021223F00A030B438261036210BC704710B4036A23F010030362846973
:20156000036A24F4704444EA023223F0A00343EA01138261036210BC7047836823F070039D
:2015800041F0070119438160704710B4846824F47F4442EA03230B432343836010BC704727
:2015A000022380F83D300268136843F001031360012380F83D3000207047022380F83D30A8
:2015C0000368196A41F21112114208D1196A40F24442114203D11A6822F001021A60012304
:2015E00080F83D30002070470268D36843F00103D3600268136843F00103136000207047BA
:2016000090F83C30012B7DD010B50446012380F83C30022380F83D300268936823F47F43FE
:2016200023F0770393600B68402B57D010D9702B3ED01FD8502B47D0602B32D1CA68496899
:201640000068FFF787FF60212068FFF796FF28E0102B4DD008D9202B4FD0302B21D13021C9
:201660000068FFF78AFF1CE0DBB900210068FFF784FF16E0B3F5805F0ED0B3F5005F10D1AE
:20168000CB684A6889680068FFF77FFF2268936843F48043936004E00268936823F00703C0
:2016A0009360012384F83D30002084F83C0010BDCB684A6889680068FFF767FF2268936866
:2016C00043F077039360ECE7CA6849680068FFF72FFF50212068FFF750FFE2E7CA6849683E
:2016E0000068FFF725FF40212068FFF746FFD8E710210068FFF741FFD3E720210068FFF75D
:201700003CFFCEE7022070477047704770477047704710B5044603681A6912F0020F11D07C
:20172000DA6812F0020F0DD06FF002021A610123037703689B6913F0030F70D0FFF7E6FF5C
:201740000023237723681A6912F0040F12D0DA6812F0040F0ED06FF004021A6102232377F3
:2017600023689B6913F4407F5FD02046FFF7CEFF0023237723681A6912F0080F12D0DA68B4
:2017800012F0080F0ED06FF008021A61042323772368DB6913F0030F4ED02046FFF7B6FF9A
:2017A0000023237723681A6912F0100F12D0DA6812F0100F0ED06FF010021A610823237769
:2017C0002368DB6913F4407F3DD02046FFF79EFF0023237723681A6912F0010F03D0DA687C
:2017E00012F0010F36D123681A6912F0800F03D0DA6812F0800F34D123681A6912F0400F27
:2018000003D0DA6812F0400F32D123681A6912F0200F03D0DA6812F0200F30D110BDFFF716
:2018200074FF2046FFF773FF8AE72046FFF76DFF2046FFF76CFF9BE72046FFF766FF2046BE
:20184000FFF765FFACE72046FFF75FFF2046FFF75EFFBDE76FF001021A612046FFF754FFF8
:20186000C1E76FF080021A61204600F08CF8C3E76FF040021A612046FFF74AFFC5E76FF014
:2018800020021A61204600F07DF8C7E703681B4A90420AD0B0F1804F07D0A2F59432904240
:2018A00003D002F58062904203D123F070034A681343124A90420AD0B0F1804F07D0A2F562
:2018C0009432904203D002F58062904203D123F44073CA68134323F080034A6913430360CA
:2018E0008B68C3620B688362044B984202D00123436170470B690363F9E700BF002C014018
:20190000A8B110B5044690F83D305BB1022384F83D30211D2068FFF7B9FF012384F83D30CF
:20192000002010BD80F83C3001F064F9EEE70120704790F83C30012B22D030B4012280F84A
:201940003C20022380F83D300468636823F070036360046863680D682B4363600468A3684D
:2019600023F08003A3600468A36849680B43A36080F83D20002380F83C30184630BC704778
:2019800002207047704770470268D36823F0C003D360202380F8393070470268D36823F4BB
:2019A0009073D3600268536923F001035361202380F83A30704700002DE9F843054602681E
:2019C000136923F44053C1680B431361836802691343426913430168CA6822F4B05222F084
:2019E0000C021343CB600268536923F4407381690B4353610268594B9A4257D0FFF770FC09
:201A000000EB800000EB80006C68A400B0FBF4F4534FA7FB043464092601FFF761FC00EB97
:201A2000800000EB80006C68A400B0FBF4F9FFF757FC00EB800000EB80006C68A400B0FB69
:201A4000F4F4A7FB043464094FF0640808FB149424013234A7FB0434640904F0F0043444CF
:201A6000FFF73EFC00EB800000EB80006E68B600B0FBF6F6FFF734FC00EB800000EB800041
:201A80006B689B00B0FBF3F0A7FB0030400908FB10684FEA081808F13208A7FB0837C7F38D
:201AA00043172B6827449F60BDE8F883FFF728FC00EB800000EB80006C68A400B0FBF4F4B4
:201AC000274FA7FB043464092601FFF719FC00EB800000EB80006C68A400B0FBF4F9FFF73B
:201AE0000FFC00EB800000EB80006C68A400B0FBF4F4A7FB043464094FF0640808FB14945D
:201B000024013234A7FB0434640904F0F0043444FFF7F6FB00EB800000EB80006E68B6004A
:201B2000B0FBF6F6FFF7ECFB00EB800000EB80006B689B00B0FBF3F0A7FB0030400908FB41
:201B400010684FEA081808F13208A7FB0837C7F343172B6827449F60A6E700BF00380140CA
:201B60001F85EB512DE9F04105460F4616469846069C2B681B6837EA03030CBF0123002373
:201B8000B3421DD1B4F1FF3FF3D02CB1FEF728FBA0EB0800A042ECD92A68D36823F4D07366
:201BA000D3602A68536923F001035361202385F8393085F83A30002385F83830032000E0BE
:201BC0000020BDE8F08158B310B5044690F839300BB3242384F839302268D36823F40053AB
:201BE000D3602046FFF7E8FE2268136923F4904313612268536923F02A0353612268D3680D
:201C000043F40053D3600020E063202384F8393084F83A3010BD80F8383001F057F8D8E7EA
:201C200001207047002830D010B5044690F8393033B3242384F839302268D36823F4005363
:201C4000D3602046FFF7B8FE2268136923F4904313612268536923F0220353612268536963
:201C600043F0080353612268D36843F40053D3600020E063202384F8393084F83A3010BDB2
:201C800080F8383001F022F8D3E7012070472DE9F04182B01E4690F83930DBB2202B55D1FB
:201CA00004460D469046002955D0002A55D090F83830012B53D0012380F838300023C36388
:201CC000212380F83930FEF78BFA0746A4F82480A4F8268010E000963B4600228021204666
:201CE000FFF740FF00283CD12B882268C3F3080353602369C3B90235E38C9BB2B3B1E38CFB
:201D0000013B9BB2E384A368B3F5805FE3D000963B46002280212046FFF724FF18BB2A78C0
:201D200023685A600135E7E70135E5E700963B46002240212046FFF715FF0346A8B9202262
:201D400084F83920002284F8382000E00223184602B0BDE8F0810123F9E70123F7E7022362
:201D6000F5E70323F3E70323F1E70323EFE7000030B583B090F83A40E4B2202C3DD100295A
:201D80003ED0002A3ED090F83830012B3CD013460A460446012180F83810826283850025EF
:201DA000C563222180F83A10416B18488862616B1748C862616B17480863616B4D63216810
:201DC0000431606BFEF7B2FD019523681A6801925A680192019A84F83850DA6842F48072CB
:201DE000DA602268536943F0010353612268536943F040035361284600E0022003B030BDF8
:201E00000120FBE70120F9E70220F7E71B1E00085B1E0008671E0008704708B5436A0268E4
:201E2000126812F0200F13D10022DA851968CA6822F48072CA6019684A6922F001024A61B9
:201E400019684A6922F040024A61202283F83A201846FFF7E1FF08BD704708B5406AFFF72B
:201E6000FBFF08BD704710B5446A23685A6994F83930DBB2212B10D023685A6902F04002FB
:201E800094F83A30DBB2222B11D0E36B43F01003E3632046FFF7E6FF10BD02F08002002A0B
:201EA000EAD00023E3842046FFF76EFDE4E7002AEBD00023E3852046FFF76FFDE5E7000048
:201EC00002296DD9F0B59BB00F46044600260FE054F82620334901A800F0B8FF01A8FEF7F1
:201EE00035F9642382B201A92F48FFF7D0FE01363D46B742ECDC2D4B93E8030001908DF88D
:201F0000081001A8FEF722F9642382B201A92648FFF7BDFE002611E00133AA1B013A9A4245
:201F20000BDD54F823105A1C54F822008142F3D944F8230044F82210EEE701366F1EB74268
:201F400001DD0023E9E700260FE054F82620154901A800F07BFF01A8FEF7F8F8642382B24F
:201F600001A91148FFF793FE0136B542EDDC104B019301A8FEF7EAF8642382B201A90A48BA
:201F8000FFF785FE0123002003E054F82320104401339F42F9DC023DB0FBF5F01BB0F0BD8D
:201FA00000207047EC360008F8070020F4360008203B200010B5084C4B220849204600F027
:201FC00039FF2046FEF7C2F8642382B221460448FFF75DFE10BD00BF30010020FC360008DE
:201FE000F8070020014B1870704700BF8C000020014B1878704700BF8C000020014B43F847
:020000040800F2
:20200000201070472001002010B584B0019001230293084C01A92046FEF7B8F92046FEF7F0
:2020200091FA64212046FEF7F5F82046FEF7AAF904B010BDC40600202DE9F0478EB0054609
:202040008846854C02468549204600F0FFFE2046FEF77CF8642382B221468148FFF717FEB3
:20206000002304E07F4A002142F823100133032BF8DD01224FF480417B48FEF71DFE0023AE
:2020800001E000BF0133092BFBDD00224FF480417548FEF711FE0024744B5C62744F384697
:2020A000FFF77EFA4FF4FA70FEF7A0F83846FFF784FA6C4802684368D31A0B93C168806821
:2020C000091A0C91644F019100906A49384600F0BDFE3846FEF73AF8642382B23946604808
:2020E000FFF7D5FD234604E05E4A002142F823100133032BF8DD01224FF400415A48FEF720
:20210000DBFD002301E000BF0133092BFBDD00224FF400415448FEF7CFFD544B00225A6264
:20212000534C2046FFF73CFA4FF4FA70FEF75EF82046FFF742FA4B4F3A687B68A2EB030A25
:20214000BA68FB68A2EB03090520FFF75DFF84004948A0FB0434E4081020FFF755FFC0F5E7
:20216000676604363A68BB683B4F03960294CDF80490009353464149384600F067FE38467A
:20218000FDF7E4FF642382B239463548FFF77FFD3B4B03EB85020B9951606A1D03EB8202F6
:2021A0000C99516005F10A0203EB8202C2F804A005F10F0203EB8202C2F8049005F1140224
:2021C00003EB8202546005F1190203EB82035E60042D3FD00EB0BDE8F0871F4D2246294937
:2021E000284600F033FE2846FDF7B0FF1C4E642382B229463046FFF74AFDA7003A1993006B
:20220000052121481844FFF75BFE02460EAB1F4447F8280C1D49284600F018FE2846FDF771
:2022200095FF642382B229463046FFF730FD0134E4B2052CD1D9099B0393089B0293079B8D
:202240000193069B0093059B049A1149404600F0FDFDBFE70024ECE7300100204837000839
:20226000F8070020200100200010014000080040F406002054370008CDCCCCCC68370008E0
:202280008C0000208C3700089000002098370008A437000803684268816809684968511AD2
:2022A0000B44C068834202D21B1AD0187047181A704710B403460168446882681268526811
:2022C000A21A0A44C068824209D0421CDA60007821448A4201D3121BDA6010BC7047002010
:2022E000FBE7026043608160C260704710B51848FFF7D0FF174B186016E0164B1879164A31
:20230000002111541971154C1549204600F09EFD2046FDF71BFF642382B221461148FFF718
:20232000B6FC6420FDF762FF0A4A1368591E11606BB10748FFF7BDFF0A28DED00D28F3D066
:20234000044A1379591C1171034AD054ECE710BDB404002008010020C4040020B4010020DD
:20236000E8370008F807002070B5804C4FF4807322467F497F48FFF7B4FF7F4E4FF480724E
:2023800021463046FFF7F4FC7C4C7D4D0FCD20606160A260E3602A88AB782282A374204690
:2023A000FDF7D4FE774D642382B221462846FFF76EFC6420FDF71AFF734B03CB2060616045
:2023C0001B7823722046FDF7C1FE4FF47A7382B221462846FFF75BFC2046FDF7B7FE4FF4E4
:2023E0007A7382B221463046FFF751FC4FF4FA70FDF7FCFEFFF77AFF644B186820609A88C1
:202400009B79A280A3712046FDF7A0FE4FF47A7382B221462846FFF73AFC2046FDF796FE27
:202420004FF47A7382B221463046FFF730FC6420FDF7DCFEFFF75AFF554B03CB20606160E9
:202440001B7823722046FDF781FE4FF47A7382B221462846FFF71BFC2046FDF777FE4FF423
:202460007A7382B221463046FFF711FC4FF4FA70FDF7BCFEFFF73AFF464B07CB206061602D
:20248000A2601B88A3812046FDF760FE4FF47A7382B221462846FFF7FAFB2046FDF756FEE9
:2024A0004FF47A7382B221463046FFF7F0FB6420FDF79CFEFFF71AFF4FF4FA60FDF796FEB4
:2024C000354B364A3649204600F0C0FC2046FDF73DFE4FF47A7382B221462846FFF7D7FBD5
:2024E0002046FDF733FE4FF47A7382B221463046FFF7CDFB42F21070FDF778FEFFF7F6FE4A
:20250000284B03CB206061601A889B782281A3722046FDF71BFE4FF47A7382B22146284620
:20252000FFF7B5FB2046FDF711FE4FF47A7382B221463046FFF7ABFB41F28830FDF756FE7C
:20254000FFF7D4FE184B07CB20606160A2601A889B78A281A3732046FDF7F8FD4FF47A73CE
:2025600082B221462846FFF792FB70BDB403002074070020B4040020B8070020B4010020A4
:20258000F0370008F8070020043800081038000818380008243800083438000840380008A9
:2025A00048380008643800087038000870B5B2B00446344A3449684600F048FC214668467C
:2025C00000F064FC314C324A3249204600F03EFC2046FDF7BBFD304E4FF47A7382B221464C
:2025E0003046FFF754FB2046FDF7B0FD2B4D4FF47A7382B221462846FFF749FB4FF4FA6091
:20260000FDF7F4FDFFF772FE6846FDF79FFD02462349204600F01AFC2046FDF797FD4FF4E0
:202620007A7382B221463046FFF731FB2046FDF78DFD4FF47A7382B221462846FFF727FB45
:202640004FF4FA60FDF7D2FDFFF750FE6846FDF77DFD4FF47A7382B269463046FFF717FB29
:202660006846FDF773FD4FF47A7382B269462846FFF70DFB6420FDF7B9FDFFF737FE32B08E
:2026800070BD00BF8038000894380008B4010020AC380008C0380008F8070020B8070020FB
:2026A000DC38000800B585B01348144B036000238360C36043614FF46022C261436001237B
:2026C0000361FDF7DBFF68B905230193012302930023039301A90848FDF758FE38B905B08F
:2026E0005DF804FB4321064800F0B6F8ECE74D21034800F0B1F8F2E7C406002000240140E9
:20270000EC38000802680E4B9A4200D0704700B587B003F56C439A6942F400729A619B692A
:2027200003F400730193019B202302930323039302A90448FEF7D6F907B05DF804FB00BFE6
:20274000002401400008014000B583B00A4B5A6942F001025A615B6903F001030193019BF0
:20276000002211460D20FEF723F80D20FEF754F803B05DF804FB00BF0010024070B588B0C0
:20278000314B9A6942F010029A619A6902F010020092009A9A6942F020029A619A6902F001
:2027A00020020192019A9A6942F004029A619A6902F004020292029A9A6942F008029A612E
:2027C0009B6903F008030393039B204E00224FF440413046FEF770FA4FF440430493012418
:2027E000059406940325079504A93046FEF77AF90F230493164B0593069404A91548FEF7FC
:2028000071F9002221460620FDF7D2FF0620FEF703F8002202210720FDF7CAFF0720FDF780
:20282000FBFF002229460820FDF7C2FF0820FDF7F3FF002204210920FDF7BAFF0920FDF7E8
:20284000EBFF08B070BD00BF00100240001001400000111000080140FEE7000000B595B0FE
:2028600001220A924FF480330B9300210C910E920222119212934FF4E01313930AA8FEF7B8
:2028800047FA50BB0F23059302210691002307934FF480620892099305A8FEF75FFC00BB98
:2028A000022301934FF40043039301A8FEF738FDD8B9FEF70FFD0F4BA3FB00308009FDF739
:2028C000B7FF0420FDF7CAFF002211464FF0FF30FDF76EFF15B05DF804FBAE210648FFF7ED
:2028E000BBFFBC210448FFF7B7FFC3210248FFF7B3FF00BFD34D6210FC38000800B5B3B0CE
:20290000FDF750FCFFF7AAFFFFF738FFFFF71CFF00F0A0F9FFF7C6FE00F032F900F0B8F99B
:2029200000F0F4F8144C2046FEF73AFE2046FEF75BFEFFF73FFBFFF717FD06E00F4B1B7807
:20294000052B12D00020FFF74DFBFFF751FB0128FBD10A4B18780428F0D86946FFF76CFBEB
:20296000064A137801331370E8E76846FFF71EFE024B00221A70E5E7340700200D010020E8
:2029800000B583B0244B9A6942F001029A619A6902F001020092009ADA6942F08052DA6107
:2029A000DB6903F080530193019B0320FDF7EEFE002211466FF00B00FDF7FAFE0022114692
:2029C0006FF00A00FDF7F4FE002211466FF00900FDF7EEFE002211466FF00400FDF7E8FE31
:2029E000002211466FF00300FDF7E2FE002211466FF00100FDF7DCFE002211464FF0FF309A
:202A0000FDF7D6FE054A536823F0E06343F00073536003B05DF804FB00100240000001409B
:202A20007047FEE7FEE7FEE7FEE770477047704708B5FDF7C9FBFDF722FF08BD08B5044BCB
:202A4000596A0020FFF7DAFA0120FEF73DF908BD0008004008B5044B596A0120FFF7CEFAC2
:202A60000220FEF731F908BD0008004008B5044B596A0220FFF7C2FA0420FEF725F908BD69
:202A80000008004008B5044B596A0320FFF7B6FA0820FEF719F908BD0008004008B5024813
:202AA000FDF77EFF08BD00BF7407002008B50120FFF798FA0148FEF72CFE08BD3407002098
:202AC0000F4B1A6842F001021A6059680D4A0A405A601A6822F0847222F480321A601A6801
:202AE00022F480221A605A6822F4FE025A604FF41F029A60044B4FF000629A60704700BF54
:202B0000001002400000FFF800ED00E000B587B01848194B03604FF6FE724260002383602F
:202B2000C26003618361FEF7EBFE98B906A94FF4805341F8103D0F48FEF762FD78B90023B2
:202B40000093019369460B48FEF7F3FE60B907B05DF804FB40210948FFF77EFEE6E74621EA
:202B60000648FFF779FEEAE74D210448FFF774FEEDE700BF34070020000400400C39000828
:202B800000B587B01848194B036011234360002383604FF6E852C26003618361FEF7B0FEB9
:202BA00098B906A94FF4805341F8103D0E48FEF727FD78B900230093019369460A48FEF799
:202BC000B8FE60B907B05DF804FB5F210848FFF743FEE6E765210648FFF73EFEEAE76C21E3
:202BE0000348FFF739FEEDE7F4060020000800400C39000800B583B00368134A934205D080
:202C0000124A934215D003B05DF804FB104BDA6942F00202DA61DB6903F002030093009B1E
:202C2000002207211D20FDF7C3FD1D20FDF7F4FDE9E7074BDA6942F00402DA61DB6903F028
:202C400004030193019BDEE700040040000800400010024008B50B480B4B03604FF4164335
:202C6000436000238360C3600361082242618361C361FEF7D7FF00B908BD45210348FFF75F
:202C8000EBFDF9E7F8070020003801401C39000808B50B480B4B03604FF4E1334360002391
:202CA0008360C36003610C2242618361C361FEF78AFF00B908BD58210348FFF7CDFDF9E771
:202CC000B8070020004800401C39000870B586B003682B4A934205D004462A4A934217D0D1
:202CE00006B070BD284B9A6942F480429A619B6903F480430093009B4FF40073029312231C
:202D000003930323059302A92048FDF7EBFEE7E71D4BDA6942F48022DA61DB6903F4802305
:202D20000193019B4FF4806302930223039303230593174E02A93046FDF7D4FE4FF400633D
:202D4000029300250395049502A93046FDF7CAFE1048114B0360456085608023C3600561DE
:202D6000456120238361C561FDF7A4FD18B9094B63635C62B4E797210848FFF76DFDF6E742
:202D800000380140004800400010024000080140000C014074070020300002401C390008E0
:202DA000002103E00B4B5B58435004310A480B4B42189A42F6D30A4A02E0002342F8043BC5
:202DC000084B9A42F9D3FFF77BFE00F00FF8FFF795FD7047683900080000002070000020FA
:202DE000700000203C080020FEE7000070B500250C4E0D4CA41BA410A54209D100F04AFC93
:202E000000250A4E0A4CA41BA410A54205D170BD56F8253098470135EEE756F82530984773
:202E20000135F2E76039000860390008603900086439000810B5431E0A44914200D110BD16
:202E400011F8014B03F8014FF7E700000EB46FF0004100B59CB01DAB029006900791049174
:202E60000848094953F8042B0591006802A9019300F076F80022029B1A701CB05DF804EB42
:202E800003B070470C0000200802FFFF034610B51A785C1C3AB9013B11F8012B03F8012FED
:202EA000002AF9D110BD2346F2E72DE9F0478E6882469E420C469046994637D88A8912F4F5
:202EC000906F31D00223256809696F1A656905EB450595FBF3F509F101033B449D4238BF72
:202EE0001D46530530D5294600F02CFB064650B90C234FF0FF30CAF80030A38943F0400306
:202F0000A381BDE8F0873A462169FFF793FFA38923F4906343F08003A38126613E44266040
:202F20004E466561ED1BA5604E4500D94E4632464146206800F0A0FAA36800209B1BA36035
:202F400023681E442660DCE72A4600F055FB06460028E2D12169504600F0A8FAC8E7000003
:202F60002DE9F04F9DB003938B8980461D060C4616460FD50B696BB9402100F0E3FA206044
:202F8000206128B90C23C8F800304FF0FF30C7E0402363610023099320238DF82930302341
:202FA0004FF0010B8DF82A3037463D4615F8013B0BB1252B3ED1B7EB060A0BD053463246E5
:202FC00021464046FFF771FF013000F0A480099B534409933B78002B00F09D8000234FF035
:202FE000FF32CDE90523049307938DF853301A932F46052217F8011B4F4800F02FFA049BC6
:20300000D0B9D90644BF20228DF853201A0744BF2B228DF853202A782A2A15D02F46002032
:203020000A25079A394611F8013B303B092B4DD9B8B10FE02F46B8E73F4A3D46801A0BFA20
:2030400000F018430490D3E7039A111D12680391002A01DB079204E0524243F00203079216
:2030600004933B782E2B0CD17B782A2B33D1039B02371A1D1B680392002BB8BF4FF0FF334B
:2030800005932E4D03223978284600F0E7F938B14023401B03FA00F0049B013703430493C1
:2030A0003978062226487E1C8DF8281000F0D6F9002838D0234B13BB039B073323F0070352
:2030C00008330393099B4B4409936DE705FB023201200F46A6E700230A2519460137059344
:2030E000384610F8012B303A092A03D9002BC8D00591C6E705FB012101230746F0E703AB87
:2031000000932246104B04A94046AFF30080B0F1FF3F8146D6D1A3895B063FF536AF099870
:203120001DB0BDE8F08F03AB00932246064B04A9404600F081F8EAE72C3900083239000857
:203140003639000800000000AB2E00082DE9F04791461F468A680B6906469342B8BF134637
:20316000C9F8003091F843200C46DDF8208012B10133C9F800302368990642BFD9F8003097
:203180000233C9F80030256815F0060507D104F1190AE368D9F800209B1AAB4229DC94F80D
:2031A00043302268003318BF012392062ED404F1430239463046C047013021D02368E5681A
:2031C00003F00603042B18BF0025D9F800204FF0000908BFAD1AA368226908BF25EAE5753B
:2031E0009342C4BF9B1AED181A344D451AD1002008E00123524639463046C047013003D12D
:203200004FF0FF30BDE8F0870135C2E73020E11881F843005A1C94F845102244023382F8D4
:203220004310C4E70123224639463046C0470130E6D009F10109D8E72DE9F04301F1430CD4
:203240000C46097E85B06E291746064698460C9A00F0B38022D8632936D00AD8002900F0F2
:20326000B980582900F0838004F1420584F8421032E0642901D06929F6D1206813680506C0
:2032800003F104012AD51B681160002B03DA2D225B4284F843206F480A2239E0732900F0E7
:2032A0009D8008D86F2920D07029DDD1236843F02003236003E0752917D07829D4D1782395
:2032C000654884F8453055E0136804F14205191D1B68116084F8423001238CE01B6810F039
:2032E000400F116018BF1BB2CFE713682568181D1060280601D51B6802E06806FBD51B88BD
:203300006F2914BF0A2208225248002184F843106568002DA560C0F29580216821F00401FD
:203320002160002B3DD1002D40F08E806546082A0BD12368DB0708D5236962689A42DEBF96
:20334000302305F8013C05F1FF35ACEB05032361CDF800803B4603AA21463046FFF7F6FE59
:2033600001304DD14FF0FF3005B0BDE8F083394884F84510136821681D1D1B6815600A062B
:203380000BD5CA0744BF41F0200121601BB9226822F0200222601022B7E74D0648BF9BB21B
:2033A000EFE76546B3FBF2F102FB1133C35C05F8013D0B460029F5D1B9E713682568181D43
:2033C0006169106028061B6801D5196002E06A06FBD51980002365462361B9E71368191D55
:2033E00011601D6862680021284600F037F808B1401B606063682361002384F84330A7E79C
:2034000023692A4639463046C0470130AAD023689B0713D4E068039B9842B8BF1846A3E7D6
:2034200001234A4639463046C04701309AD00135E368039A9B1AAB42F2DCEBE7002504F1C7
:203440001909F5E7002BACD1037804F1420584F842306CE73D3900084E39000810B5C9B281
:2034600002449042034601D1002303E01C7801308C42F6D1184610BD884210B501EB02030E
:2034800007D8421E99420AD011F8014B02F8014FF8E78342F5D98118D21AD34200D110BDEF
:2034A00013F8014D01F8014DF7E7000038B50546002943D051F8043C0C1F002BB8BFE418C8
:2034C00000F0D0F81E4A1368104633B9636014602846BDE8384000F0C6B8A3420BD921688D
:2034E0006218934201BF1A685B685218226063600460EDE713465A680AB1A242FAD9196883
:203500005818A0420BD120680144581882421960DED110685268014419605A60D8E702D910
:203520000C232B60D4E7206821188A4201BF116852680918216062605C60C9E738BD00BF12
:203540001001002070B5CD1C25F0030508350C2D38BF0C25002D064601DBA94203D90C2326
:203560003360002070BD00F07DF8214A1468214691B9204C23681BB9304600F063F8206062
:203580002946304600F05EF8431C24D10C233046336000F068F8E4E70B685B1B18D40B2B4E
:2035A0000FD90B60CC18CD50304600F05CF804F10B00231D20F00700C31AD3D05A42E25058
:2035C000D0E74B688C4216BF636013600C46EBE70C464968CCE7C41C24F00304A04205D01C
:2035E000211A304600F02EF80130CFD02560DBE71001002014010020F8B5074614460E46DF
:2036000021B9BDE8F8401146FFF79CBF22B9FFF74DFF25462846F8BD00F026F8A0420FD2CF
:1836200021463846FFF78EFF05460028F2D031462246FFF7FFFB3146AF
:00000001FF
