:020000040800F2
:20000000005000209136000841330008433300084533000847330008493300080000000021
:200020000000000000000000000000004B3300084D330008000000004F330008513300089C
:20004000D9360008D9360008D9360008D9360008D9360008D9360008D9360008D9360008E8
:20006000D9360008D9360008D9360008D9360008D9360008D9360008D9360008D9360008C8
:20008000D9360008D9360008D9360008D9360008D9360008D9360008D9360008D9360008A8
:2000A000D9360008D9360008D9360008D9360008D93600085D33000875330008D93600086E
:2000C000D9360008D9360008D9360008D9360008D9360008D9360008D9360008D936000868
:2000E000D9360008D9360008D93600080000000000000000000000000000000000000000BB
:2001000000000000000000005FF808F110B5054C237833B9044B13B10448AFF3008001234D
:20012000237010BD70000020000000003040000808B5034B1BB103490348AFF3008008BD02
:20014000000000007400002030400008034613F8012B002AFBD1181A0138704710B50446EC
:200160000E4B18784FF47A73B3FBF0F30C4A1068B0FBF3F000F0A0F868B90F2C01D901209A
:200180000AE0002221464FF0FF3000F055F8034B5C60002000E0012010BD00BF000000206A
:2001A0000800002008B5074A136843F010031360032000F02FF80020FFF7D0FF03F070F85B
:2001C000002008BD00200240034A1168034B1B780B441360704700BFA40000200000002015
:2001E000014B1868704700BFA400002038B50446FFF7F6FF0546B4F1FF3F02D0044B1B78F5
:200200001C44FFF7EDFF401BA042FAD338BD00BF00000020074AD36823F4E0631B041B0C92
:20022000000200F4E060184340F0BF6040F40030D060704700ED00E030B4174BDB68C3F387
:200240000223C3F10704042C28BF04241D1D062D18D9033B4FF0FF3505FA04F421EA040165
:20026000994005FA03F322EA0303194300280BDB0901C9B200F1604000F5614080F80013FD
:2002800030BC70470023E5E700F00F000901C9B2024B1954F4E700BF00ED00E014ED00E046
:2002A00000F01F02400901239340024A42F82030704700BF00E100E00138B0F1807F0AD22B
:2002C000064B5860064AF02182F823100020986007221A6070470120704700BF10E000E02E
:2002E00000ED00E0042805D0054A136823F0040313607047024A136843F0040313607047F7
:2003000010E000E0704708B5FFF7FCFF08BD0000F0B482B000263546A1E0002C59D0012C69
:2003200000D1CE68FF2B68D88446FF2B68D8AC00DCF800200F27A74022EA070206FA04F44E
:200340002243CCF800204A6812F0805F00F086805E4A946944F001049461926902F0010208
:200360000192019AAC08A71C594A52F8272005F00307BF004FF00F0C0CFA07FC22EA0C0C5F
:20038000544A904242D002F5806290427FD002F5806290427DD002F58062904234D0042214
:2003A00035E04D4FBC4214D00BD94C4FBC4210D007F58037BC420CD0A7F58017BC42B1D10D
:2003C00007E0A7F58017BC4203D007F58037BC42A8D18C687CB1012C08D042610826A1E789
:2003E000CE6808369EE7CE680C369BE70261082698E7002696E7042694E700F1040C94E736
:20040000A5F10804A40093E7032200E00022BA4042EA0C0202342E4F47F824204A6812F4D3
:20042000803F38D02E4C22681A4322604A6812F4003F36D02A4C62681A4362604A6812F4FE
:20044000801F34D0264CA2681A43A2604A6812F4001F32D0224CE2681343E36001350F2D82
:2004600031D80122AA400B6813409A42F6D14C68122CB8D095D8022CB2D07FF64EAF032CC5
:20048000B7D0112C7FF44EAFCE6804364AE70122BDE70222BBE7124C226822EA030222607F
:2004A000C4E70F4C626822EA03026260C6E70C4CA26822EA0302A260C8E7094CE26822EA1D
:2004C0000303E360CAE702B0F0BC70470010024000000140000801400000211000003110BF
:2004E0000004014012B909040161704701617047014B01221A60704720000E4282B0084B18
:200500001B68084AA2FB03235B0A00FB03F0019000BF019B5A1E0192002BF9D102B070479B
:2005200008000020D34D621070B582B00446036813F0010F2CD0AB4B5B6803F00C03042BFC
:200540001DD0A84B5B6803F00C03082B12D06368B3F5803F41D0002B55D103F1804303F59E
:2005600004331A6822F480321A601A6822F480221A6037E09B4B5B6813F4803FE7D0994BAB
:200580001B6813F4003F03D06368002B00F0AE81236813F0020F76D0924B5B6813F00C0F07
:2005A0005FD0904B5B6803F00C03082B54D02369002B00F08A808C4B01221A60FFF710FEEC
:2005C0000546884B1B6813F0020F75D1FFF708FE401B0228F5D903208BE1824A136843F4C4
:2005E00080331360636843B3FFF7FAFD05467D4B1B6813F4003FCBD1FFF7F2FD401B6428E3
:20060000F5D9032075E1B3F5A02F09D0754B1A6822F480321A601A6822F480221A60E1E743
:2006200003F18043A3F53C331A6842F480221A601A6842F480321A60D4E7FFF7D1FD05467A
:20064000684B1B6813F4003FA2D0FFF7C9FD401B6428F5D903204CE1624B5B6813F4803FB5
:20066000A5D1604B1B6813F0020F04D02369012B01D001203DE15B4A136823F0F80361692E
:2006800043EAC1031360236813F0080F32D0A369002B5BD0554B01221A60FFF7A1FD0546D1
:2006A000504B5B6A13F0020F21D1FFF799FD401B0228F5D903201CE14A4A136823F0F803B8
:2006C000616943EAC1031360DDE7474B00221A60FFF786FD0546434B1B6813F0020FD2D06F
:2006E000FFF77EFD401B0228F5D9032001E10120FFF704FF236813F0040F00F09780394BEB
:20070000DB6913F0805F33D1364BDA6942F08052DA61DB6903F080530193019B0125344BCD
:200720001B6813F4807F25D0E368012B36D0002B4CD103F1804303F504331A6A22F00102F7
:200740001A621A6A22F004021A622CE0274B00221A60FFF745FD0546224B5B6A13F0020F22
:20076000C8D0FFF73DFD401B0228F5D90320C0E00025D4E71E4A136843F480731360FFF745
:200780002FFD06461A4B1B6813F4807FCCD1FFF727FD801B6428F5D90320AAE0114A136AC2
:2007A00043F001031362E36873B3FFF719FD06460C4B1B6A13F0020F37D1FFF711FD801B2D
:2007C00041F288339842F3D9032092E0052B11D0044B1A6A22F001021A621A6A22F00402DF
:2007E0001A62E0E700100240000042428004424200700040414B1A6A42F004021A621A6AE0
:2008000042F001021A62CEE7FFF7EAFC06463B4B1B6A13F0020F08D0FFF7E2FC801B41F2B1
:2008200088339842F3D9032063E0E5B9E369002B5ED0324A526802F00C02082A5BD0022BEE
:2008400017D02F4B00221A60FFF7CAFC04462B4B1B6813F0007F47D0FFF7C2FC001B02280A
:20086000F5D9032045E0254AD36923F08053D361DCE7234B00221A60FFF7B2FC05461F4B77
:200880001B6813F0007F06D0FFF7AAFC401B0228F5D903202DE0236AB3F5803F1AD0174920
:2008A0004B6823F47413226A606A024313434B60134B01221A60FFF793FC04460F4B1B68A4
:2008C00013F0007F0ED1FFF78BFC001B0228F5D903200EE0094A536823F40033A1680B4367
:2008E0005360DCE7002004E0002002E0012000E0002002B070BD0120FBE700BF0010024068
:200900006000424210B487B0164C94E80F000DF1180C0CE90F00238AADF80430124B5B683F
:2009200003F00C02082A1AD1C3F38342624412F8102C13F4803F05D10C4800FB02F007B09E
:2009400010BC7047084B5B68C3F34043634413F8143C074800FB02F0B0FBF3F0EFE70448D7
:20096000EDE700BF484000080010024000093D0000127A00594B1B6803F007038B420CD261
:20098000564A136823F007030B431360136803F007038B4201D00120704770B5036813F0DD
:2009A000020F06D04E4A536823F0F0038468234353600C460546036813F0010F52D043680A
:2009C000012B23D0022B28D0454A126812F0020F00F0828042494A6822F0030213434B6070
:2009E000FFF7FEFB06466B68012B1DD0022B2AD03B4B5B6813F00C0F34D0FFF7F1FB801BC1
:200A000041F288339842F3D9032064E0344A126812F4003FDED101205DE0314A126812F09A
:200A2000007FD7D1012056E02D4B5B6803F00C03042B17D0FFF7D4FB801B41F288339842BD
:200A4000F2D9032047E0264B5B6803F00C03082B08D0FFF7C5FB801B41F288339842F2D95C
:200A6000032038E01D4B1B6803F00703A3420CD91A4A136823F0070323431360136803F046
:200A80000703A34201D0012025E02B6813F0040F06D0134A536823F4E063E9680B4353602D
:200AA0002B6813F0080F07D00D4A536823F46053296943EAC1035360FFF724FF084B5B6871
:200AC000C3F30313074AD35CD840074B18600020FFF744FB002070BD0120FCE700200240E0
:200AE000001002407040000808000020014B1868704700BF0800002008B5FFF7F7FF044B62
:200B00005B68C3F30223034AD35CD84008BD00BF001002408040000808B5FFF7E7FF044B1D
:200B20005B68C3F3C223034AD35CD84008BD00BF001002408040000870B582B00446036819
:200B400013F0010F34D03E4BDB6913F0805F48D13B4BDA6942F08052DA61DB6903F08053A4
:200B60000193019B0125374B1B6813F4807F3AD0334B1B6A13F4407311D0626802F44072FA
:200B80009A420CD02E4A136A23F440702E4901260E6000260E60106213F0010F37D1284A42
:200BA000136A23F4407361680B431362002D3FD1236813F0020F06D0214A536823F44043F0
:200BC000A1680B435360236813F0100F35D01C4A536823F48003E1680B435360002002B082
:200BE00070BD0025BFE7174A136843F480731360FFF7F6FA0646134B1B6813F4807FB7D1E3
:200C0000FFF7EEFA801B6428F5D90320E7E7FFF7E7FA06460A4B1B6A13F0020FBFD1FFF779
:200C2000DFFA801B41F288339842F3D90320D6E7D36923F08053D361BAE70020CFE700BF40
:200C400000100240007000404004424230B587B00546384C94E80F000DF1180C0CE90F002E
:200C6000238AADF80430022D50D0102D03D0012D2BD0002054E0304B5A681B6813F0807F50
:200C800050D0C2F3834306A90B4413F8100C12F4803F16D0284B5B68C3F340430B4413F820
:200CA000142C264BB3FBF2F300FB03F0224B5B6813F4800F34D14000214BA3FB0030400875
:200CC0002EE0204B03FB00F0F0E71B4B1B6A40F202321A40B2F5817F26D003F44073B3F53C
:200CE000007F04D0B3F5407F09D0002018E0124A526A12F0020FF5D049F6404010E00E4B51
:200D00001B6813F4003F12D1002009E0FFF704FF094B5B68C3F3813301335B00B0FBF3F087
:200D200007B030BD0020FBE74FF40040F8E74FF22440F5E75C4000080010024000127A00A8
:200D4000ABAAAAAA00093D0030B402689469A5B2D369916988B2854205D0D06980B240EA61
:200D6000014030BC704798B240EA0440F9E70368186A5B6A9BB243EA00407047002302E0CF
:200D800001330A38C0B20928FAD81B01DBB218437047030903EB83035A0000F00F00104480
:200DA000C0B2704710F0030F16D10D4BA3FB00235B09642202FB13039BB27BB9084BA3FB89
:200DC0000023DB094FF4C87202FB130080B208B10020704701207047002070470120704736
:200DE0001F85EB5110B400F5FA64022920D901EB4103C1EBC3011F4BA3FB011302EB5303D9
:200E0000234403EB94031C4AA2FB0424A3EB541303EBD41302331948A0FB03201A1A00EB7E
:200E200052008008C0EBC000181AC0B210BC704701EB4103C1EBC3010E4BA3FB011302EBAE
:200E40005303234400F2CF7003EB90030A4AA2FB0020A3EB501303EBD01304330748A0FB2F
:200E600003201A1A00EB52008008C0EBC000181ADBE700BF398EE3381F85EB512549922452
:200E80002DE9F8430746884690F80F90447B857B002603E01E2D1FD80135013646453DD2AE
:200EA000012CF7D0032CF5D0052CF3D0072CF1D0082CEFD00A2CEDD00C2CEBD0042C15D074
:200EC000062C13D0092C11D00B2C0FD0022CE4D11B2D12D80135E0E70C2C02D0013401255A
:200EE000DBE709F1010901252C46D6E71D2D01D80135D2E701340125CFE71C2D04D01D2D4D
:200F0000CBD101340125C8E71FFA89F0FFF74AFF08B10135C1E701340125BEE787F80F90A5
:200F2000E1B27973EAB2BA734846FFF75BFF3873BDE8F88338B50446FFF752F90546236872
:200F40005A6812F0200F07D1FFF74AF9401BB0F57A7FF4D9032004E05A6842F010025A6000
:200F6000002038BD38B504460268536823F010035360FFF735F9054623685B6813F0200F38
:200F800007D1FFF72DF9401BB0F57A7FF4D9032000E0002038BD38B505460C46FFF7CAFF36
:200FA00010B10123184638BD2B68220C9A612B68A4B2DC612846FFF7D5FF03460028F1D0AD
:200FC0000123EFE738B505460C46FFF7B3FF10B10123184638BD2B68220C1A622B68A4B287
:200FE0005C622846FFF7BEFF03460028F1D00123EFE770B5002857D00446002956D0037C5A
:20100000012B55D00E460123037402234374BAB90D784B78C3EB03139A004FF4616303FB96
:2010200005258B781D4429462046FFF7B4FF0646C8B104236374002323740126304670BD5D
:201040000878FFF7A6FE4FF4616505FB00F57078FFF79FFEC0EB001083001D44B078FFF740
:2010600098FE0544DFE72268536823F0050353602046FFF77CFEB0F1FF3F01D0854204D88F
:201080000123637400232374D8E700F5A83101F5C0712046FFF796FF0028F1D0042363740F
:2010A000002323740126C9E70126C7E70126C5E70226C3E7002875D02DE9F04705460029F7
:2010C00072D003685B6813F0040F02D00120BDE8F08716460C46FFF737FE0746364AA2FB38
:2010E0000032D20A4FF4616000FB1270334BA3FB00135B096370C3EB03139900411AA17032
:20110000172A10D82270002E54D02078FFF736FE20706078FFF732FE6070A078FFF72EFE68
:20112000A0700020D3E7264BA3FB07384FEA1848244BA3FB02131B0903EB4303D900531A1E
:2011400023702846FFF713FE8246B0F1FF3F03D087421CD2A0EB070A194BA3FB07394FEA3F
:201160001949194B03FB197949462846FFF713FFE0B9BAF1FF3F0DD00AEB09012846FFF752
:2011800021FFA8B941462846FFF77AFEBBE74FF0FF3AE1E751462846FFF714FF0028F1D092
:2011A000012094E701207047012090E701208EE701208CE700208AE7C5B3A291898888889C
:2011C00007452EC2ABAAAAAA8051010000285DD038B5044600295BD0037C012B5AD00D4650
:2011E0000123037402234374D2B9CB78C3734B7843738B788373A27B617BE07BFFF7F2FDC9
:20120000207328702046FFF79FFD234BA3FB0023B3F5484F11D2012363740020207438BDB6
:20122000C878FFF7B6FDE0736878FFF7B2FD6073A878FFF7AEFDA073DDE7184DA5FB003548
:201240002D0C174B03FB150529462046FFF7A3FE28B104236374002323740120DFE7204691
:20126000FFF785FDB0F1FF3FD5D08542D3D900F5A83101F5C0712046FFF7A4FE0028CAD04A
:2012800004236374002323740120C8E7012070470120C4E70220C2E7C5B3A29107452EC270
:2012A00080510100C0B138B504460268536823F008035360FEF794FF054623685B6813F09A
:2012C000080F07D1FEF78CFF401BB0F57A7FF4D9032000E0002038BD0120704700285AD097
:2012E00010B50446437C53B1022363742046FFF7D9FF40B1042363740123184610BD037437
:2013000001F0AEFFF0E72046FFF714FE002830D12268536823F007035360A36823B11F4A64
:20132000136B23F0010313631C4AD36A23F46073A1680B43D3626268B2F1FF3F1DD0216868
:201340008B6823F00F0343EA12438B602168CB681B0C1B0492B21343CB602046FFF702FEE5
:201360000346A0B90022E27301226273A2736274C3E7042363740123BFE70120FFF766FC86
:2013800008B1421EDBE7042363740123B5E7042363740123B1E7012318467047006C004015
:2013A00070B4036A23F001030362036A4268846924F073040D6845EA040623F002048B68D7
:2013C00023430D4DA84209D00B4DA8420DD0426086614A684263036270BC704723F0080325
:2013E000CC68234323F00403EEE722F440724C6914438A692243EAE7002C014030B4036AA9
:2014000023F480730362036A4268C46924F073040D682C4323F400738D6843EA05230F4D7A
:20142000A84209D00D4DA8420ED04260C4614A68C263036230BC704723F40063CD6843EA45
:20144000052323F48063EDE722F440524D6942EA05128D6942EA0512E7E700BF002C0140C2
:2014600030B4036A23F480530362036A4468C26922F4E6420D6842EA052223F400538D6823
:2014800043EA0533074DA84206D04460C2614A680264036230BC704724F480444D6944EA2C
:2014A0008514F2E7002C014010B4036A046A24F001040462846924F0F00444EA021223F0E5
:2014C0000A030B438261036210BC704710B4036A23F0100303628469036A24F4704444EAD6
:2014E000023223F0A00343EA01138261036210BC7047836823F0700341F00701194381600F
:20150000704710B4846824F47F4442EA03230B432343836010BC7047022380F83D300268A9
:20152000136843F001031360012380F83D3000207047022380F83D300368196A41F2111258
:20154000114208D1196A40F24442114203D11A6822F001021A60012380F83D30002070470C
:201560000268D36843F00103D3600268136843F0010313600020704790F83C30012B7DD089
:2015800010B50446012380F83C30022380F83D300268936823F47F4323F0770393600B68F9
:2015A000402B57D010D9702B3ED01FD8502B47D0602B32D1CA6849680068FFF787FF6021A8
:2015C0002068FFF796FF28E0102B4DD008D9202B4FD0302B21D130210068FFF78AFF1CE0CC
:2015E000DBB900210068FFF784FF16E0B3F5805F0ED0B3F5005F10D1CB684A6889680068D4
:20160000FFF77FFF2268936843F48043936004E00268936823F007039360012384F83D307E
:20162000002084F83C0010BDCB684A6889680068FFF767FF2268936843F077039360ECE773
:20164000CA6849680068FFF72FFF50212068FFF750FFE2E7CA6849680068FFF725FF40214E
:201660002068FFF746FFD8E710210068FFF741FFD3E720210068FFF73CFFCEE702207047F7
:201680007047704770477047704710B5044603681A6912F0020F11D0DA6812F0020F0DD094
:2016A0006FF002021A610123037703689B6913F0030F70D0FFF7E6FF0023237723681A6944
:2016C00012F0040F12D0DA6812F0040F0ED06FF004021A610223237723689B6913F4407FEA
:2016E0005FD02046FFF7CEFF0023237723681A6912F0080F12D0DA6812F0080F0ED06FF034
:2017000008021A61042323772368DB6913F0030F4ED02046FFF7B6FF0023237723681A69A5
:2017200012F0100F12D0DA6812F0100F0ED06FF010021A61082323772368DB6913F4407F1F
:201740003DD02046FFF79EFF0023237723681A6912F0010F03D0DA6812F0010F36D12368ED
:201760001A6912F0800F03D0DA6812F0800F34D123681A6912F0400F03D0DA6812F0400FE5
:2017800032D123681A6912F0200F03D0DA6812F0200F30D110BDFFF774FF2046FFF773FFBC
:2017A0008AE72046FFF76DFF2046FFF76CFF9BE72046FFF766FF2046FFF765FFACE720462D
:2017C000FFF75FFF2046FFF75EFFBDE76FF001021A612046FFF754FFC1E76FF080021A61C8
:2017E000204600F09BF9C3E76FF040021A612046FFF74AFFC5E76FF020021A61204600F096
:201800008CF9C7E703681B4A90420AD0B0F1804F07D0A2F59432904203D002F58062904225
:2018200003D123F070034A681343124A90420AD0B0F1804F07D0A2F59432904203D002F5FE
:201840008062904203D123F44073CA68134323F080034A69134303608B68C3620B6883623C
:20186000044B984202D00123436170470B690363F9E700BF002C0140A8B110B5044690F818
:201880003D305BB1022384F83D30211D2068FFF7B9FF012384F83D30002010BD80F83C306F
:2018A00001F026FEEEE701207047A8B110B5044690F83D305BB1022384F83D30211D206829
:2018C000FFF7A0FF012384F83D30002010BD80F83C3001F0F9FDEEE70120704730B4036AB0
:2018E00023F010030362036A4468826922F4E6420D6842EA052223F020038D6843EA0513E3
:201900000E4DA84209D00D4DA8420ED0446082614A688263036230BC704723F08003CD6896
:2019200043EA051323F04003EDE724F440644D6944EA85048D6944EA8504E7E7002C014027
:2019400038B590F83C30012B66D00D460446012380F83C30022380F83D300C2A1AD8DFE8A6
:2019600002F007191919201919193419191947000068FFF715FD2268936943F008039361CA
:201980002268936923F0040393612268936929690B439361012384F83D30002084F83C0074
:2019A00038BD0068FFF79AFF2268936943F4006393612268936923F480639361226893692D
:2019C000296943EA01239361E4E70068FFF716FD2268D36943F00803D3612268D36923F0E3
:2019E0000403D3612268D36929690B43D361D1E70068FFF735FD2268D36943F40063D361F6
:201A00002268D36923F48063D3612268D369296943EA0123D361BDE70220C1E710B401239F
:201A200003FA01F4036A23EA04030362036A8A401343036210BC704710B5044601220068BF
:201A4000FFF7ECFF2368074A934206D02268136843F001031360002010BD5A6C42F4004244
:201A60005A64F3E7002C014010B5044600220068FFF7D4FF2368134A934213D02368196A51
:201A800041F21112114208D1196A40F24442114203D11A6822F001021A60012384F83D3044
:201AA000002010BD196A41F211121142E6D1196A40F244421142E1D15A6C22F400425A643A
:201AC000DCE700BF002C014090F83C30012B22D030B4012280F83C20022380F83D300468B4
:201AE000636823F070036360046863680D682B4363600468A36823F08003A3600468A3686E
:201B000049680B43A36080F83D20002380F83C30184630BC7047022070477047704700009F
:201B20002DE9F84305460268136923F44053C1680B43136183680269134342691343016878
:201B4000CA6822F4B05222F00C021343CB600268536923F4407381690B4353610268594BB0
:201B60009A4257D0FEF7C8FF00EB800000EB80006C68A400B0FBF4F4534FA7FB04346409DC
:201B80002601FEF7B9FF00EB800000EB80006C68A400B0FBF4F9FEF7AFFF00EB800000EB92
:201BA00080006C68A400B0FBF4F4A7FB043464094FF0640808FB149424013234A7FB043498
:201BC000640904F0F0043444FEF796FF00EB800000EB80006E68B600B0FBF6F6FEF78CFF35
:201BE00000EB800000EB80006B689B00B0FBF3F0A7FB0030400908FB10684FEA081808F12B
:201C00003208A7FB0837C7F343172B6827449F60BDE8F883FEF780FF00EB800000EB80002E
:201C20006C68A400B0FBF4F4274FA7FB043464092601FEF771FF00EB800000EB80006C68A6
:201C4000A400B0FBF4F9FEF767FF00EB800000EB80006C68A400B0FBF4F4A7FB04346409C5
:201C60004FF0640808FB149424013234A7FB0434640904F0F0043444FEF74EFF00EB80002F
:201C800000EB80006E68B600B0FBF6F6FEF744FF00EB800000EB80006B689B00B0FBF3F0AC
:201CA000A7FB0030400908FB10684FEA081808F13208A7FB0837C7F343172B6827449F6010
:201CC000A6E700BF003801401F85EB512DE9F04105460F4616469846069C2B681B6837EA65
:201CE00003030CBF01230023B3421DD1B4F1FF3FF3D02CB1FEF774FAA0EB0800A042ECD9C9
:201D00002A68D36823F4D073D3602A68536923F001035361202385F8393085F83A3000231D
:201D200085F83830032000E00020BDE8F081002830D010B5044690F8393033B3242384F8B4
:201D400039302268D36823F40053D3602046FFF7E7FE2268136923F49043136122685369CD
:201D600023F0220353612268536943F0080353612268D36843F40053D3600020E063202317
:201D800084F8393084F83A3010BD80F8383001F05BFCD3E7012070472DE9F04182B01E4614
:201DA00090F83930DBB2202B55D104460D469046002955D0002A55D090F83830012B53D0E5
:201DC000012380F838300023C363212380F83930FEF706FA0746A4F82480A4F8268010E0DD
:201DE00000963B46002280212046FFF76FFF00283CD12B882268C3F3080353602369C3B951
:201E00000235E38C9BB2B3B1E38C013B9BB2E384A368B3F5805FE3D000963B4600228021ED
:201E20002046FFF753FF18BB2A7823685A600135E7E70135E5E700963B4600224021204634
:201E4000FFF744FF0346A8B9202284F83920002284F8382000E00223184602B0BDE8F08167
:201E60000123F9E70123F7E70223F5E70323F3E70323F1E70323EFE708B528B10022102178
:201E80000648FEF72FFB08BD0122102100F1804000F58430FEF726FBF5E700BF0008014068
:201EA00008B528B1002202210648FEF71BFB08BD0122022100F1804000F58430FEF712FB87
:201EC000F5E700BF0008014008B530B100224FF400410748FEF706FB08BD01224FF4004129
:201EE00000F1804000F58830FEF7FCFAF4E700BF0010014008B528B1002204210648FEF78E
:201F0000F1FA08BD0122042100F1804000F58430FEF7E8FAF5E700BF0008014008B528B11E
:201F2000002208210648FEF7DDFA08BD0122082100F1804000F58430FEF7D4FAF5E700BF73
:201F40000008014008B528B1002240210648FEF7C9FA08BD0122402100F1804000F5843076
:201F6000FEF7C0FAF5E700BF0008014008B528B1002280210648FEF7B5FA08BD01228021FA
:201F800000F1804000F58430FEF7ACFAF5E700BF0008014008B530B100224FF48041074855
:201FA000FEF7A0FA08BD01224FF4804100F1804000F58830FEF796FAF4E700BF00100140D8
:201FC00008B530B101224FF480710748FEF78AFA08BD00224FF4807100F1804000F58430CF
:201FE000FEF780FAF4E700BF0008014008B530B101224FF400710748FEF774FA08BD002281
:020000040800F2
:202000004FF4007100F1804000F58430FEF76AFAF4E700BF0008014008B530B101224FF472
:2020200080610748FEF75EFA08BD00224FF4806100F1804000F58430FEF754FAF4E700BFE1
:202040000008014008B530B101224FF400610748FEF748FA08BD00224FF4006100F1804010
:2020600000F58430FEF73EFAF4E700BF0008014010B5F34B00225A62044600284FD0012C08
:2020800066D0022C7DD0032C00F09480042C00F0AA80052C00F0C080062C00F0D680072C06
:2020A00000F0EC80082C00F00281092C00F018810A2C00F02E810B2C00F044810C2C00F076
:2020C0005A810D2C00F070810E2C00F086810F2C00F09C81102C00F0B581112C00F0CB81B7
:2020E000122C00F0E181132C00F0F781142C00F00D82152C00F02382162C00F03982172CE4
:2021000000F04F82182C00F06582212C00F07B82222C00F09182232C00F0A78210BD012002
:20212000FFF7AAFE0120FFF70DFF0120FFF7B8FE0020FFF71BFF0120FFF7F0FE0120FFF7C5
:20214000C3FE0120FFF7D6FE0020FFF723FF96E70020FFF791FE0020FFF7F4FE0120FFF75A
:202160009FFE0020FFF702FF0020FFF7D7FE0120FFF7AAFE0020FFF7BDFE0020FFF70AFF11
:202180007FE70120FFF778FE0020FFF7DBFE0120FFF786FE0120FFF7E9FE0120FFF7BEFEF1
:2021A0000020FFF791FE0120FFF7A4FE0020FFF7F1FE68E70120FFF75FFE0020FFF7C2FE23
:2021C0000120FFF76DFE0120FFF7D0FE0020FFF7A5FE0120FFF778FE0120FFF78BFE002092
:2021E000FFF7D8FE52E70020FFF746FE0120FFF7A9FE0120FFF754FE0120FFF7B7FE00206D
:20220000FFF78CFE0120FFF75FFE0020FFF772FE0020FFF7BFFE3CE70120FFF72DFE0120EB
:20222000FFF790FE0020FFF73BFE0120FFF79EFE0020FFF773FE0120FFF746FE0120FFF71F
:2022400059FE0020FFF7A6FE26E70120FFF714FE0120FFF777FE0020FFF722FE0120FFF75E
:2022600085FE0120FFF75AFE0120FFF72DFE0120FFF740FE0020FFF78DFE10E70120FFF726
:20228000FBFD0020FFF75EFE0120FFF709FE0020FFF76CFE0020FFF741FE0120FFF714FEB8
:2022A0000020FFF727FE0020FFF774FEFAE60120FFF7E2FD0120FFF745FE0120FFF7F0FD27
:2022C0000120FFF753FE0120FFF728FE0120FFF7FBFD0120FFF70EFE0020FFF75BFEE4E6EE
:2022E0000120FFF7C9FD0120FFF72CFE0120FFF7D7FD0120FFF73AFE0020FFF70FFE012042
:20230000FFF7E2FD0120FFF7F5FD0020FFF742FECEE60120FFF7B0FD0120FFF713FE0120C8
:20232000FFF7BEFD0120FFF721FE0120FFF7F6FD0120FFF7C9FD0020FFF7DCFD0020FFF7CA
:2023400029FEB8E60020FFF797FD0120FFF7FAFD0020FFF7A5FD0120FFF708FE0120FFF714
:20236000DDFD0120FFF7B0FD0120FFF7C3FD0020FFF710FEA2E60120FFF77EFD0120FFF793
:20238000E1FD0020FFF78CFD0020FFF7EFFD0120FFF7C4FD0020FFF797FD0120FFF7AAFD7E
:2023A0000020FFF7F7FD8CE60020FFF765FD0020FFF7C8FD0120FFF773FD0120FFF7D6FDDD
:2023C0000120FFF7ABFD0120FFF77EFD0120FFF791FD0020FFF7DEFD76E60120FFF74CFD5A
:2023E0000120FFF7AFFD0020FFF75AFD0120FFF7BDFD0120FFF792FD0020FFF765FD01209D
:20240000FFF778FD0020FFF7C5FD60E60120FFF733FD0120FFF796FD0020FFF741FD0120CD
:20242000FFF7A4FD0120FFF779FD0020FFF74CFD0020FFF75FFD0020FFF7ACFD4AE600BFF9
:20244000000400400020FFF717FD0020FFF77AFD0020FFF725FD0020FFF788FD0020FFF798
:202460005DFD0020FFF730FD0020FFF743FD0120FFF790FD31E60020FFF7FEFC0020FFF788
:2024800061FD0020FFF70CFD0020FFF76FFD0020FFF744FD0020FFF717FD0020FFF72AFD7F
:2024A0000020FFF777FD1BE60020FFF7E5FC0120FFF748FD0120FFF7F3FC0020FFF756FDCF
:2024C0000120FFF72BFD0120FFF7FEFC0020FFF711FD0020FFF75EFD05E60120FFF7CCFC4D
:2024E0000020FFF72FFD0020FFF7DAFC0120FFF73DFD0020FFF712FD0020FFF7E5FC012020
:20250000FFF7F8FC0020FFF745FDEFE50020FFF7B3FC0120FFF716FD0020FFF7C1FC0020C3
:20252000FFF724FD0120FFF7F9FC0020FFF7CCFC0120FFF7DFFC0020FFF72CFDD9E500208B
:20254000FFF79AFC0020FFF7FDFC0020FFF7A8FC0120FFF70BFD0120FFF7E0FC0120FFF7FD
:20256000B3FC0120FFF7C6FC0020FFF713FDC3E50020FFF781FC0020FFF7E4FC0020FFF766
:202580008FFC0020FFF7F2FC0120FFF7C7FC0120FFF79AFC0120FFF7ADFC0020FFF7FAFC59
:2025A000ADE50020FFF768FC0120FFF7CBFC0120FFF776FC0120FFF7D9FC0120FFF7AEFCFB
:2025C0000120FFF781FC0020FFF794FC0020FFF7E1FC97E50020FFF74FFC0020FFF7B2FC2D
:2025E0000020FFF75DFC0020FFF7C0FC0020FFF795FC0120FFF768FC0020FFF77BFC0020CB
:20260000FFF7C8FC81E50020FFF736FC0020FFF799FC0020FFF744FC0020FFF7A7FC002078
:20262000FFF77CFC0020FFF74FFC0120FFF762FC0020FFF7AFFC6BE50020FFF71DFC0020F6
:20264000FFF780FC0020FFF72BFC0120FFF78EFC0020FFF763FC0020FFF736FC0020FFF757
:2026600049FC0020FFF796FC55E50120FFF704FC0020FFF767FC0020FFF712FC0020FFF769
:2026800075FC0020FFF74AFC0020FFF71DFC0020FFF730FC0020FFF77DFC3FE538B5044612
:2026A0004FF0804300225A62012802D0022C13D038BD4FF47A72DA624FF4FA725A63114D04
:2026C00000212846FFF7B8F91420FDF78FFD00212846FFF7C9F9E9E74FF080434FF4FA6258
:2026E000DA624FF47A725A63064C00212046FFF7A3F95020FDF77AFD00212046FFF7B4F942
:20270000D6E700BFA001002008B50220FFF7C6FF0120FFF7C3FF0220FFF7C0FF0920FFF713
:20272000A7FC08BD08B50120FFF7B8FF1020FFF79FFCC820FDF75AFD1120FFF799FC08BD31
:20274000014B1878704700BF8C000020014B1870704700BF8C00002038B500205E4B586215
:20276000FFF7F4FF5D48FEF7D7FE32E05C4D5D4C2A685D49204601F035F82046FDF7E6FCA5
:20278000642382B221465948FFF706FB2868FFF76FFCC820FDF72AFD1120FFF769FC0020DF
:2027A000FFF7D4FF4C4B00225A6216E01120FFF75FFC4F4B00225A6013E001241CE04D4B41
:2027C0009B6813F4807F7FD10020FFF73BFCFF2C7CD1FFF7B5FF0128C8D0454B5B68012BF1
:2027E000E4D000F0CBFF0120FFF7EAFB414B9B6813F0200FE1D1FF243E4B9B6813F0400FFB
:2028000000D002243B4B9B6813F0800F00D00324384B9B6813F4807F00D00A240020FFF710
:20282000CFFB0120FFF7E2FB324B9B6813F0200F00D004242F4B9B6813F0400F00D0052468
:202840002C4B9B6813F0800F00D00624294B9B6813F4807F00D00B240020FFF7C7FB0120FD
:20286000FFF7DAFB234B9B6813F0200F00D00724204B9B6813F0400F00D008241D4B9B68C8
:2028800013F0800F00D009241A4B9B6813F4807F00D00C240020FFF7BFFB0120FFF7D2FB87
:2028A000144B9B6813F0200F00D00E24114B9B6813F0400F00D000240E4B9B6813F0800FEF
:2028C0003FF47DAF0F247AE70D247DE70348FEF730FE204638BD00BF00080040200100205F
:2028E00094000020A800002088400008E00100208C000020000C014070B5084C002565602F
:20290000FFF72AFF06461420FDF770FC6560FFF723FF8642F1D1304670BD00BF8C00002043
:2029200038B51020FFF7A4FB0220FFF7B7FEFFF7E3FF05460120FFF7B1FE284600F0FAFED9
:202940002846FFF795FB4FF4FA70FDF74FFC00240AE00120FFF7A2FE2046FFF789FB4FF4AF
:202960009670FDF743FC0134AC42F2D91120FFF77FFB00F003FF4FF47A70FDF737FC2846DB
:2029800038BD00002DE9F84F80460E4693469A460220FFF783FE1220FFF76AFB4FF49670A3
:2029A000FDF724FC0220FFF779FE1320FFF760FB4FF49670FDF71AFC0220FFF76FFE1220E6
:2029C000FFF756FB4FF49670FDF710FC0220FFF765FE1320FFF74CFB4FF49670FDF706FC3D
:2029E0000220FFF75BFE1220FFF742FB4FF49670FDF7FCFB0220FFF751FE1120FFF738FB0C
:202A00004FF47A70FDF7F2FB1020FFF731FBFFF773FF0220FFF742FE4FF49670FDF7E6FB78
:202A20000120FFF73BFE764DA5FB063464092046FFF71EFB4FF4FA70FDF7D8FB1120FFF72C
:202A400017FB6420FDF7D2FB0120FFF727FE642707FB14696B4CA4FB0936F6083046FFF7DA
:202A600007FB4FF4FA70FDF7C1FB1120FFF700FB3846FDF7BBFB0120FFF710FE06EB86060B
:202A80007000A9EB0000FFF7F3FA4FF4FA70FDF7ADFB1120FFF7ECFA4FF4FA70FDF7A6FBB7
:202AA000FFF72AFF0220FFF7F9FD4FF49670FDF79DFB0220FFF7F2FD4FF49670FDF796FB3F
:202AC000ABEB08080120FFF7E9FDA5FB08356D092846FFF7CDFA4FF4FA70FDF787FB112081
:202AE000FFF7C6FA3846FDF781FB0120FFF7D6FD07FB1586A4FB0635ED082846FFF7B8FAC6
:202B00004FF4FA70FDF772FB1120FFF7B1FA3846FDF76CFB0120FFF7C1FD05EB8505680045
:202B2000301AFFF7A5FA4FF4FA70FDF75FFB1120FFF79EFA4FF4FA70FDF758FBFFF7DCFE38
:202B40000220FFF7ABFD4FF49670FDF74FFB0220FFF7A4FD4FF49670FDF748FB0220FFF7DD
:202B60009DFD4FF49670FDF741FB0120FFF796FDA4FB0A23DB0803EB83035800AAEB000088
:202B8000FFF776FA4FF4FA70FDF730FB1120FFF76FFA3846FDF72AFB0120FFF77FFD0A9BA4
:202BA000A4FB0334E4082046FFF762FA4FF4FA70FDF71CFB1120FFF75BFA3846FDF716FBE4
:202BC0000120FFF76BFD04EB840460000A9B181AFFF74EFA4FF4FA70FDF708FB1120FFF7BF
:202BE00047FA4FF4FA70FDF701FBFFF785FE0120FFF754FD4FF47A70FDF7F8FABDE8F88FD7
:202C00001F85EB51CDCCCCCC2DE9F04188B02B4B9A6942F010029A619A6902F010020092D3
:202C2000009A9A6942F020029A619A6902F020020192019A9A6942F004029A619A6902F038
:202C400004020292029A9A6942F008029A619B6903F008030393039BDFF86C8000224FF4A6
:202C600040414046FDF73EFC154E002240F6FE713046FDF737FC4FF4404304930127059737
:202C8000002506950224079404A94046FDF740FB40F6FE73049305970695079404A930461E
:202CA000FDF736FB4FF4F07304930595069404A90448FDF72DFB08B0BDE8F0810010024049
:202CC00000080140000C014000100140FEE7000000B595B009230A934FF480330B930123AD
:202CE0001093002311930AA8FDF71EFC40BB0F23059301230693002107910891099105A88F
:202D0000FDF738FE08BB012301934FF40073029301A8FDF711FFE8B9FDF7E8FE104BA3FBA2
:202D200000308009FDF7C8FA0420FDF7DBFA002211464FF0FF30FDF77FFA15B05DF804FBCA
:202D400040F231110748FFF7C1FF40F23F110548FFF7BCFF4FF4A3710248FFF7B7FF00BF6E
:202D6000D34D6210984000082DE9F041ADF5805D40F68C7200211DA800F0D4FC03251D9567
:202D800001241E9404201F9020940526219609212291022223920627249725962695279622
:202DA0000823289329914FF0070CCDF8A8C02B912C952D922E952F9330903197329233971D
:202DC000349035953695379338953992CDF8E8C03B913C963E923F9340934190429443913D
:202DE000CDF810C1459446974791489549914A914B95CDF830C14D964E9450965193529214
:202E00005491CDF854C156905791589059905A965B915C925D95CDF87CC1609361946297B5
:202E20006390659766926793689769926B936C916D916E936F97709271937395749075939D
:202E400076927796789579907A927B947C94CDF8F4C17F97CDF800C28191829383928494B1
:202E600085908693889389978A968B948C958D928E938F929095929793979490CDF854C2B1
:202E80009791989599939A909B909C979E919F96A096A296A393A492A592A695A794CDF879
:202EA000A0C2A992AA96AB95AC96AD91AE90B093B194B292B393B490B593B694B794B894B8
:202EC000CDF8E4C2BA90BB96BD92BE93BF90C094C292CDF80CC3C594C691C795C893C996FB
:202EE000CA92CB94CC94CE96CF96D096D191D297D390D490D597D692D792D891D990DA937A
:202F0000DB91DC96DD90DE91DF95E195E293E394E491E597FDF746F9FFF7DAFEFFF774FEC7
:202F200000F05CF900F032FB00F056FA00F090FA00F06CFB9F48FEF713FB9F48FEF710FB4D
:202F400003AC9E4D0FCD0FC40FCD0FC495E8070003C4227003A8FDF7F9F8642382B203A9A5
:202F60009748FEF719FFFFF7DBFC0746032849D000F004FC934C84FB0023C517C5EBA30562
:202F800005EB85056B00C51A1E9500F0F7FB84FB0023C617C6EBA30606EB86067300C61A2F
:202FA0001F9600F0EBFB84FB0034C317C3EBA40404EB84046300C41A209400F0DFFB824BA0
:202FC00083FB0023A3EBE07303EB43035A00831A0A332193B542CBD0A642C9D0A542C7D0C2
:202FE000052603AC794B93E8070084E807002046FDF7ACF8642382B221467148FEF7CCFEA6
:203000003446ACE00026ECE700228DF870208DF871208DF872201CA96D48FDF7EAFFA1E075
:2030200000F0ACFB674B83FB0023C217C2EBA30303EB83035A00831A1DAA42F82430611E3B
:2030400052F821209342EBD0A21E1DA951F822209342E5D0E21E51F822209342E0D0221F69
:2030600051F822209342DBD096E0A64240F097800120FFF713FB1120FEF7FAFF0120FEF746
:20308000FBFEFFF739FC80460220FFF707FB4046FEF7EEFF4FF4FA70FDF7A8F81120FEF75D
:2030A000E7FF0120FEF762FFFFF726FC05460220FFF7F4FA2846FEF7DBFF4FF4FA70FDF76C
:2030C00095F81120FEF7D4FF0120FEF713FFFFF713FC04460220FFF7E1FA2046FEF7C8FFDE
:2030E0004FF49670FDF782F805EB85056B00642202FB0838444452E0FFF714FB08F10108B0
:203100000025344B5D622846FFF720FB44451ED3EDB91DAB53F828502F4B1D60FFF7ECFB4E
:203120008542E9D000221CA92948FDF7C3FF9DF872109DF871209DF8703001910092224603
:2031400041463046FFF71EFC34460125DEE705B9013440F2E2339C4201D9FFF7D5FAA6425E
:203160003FF452AF032F17D014F0030F7FF458AF00F004FB144B83FB0023A3EBE07303EBB4
:2031800043035A00831A0A331DAA42F82430211F52F821209342EBD0032F3FF466AF022069
:2031A000FFF77CFA1DAB53F82400FEF761FFB046AFE700BF6001002020010020A84000081A
:2031C000E001002067666666ABAAAA2AD44000080C010020000800409400002000B583B0FF
:2031E0001C481D4B03604FF0FF3343604FF480738360FEF773F8F0B901238DF8043000226B
:203200008DF805208DF8062001A91248FDF7F1FEB0B901238DF800308DF801308DF80230C3
:2032200000228DF8032069460A48FDF7CFFF60B903B05DF804FB3E210848FFF747FDDBE736
:2032400049210648FFF742FDE3E753210348FFF73DFDEDE70C01002000280040E040000837
:2032600002680C4B9A4200D0704700B583B0FDF73FF9094BDA6942F00062DA61DB6903F079
:2032800000630193019B054B01221A6003B05DF804FB00BF00280040001002403C0442426A
:2032A00000B583B0244B9A6942F001029A619A6902F001020092009ADA6942F08052DA61DE
:2032C000DB6903F080530193019B0320FCF7A2FF002211466FF00B00FCF7AEFF0022114601
:2032E0006FF00A00FCF7A8FF002211466FF00900FCF7A2FF002211466FF00400FCF79CFFEC
:20330000002211466FF00300FCF796FF002211466FF00100FCF790FF002211464FF0FF3008
:20332000FCF78AFF054A536823F0E06343F00073536003B05DF804FB0010024000000140BE
:203340007047FEE7FEE7FEE7FEE770477047704708B5FCF739FFFCF7D6FF08BD08B5034B7D
:2033600001221A600248FEF790F908BD900000206001002008B5034B01221A700248FEF7FB
:2033800084F908BD8C000020200100200F4B1A6842F001021A6059680D4A0A405A601A68D5
:2033A00022F0847222F480321A601A6822F480221A605A6822F4FE025A604FF41F029A601F
:2033C000044B4FF000629A60704700BF001002400000FFF800ED00E000B587B019481A4BC5
:2033E000036041F63F7343600023836040F2CF72C26003618361FEF73FFA98B906A94FF48A
:20340000805341F8103D0F48FEF7B6F878B900230093019369460B48FEF756FB60B907B0C6
:203420005DF804FB65210948FFF750FCE6E76B210648FFF74BFCEAE772210448FFF746FC53
:20344000EDE700BF6001002000040040F040000800B587B019481A4B036041F63F7343603B
:203460000023836041F28732C26003618361FEF703FA98B906A94FF4805341F8103D0F480B
:20348000FEF77AF878B900230093019369460B48FEF71AFB60B907B05DF804FB8421094824
:2034A000FFF714FCE6E78A210648FFF70FFCEAE791210448FFF70AFCEDE700BF20010020A0
:2034C00000080040F04000080368B3F1804F00D0704782B003F50433DA6942F00102DA61F3
:2034E000DB6903F001030193019B02B07047000000B583B00368174A934205D0164A934265
:2035000015D003B05DF804FB144BDA6942F00202DA61DB6903F002030093009B00221146C9
:203520001D20FCF789FE1D20FCF7BAFEE9E70B4BDA6942F00402DA61DB6903F0040301933E
:20354000019B002211461E20FCF776FE1E20FCF7A7FED6E700040040000800400010024040
:203560000368B3F1804F00D0704700B585B00123009302230193039369460348FCF7C8FE43
:2035800005B05DF804FB00BF0008014000B58BB01C484FF080430360032343600023836092
:2035A00040F2E732C26003618361FEF77EF9D0B900230893099308A91248FEF785FAB8B917
:2035C0006023019340F2F313029300220392059201A90C48FEF7B4F978B90A48FFF7C0FFE1
:2035E0000BB05DF804FB41210748FFF76FFBDFE748210548FFF76AFBE2E751210248FFF759
:2036000065FBEAE7A0010020F040000808B50B480B4B03604FF41643436000238360C3604F
:183620000361082242618361C361FEF780FB00B908BD42210348FFF7C7
:00000001FF
