:020000040800F2
:200000000050002045310008392F00083B2F00083D2F00083F2F0008412F000800000000AE
:20002000000000000000000000000000432F0008452F000800000000472F0008492F0008CC
:200040008D3100088D3100088D3100088D3100088D3100088D3100088D3100088D31000870
:200060008D3100088D3100088D3100088D3100088D3100088D3100088D3100088D31000850
:200080008D3100088D3100088D3100088D3100088D3100088D3100088D3100088D31000830
:2000A0008D3100088D3100088D3100088D3100088D310008552F00088D3100088D3100084A
:2000C0008D3100088D3100088D3100088D3100088D3100088D3100088D3100088D310008F0
:2000E0008D3100088D3100088D3100080000000000000000000000000000000000000000AE
:2001000000000000000000005FF808F110B5054C237833B9044B13B10448AFF3008001234D
:20012000237010BD70000020000000009C33000808B5034B1BB103490348AFF3008008BDA3
:2001400000000000740000209C33000810B504460E4B18784FF47A73B3FBF0F30C4A1068AD
:20016000B0FBF3F000F0A0F868B90F2C01D901200AE0002221464FF0FF3000F055F8034BA6
:200180005C60002000E0012010BD00BF000000200800002008B5074A136843F0100313606C
:2001A000032000F02FF80020FFF7D0FF02F074FE002008BD00200240034A1168034B1B78CE
:2001C0000B441360704700BF9C00002000000020014B1868704700BF9C00002038B50446D6
:2001E000FFF7F6FF0546B4F1FF3F02D0044B1B781C44FFF7EDFF401BA042FAD338BD00BF32
:2002000000000020074AD36823F4E0631B041B0C000200F4E060184340F0BF6040F400304E
:20022000D060704700ED00E030B4174BDB68C3F30223C3F10704042C28BF04241D1D062D3B
:2002400018D9033B4FF0FF3505FA04F421EA0401994005FA03F322EA0303194300280BDBAB
:200260000901C9B200F1604000F5614080F8001330BC70470023E5E700F00F000901C9B231
:20028000024B1954F4E700BF00ED00E014ED00E000F01F02400901239340024A42F8203035
:2002A000704700BF00E100E00138B0F1807F0AD2064B5860064AF02182F823100020986023
:2002C00007221A6070470120704700BF10E000E000ED00E0042805D0054A136823F00403AB
:2002E00013607047024A136843F004031360704710E000E0704708B5FFF7FCFF08BD0000AF
:20030000F0B482B000263546A1E0002C59D0012C00D1CE68FF2B68D88446FF2B68D8AC0012
:20032000DCF800200F27A74022EA070206FA04F42243CCF800204A6812F0805F00F08680CD
:200340005E4A946944F001049461926902F001020192019AAC08A71C594A52F8272005F00C
:200360000307BF004FF00F0C0CFA07FC22EA0C0C544A904242D002F5806290427FD002F5BA
:20038000806290427DD002F58062904234D0042235E04D4FBC4214D00BD94C4FBC4210D097
:2003A00007F58037BC420CD0A7F58017BC42B1D107E0A7F58017BC4203D007F58037BC4261
:2003C000A8D18C687CB1012C08D042610826A1E7CE6808369EE7CE680C369BE702610826A1
:2003E00098E7002696E7042694E700F1040C94E7A5F10804A40093E7032200E00022BA40D9
:2004000042EA0C0202342E4F47F824204A6812F4803F38D02E4C22681A4322604A6812F452
:20042000003F36D02A4C62681A4362604A6812F4801F34D0264CA2681A43A2604A6812F42A
:20044000001F32D0224CE2681343E36001350F2D31D80122AA400B6813409A42F6D14C6885
:20046000122CB8D095D8022CB2D07FF64EAF032CB7D0112C7FF44EAFCE6804364AE7012200
:20048000BDE70222BBE7124C226822EA03022260C4E70F4C626822EA03026260C6E70C4CCF
:2004A000A26822EA0302A260C8E7094CE26822EA0303E360CAE702B0F0BC70470010024064
:2004C000000001400008014000002110000031100004014012B909040161704701617047D1
:2004E000014B01221A60704720000E4282B0084B1B68084AA2FB03235B0A00FB03F00190EB
:2005000000BF019B5A1E0192002BF9D102B0704708000020D34D621070B582B00446036851
:2005200013F0010F2CD0AB4B5B6803F00C03042B1DD0A84B5B6803F00C03082B12D063683D
:20054000B3F5803F41D0002B55D103F1804303F504331A6822F480321A601A6822F48022EE
:200560001A6037E09B4B5B6813F4803FE7D0994B1B6813F4003F03D06368002B00F0AE812F
:20058000236813F0020F76D0924B5B6813F00C0F5FD0904B5B6803F00C03082B54D0236906
:2005A000002B00F08A808C4B01221A60FFF710FE0546884B1B6813F0020F75D1FFF708FEA7
:2005C000401B0228F5D903208BE1824A136843F480331360636843B3FFF7FAFD05467D4BD4
:2005E0001B6813F4003FCBD1FFF7F2FD401B6428F5D9032075E1B3F5A02F09D0754B1A68F1
:2006000022F480321A601A6822F480221A60E1E703F18043A3F53C331A6842F480221A608A
:200620001A6842F480321A60D4E7FFF7D1FD0546684B1B6813F4003FA2D0FFF7C9FD401B07
:200640006428F5D903204CE1624B5B6813F4803FA5D1604B1B6813F0020F04D02369012B76
:2006600001D001203DE15B4A136823F0F803616943EAC1031360236813F0080F32D0A3695B
:20068000002B5BD0554B01221A60FFF7A1FD0546504B5B6A13F0020F21D1FFF799FD401B9B
:2006A0000228F5D903201CE14A4A136823F0F803616943EAC1031360DDE7474B00221A60E5
:2006C000FFF786FD0546434B1B6813F0020FD2D0FFF77EFD401B0228F5D9032001E10120A5
:2006E000FFF704FF236813F0040F00F09780394BDB6913F0805F33D1364BDA6942F08052E3
:20070000DA61DB6903F080530193019B0125344B1B6813F4807F25D0E368012B36D0002B99
:200720004CD103F1804303F504331A6A22F001021A621A6A22F004021A622CE0274B0022E9
:200740001A60FFF745FD0546224B5B6A13F0020FC8D0FFF73DFD401B0228F5D90320C0E078
:200760000025D4E71E4A136843F480731360FFF72FFD06461A4B1B6813F4807FCCD1FFF72A
:2007800027FD801B6428F5D90320AAE0114A136A43F001031362E36873B3FFF719FD064646
:2007A0000C4B1B6A13F0020F37D1FFF711FD801B41F288339842F3D9032092E0052B11D068
:2007C000044B1A6A22F001021A621A6A22F004021A62E0E7001002400000424280044242F8
:2007E00000700040414B1A6A42F004021A621A6A42F001021A62CEE7FFF7EAFC06463B4BED
:200800001B6A13F0020F08D0FFF7E2FC801B41F288339842F3D9032063E0E5B9E369002BE9
:200820005ED0324A526802F00C02082A5BD0022B17D02F4B00221A60FFF7CAFC04462B4B51
:200840001B6813F0007F47D0FFF7C2FC001B0228F5D9032045E0254AD36923F08053D361A8
:20086000DCE7234B00221A60FFF7B2FC05461F4B1B6813F0007F06D0FFF7AAFC401B022856
:20088000F5D903202DE0236AB3F5803F1AD017494B6823F47413226A606A024313434B602F
:2008A000134B01221A60FFF793FC04460F4B1B6813F0007F0ED1FFF78BFC001B0228F5D9A0
:2008C00003200EE0094A536823F40033A1680B435360DCE7002004E0002002E0012000E0DB
:2008E000002002B070BD0120FBE700BF001002406000424210B487B0164C94E80F000DF11B
:20090000180C0CE90F00238AADF80430124B5B6803F00C02082A1AD1C3F38342624412F8C0
:20092000102C13F4803F05D10C4800FB02F007B010BC7047084B5B68C3F34043634413F863
:20094000143C074800FB02F0B0FBF3F0EFE70448EDE700BFB43300080010024000093D0041
:2009600000127A00594B1B6803F007038B420CD2564A136823F007030B431360136803F0B5
:2009800007038B4201D00120704770B5036813F0020F06D04E4A536823F0F00384682343B2
:2009A00053600C460546036813F0010F52D04368012B23D0022B28D0454A126812F0020F3C
:2009C00000F0828042494A6822F0030213434B60FFF7FEFB06466B68012B1DD0022B2AD082
:2009E0003B4B5B6813F00C0F34D0FFF7F1FB801B41F288339842F3D9032064E0344A12681C
:200A000012F4003FDED101205DE0314A126812F0007FD7D1012056E02D4B5B6803F00C03D2
:200A2000042B17D0FFF7D4FB801B41F288339842F2D9032047E0264B5B6803F00C03082BFA
:200A400008D0FFF7C5FB801B41F288339842F2D9032038E01D4B1B6803F00703A3420CD9ED
:200A60001A4A136823F0070323431360136803F00703A34201D0012025E02B6813F0040FA4
:200A800006D0134A536823F4E063E9680B4353602B6813F0080F07D00D4A536823F460535C
:200AA000296943EAC1035360FFF724FF084B5B68C3F30313074AD35CD840074B1860002083
:200AC000FFF744FB002070BD0120FCE70020024000100240DC33000808000020014B1868D1
:200AE000704700BF0800002008B5FFF7F7FF044B5B68C3F3C223034AD35CD84008BD00BFEA
:200B000000100240EC33000870B582B00446036813F0010F34D03E4BDB6913F0805F48D171
:200B20003B4BDA6942F08052DA61DB6903F080530193019B0125374B1B6813F4807F3AD038
:200B4000334B1B6A13F4407311D0626802F440729A420CD02E4A136A23F440702E49012673
:200B60000E6000260E60106213F0010F37D1284A136A23F4407361680B431362002D3FD164
:200B8000236813F0020F06D0214A536823F44043A1680B435360236813F0100F35D01C4AFE
:200BA000536823F48003E1680B435360002002B070BD0025BFE7174A136843F48073136053
:200BC000FFF706FB0646134B1B6813F4807FB7D1FFF7FEFA801B6428F5D90320E7E7FFF799
:200BE000F7FA06460A4B1B6A13F0020FBFD1FFF7EFFA801B41F288339842F3D90320D6E74C
:200C0000D36923F08053D361BAE70020CFE700BF00100240007000404004424230B587B062
:200C20000546384C94E80F000DF1180C0CE90F00238AADF80430022D50D0102D03D0012D21
:200C40002BD0002054E0304B5A681B6813F0807F50D0C2F3834306A90B4413F8100C12F4BD
:200C6000803F16D0284B5B68C3F340430B4413F8142C264BB3FBF2F300FB03F0224B5B68A4
:200C800013F4800F34D14000214BA3FB003040082EE0204B03FB00F0F0E71B4B1B6A40F29C
:200CA00002321A40B2F5817F26D003F44073B3F5007F04D0B3F5407F09D0002018E0124AB0
:200CC000526A12F0020FF5D049F6404010E00E4B1B6813F4003F12D1002009E0FFF704FFCA
:200CE000094B5B68C3F3813301335B00B0FBF3F007B030BD0020FBE74FF40040F8E74FF20D
:200D00002440F5E7C83300080010024000127A00ABAAAAAA00093D0030B402689469A5B221
:200D2000D369916988B2854205D0D06980B240EA014030BC704798B240EA0440F9E703682B
:200D4000186A5B6A9BB243EA00407047002302E001330A38C0B20928FAD81B01DBB21843E7
:200D60007047030903EB83035A0000F00F001044C0B2704710F0030F16D10D4BA3FB002354
:200D80005B09642202FB13039BB27BB9084BA3FB0023DB094FF4C87202FB130080B208B165
:200DA000002070470120704700207047012070471F85EB5110B400F5FA64022920D901EBCE
:200DC0004103C1EBC3011F4BA3FB011302EB5303234403EB94031C4AA2FB0424A3EB5413F4
:200DE00003EBD41302331948A0FB03201A1A00EB52008008C0EBC000181AC0B210BC70473F
:200E000001EB4103C1EBC3010E4BA3FB011302EB5303234400F2CF7003EB90030A4AA2FBDA
:200E20000020A3EB501303EBD01304330748A0FB03201A1A00EB52008008C0EBC000181AF6
:200E4000DBE700BF398EE3381F85EB51254992242DE9F8430746884690F80F90447B857BD9
:200E6000002603E01E2D1FD80135013646453DD2012CF7D0032CF5D0052CF3D0072CF1D050
:200E8000082CEFD00A2CEDD00C2CEBD0042C15D0062C13D0092C11D00B2C0FD0022CE4D140
:200EA0001B2D12D80135E0E70C2C02D001340125DBE709F1010901252C46D6E71D2D01D860
:200EC0000135D2E701340125CFE71C2D04D01D2DCBD101340125C8E71FFA89F0FFF74AFF34
:200EE00008B10135C1E701340125BEE787F80F90E1B27973EAB2BA734846FFF75BFF38736C
:200F0000BDE8F88338B50446FFF762F9054623685A6812F0200F07D1FFF75AF9401BB0F53F
:200F20007A7FF4D9032004E05A6842F010025A60002038BD38B504460268536823F010038D
:200F40005360FFF745F9054623685B6813F0200F07D1FFF73DF9401BB0F57A7FF4D90320F2
:200F600000E0002038BD38B505460C46FFF7CAFF10B10123184638BD2B68220C9A612B68AC
:200F8000A4B2DC612846FFF7D5FF03460028F1D00123EFE738B505460C46FFF7B3FF10B167
:200FA0000123184638BD2B68220C1A622B68A4B25C622846FFF7BEFF03460028F1D001235F
:200FC000EFE770B5002857D00446002956D0037C012B55D00E460123037402234374BAB920
:200FE0000D784B78C3EB03139A004FF4616303FB05258B781D4429462046FFF7B4FF0646EE
:20100000C8B104236374002323740126304670BD0878FFF7A6FE4FF4616505FB00F57078D5
:20102000FFF79FFEC0EB001083001D44B078FFF798FE0544DFE72268536823F005035360A8
:201040002046FFF77CFEB0F1FF3F01D0854204D80123637400232374D8E700F5A83101F52F
:20106000C0712046FFF796FF0028F1D004236374002323740126C9E70126C7E70126C5E72E
:201080000226C3E7002875D02DE9F0470546002972D003685B6813F0040F02D00120BDE832
:2010A000F08716460C46FFF737FE0746364AA2FB0032D20A4FF4616000FB1270334BA3FBCB
:2010C00000135B096370C3EB03139900411AA170172A10D82270002E54D02078FFF736FE2E
:2010E00020706078FFF732FE6070A078FFF72EFEA0700020D3E7264BA3FB07384FEA184887
:20110000244BA3FB02131B0903EB4303D900531A23702846FFF713FE8246B0F1FF3F03D08D
:2011200087421CD2A0EB070A194BA3FB07394FEA1949194B03FB197949462846FFF713FF86
:20114000E0B9BAF1FF3F0DD00AEB09012846FFF721FFA8B941462846FFF77AFEBBE74FF008
:20116000FF3AE1E751462846FFF714FF0028F1D0012094E701207047012090E701208EE7D5
:2011800001208CE700208AE7C5B3A2918988888807452EC2ABAAAAAA8051010000285DD052
:2011A00038B5044600295BD0037C012B5AD00D460123037402234374D2B9CB78C3734B783E
:2011C00043738B788373A27B617BE07BFFF7F2FD207328702046FFF79FFD234BA3FB0023D5
:2011E000B3F5484F11D2012363740020207438BDC878FFF7B6FDE0736878FFF7B2FD607395
:20120000A878FFF7AEFDA073DDE7184DA5FB00352D0C174B03FB150529462046FFF7A3FEDD
:2012200028B104236374002323740120DFE72046FFF785FDB0F1FF3FD5D08542D3D900F56C
:20124000A83101F5C0712046FFF7A4FE0028CAD004236374002323740120C8E7012070476E
:201260000120C4E70220C2E7C5B3A29107452EC280510100C0B138B504460268536823F03E
:2012800008035360FEF7A4FF054623685B6813F0080F07D1FEF79CFF401BB0F57A7FF4D917
:2012A000032000E0002038BD0120704700285AD010B50446437C53B1022363742046FFF7C2
:2012C000D9FF40B1042363740123184610BD037401F0C2FDF0E72046FFF714FE002830D163
:2012E0002268536823F007035360A36823B11F4A136B23F0010313631C4AD36A23F46073F9
:20130000A1680B43D3626268B2F1FF3F1DD021688B6823F00F0343EA12438B602168CB68DF
:201320001B0C1B0492B21343CB602046FFF702FE0346A0B90022E27301226273A27362744A
:20134000C3E7042363740123BFE70120FFF766FC08B1421EDBE7042363740123B5E70423E2
:2013600063740123B1E7012318467047006C004070B4036A23F001030362036A42688469E4
:2013800024F073040D6845EA040623F002048B6823430D4DA84209D00B4DA8420DD04260C4
:2013A00086614A684263036270BC704723F00803CC68234323F00403EEE722F440724C6983
:2013C00014438A692243EAE7002C014030B4036A23F480730362036A4268C46924F0730491
:2013E0000D682C4323F400738D6843EA05230F4DA84209D00D4DA8420ED04260C4614A687B
:20140000C263036230BC704723F40063CD6843EA052323F48063EDE722F440524D6942EA43
:2014200005128D6942EA0512E7E700BF002C014030B4036A23F480530362036A4468C2697E
:2014400022F4E6420D6842EA052223F400538D6843EA0533074DA84206D04460C2614A6835
:201460000264036230BC704724F480444D6944EA8514F2E7002C014010B4036A046A24F0AC
:2014800001040462846924F0F00444EA021223F00A030B438261036210BC704710B4036A40
:2014A00023F0100303628469036A24F4704444EA023223F0A00343EA01138261036210BC0E
:2014C0007047836823F0700341F0070119438160704710B4846824F47F4442EA03230B438C
:2014E0002343836010BC70470268D36843F00103D3600268136843F00103136000207047AB
:2015000090F83C30012B7DD010B50446012380F83C30022380F83D300268936823F47F43FF
:2015200023F0770393600B68402B57D010D9702B3ED01FD8502B47D0602B32D1CA6849689A
:201540000068FFF7ABFF60212068FFF7BAFF28E0102B4DD008D9202B4FD0302B21D1302182
:201560000068FFF7AEFF1CE0DBB900210068FFF7A8FF16E0B3F5805F0ED0B3F5005F10D167
:20158000CB684A6889680068FFF7A3FF2268936843F48043936004E00268936823F007039D
:2015A0009360012384F83D30002084F83C0010BDCB684A6889680068FFF78BFF2268936843
:2015C00043F077039360ECE7CA6849680068FFF753FF50212068FFF774FFE2E7CA684968F7
:2015E0000068FFF749FF40212068FFF76AFFD8E710210068FFF765FFD3E720210068FFF7F2
:2016000060FFCEE7022070477047704770477047704710B5044603681A6912F0020F11D059
:20162000DA6812F0020F0DD06FF002021A610123037703689B6913F0030F70D0FFF7E6FF5D
:201640000023237723681A6912F0040F12D0DA6812F0040F0ED06FF004021A6102232377F4
:2016600023689B6913F4407F5FD02046FFF7CEFF0023237723681A6912F0080F12D0DA68B5
:2016800012F0080F0ED06FF008021A61042323772368DB6913F0030F4ED02046FFF7B6FF9B
:2016A0000023237723681A6912F0100F12D0DA6812F0100F0ED06FF010021A61082323776A
:2016C0002368DB6913F4407F3DD02046FFF79EFF0023237723681A6912F0010F03D0DA687D
:2016E00012F0010F36D123681A6912F0800F03D0DA6812F0800F34D123681A6912F0400F28
:2017000003D0DA6812F0400F32D123681A6912F0200F03D0DA6812F0200F30D110BDFFF717
:2017200074FF2046FFF773FF8AE72046FFF76DFF2046FFF76CFF9BE72046FFF766FF2046BF
:20174000FFF765FFACE72046FFF75FFF2046FFF75EFFBDE76FF001021A612046FFF754FFF9
:20176000C1E76FF080021A61204600F09BF9C3E76FF040021A612046FFF74AFFC5E76FF005
:2017800020021A61204600F08CF9C7E703681B4A90420AD0B0F1804F07D0A2F59432904231
:2017A00003D002F58062904203D123F070034A681343124A90420AD0B0F1804F07D0A2F563
:2017C0009432904203D002F58062904203D123F44073CA68134323F080034A6913430360CB
:2017E0008B68C3620B688362044B984202D00123436170470B690363F9E700BF002C014019
:20180000A8B110B5044690F83D305BB1022384F83D30211D2068FFF7B9FF012384F83D30D0
:20182000002010BD80F83C3001F016FCEEE701207047A8B110B5044690F83D305BB1022399
:2018400084F83D30211D2068FFF7A0FF012384F83D30002010BD80F83C3001F0E9FBEEE7BC
:201860000120704730B4036A23F010030362036A4468826922F4E6420D6842EA052223F097
:2018800020038D6843EA05130E4DA84209D00D4DA8420ED0446082614A688263036230BC3C
:2018A000704723F08003CD6843EA051323F04003EDE724F440644D6944EA85048D6944EAEA
:2018C0008504E7E7002C014038B590F83C30012B66D00D460446012380F83C30022380F8BF
:2018E0003D300C2A1AD8DFE802F007191919201919193419191947000068FFF739FD2268F9
:20190000936943F0080393612268936923F0040393612268936929690B439361012384F80B
:201920003D30002084F83C0038BD0068FFF79AFF2268936943F4006393612268936923F4C5
:201940008063936122689369296943EA01239361E4E70068FFF73AFD2268D36943F00803EF
:20196000D3612268D36923F00403D3612268D36929690B43D361D1E70068FFF759FD22684F
:20198000D36943F40063D3612268D36923F48063D3612268D369296943EA0123D361BDE7C8
:2019A0000220C1E710B4012303FA01F4036A23EA04030362036A8A401343036210BC704728
:2019C00010B5044601220068FFF7ECFF2368074A934206D02268136843F001031360002036
:2019E00010BD5A6C42F400425A64F3E7002C014010B5044600220068FFF7D4FF2368134A8D
:201A0000934213D02368196A41F21112114208D1196A40F24442114203D11A6822F0010285
:201A20001A60012384F83D30002010BD196A41F211121142E6D1196A40F244421142E1D10F
:201A40005A6C22F400425A64DCE700BF002C014090F83C30012B22D030B4012280F83C20CE
:201A6000022380F83D300468636823F070036360046863680D682B4363600468A36823F075
:201A80008003A3600468A36849680B43A36080F83D20002380F83C30184630BC7047022048
:201AA00070477047704700002DE9F04188B02B4B9A6942F010029A619A6902F01002009231
:201AC000009A9A6942F020029A619A6902F020020192019A9A6942F004029A619A6902F0AA
:201AE00004020292029A9A6942F008029A619B6903F008030393039BDFF86C8000224FF418
:201B000040414046FEF7E6FC154E002240F6FE713046FEF7DFFC4FF4404304930127059756
:201B2000002506950224079404A94046FEF7E8FB40F6FE73049305970695079404A93046E6
:201B4000FEF7DEFB4FF4F07304930595069404A90448FEF7D5FB08B0BDE8F0810010024068
:201B600000080140000C01400010014038B504464FF0804300225A62012802D0022C13D05B
:201B800038BD4FF47A72DA624FF4FA725A63114D00212846FFF714FF1420FEF71FFB00211F
:201BA0002846FFF725FFE9E74FF080434FF4FA62DA624FF47A725A63064C00212046FFF735
:201BC000FFFE5020FEF70AFB00212046FFF710FFD6E700BFF400002008B528B10022102199
:201BE0000648FEF777FC08BD0122102100F1804000F58430FEF76EFCF5E700BF0008014079
:201C000008B528B1002202210648FEF763FC08BD0122022100F1804000F58430FEF75AFC97
:201C2000F5E700BF0008014008B530B100224FF400410748FEF74EFC08BD01224FF4004182
:201C400000F1804000F58830FEF744FCF4E700BF0010014008B528B1002204210648FEF7E6
:201C600039FC08BD0122042100F1804000F58430FEF730FCF5E700BF0008014008B528B12D
:201C8000002208210648FEF725FC08BD0122082100F1804000F58430FEF71CFCF5E700BF82
:201CA0000008014008B528B1002240210648FEF711FC08BD0122402100F1804000F58430CF
:201CC000FEF708FCF5E700BF0008014008B528B1002280210648FEF7FDFB08BD012280210A
:201CE00000F1804000F58430FEF7F4FBF5E700BF0008014008B530B100224FF480410748AF
:201D0000FEF7E8FB08BD01224FF4804100F1804000F58830FEF7DEFBF4E700BF00100140E8
:201D200010B5F34B00225A62044600284FD0012C66D0022C7DD0032C00F09480042C00F000
:201D4000AA80052C00F0C080062C00F0D680072C00F0EC80082C00F00281092C00F018818C
:201D60000A2C00F02E810B2C00F044810C2C00F05A810D2C00F070810E2C00F086810F2C19
:201D800000F09C81102C00F0B581112C00F0CB81122C00F0E181132C00F0F781142C00F0F4
:201DA0000D82152C00F02382162C00F03982172C00F04F82182C00F06582212C00F07B8278
:201DC000222C00F09182232C00F0A78210BD0120FFF702FF0120FFF765FF0120FFF710FFC4
:201DE0000020FFF773FF0120FFF748FF0120FFF71BFF0120FFF72EFF0020FFF77BFF96E77B
:201E00000020FFF7E9FE0020FFF74CFF0120FFF7F7FE0020FFF75AFF0020FFF72FFF012084
:201E2000FFF702FF0020FFF715FF0020FFF762FF7FE70120FFF7D0FE0020FFF733FF012056
:201E4000FFF7DEFE0120FFF741FF0120FFF716FF0020FFF7E9FE0120FFF7FCFE0020FFF709
:201E600049FF68E70120FFF7B7FE0020FFF71AFF0120FFF7C5FE0120FFF728FF0020FFF7A2
:201E8000FDFE0120FFF7D0FE0120FFF7E3FE0020FFF730FF52E70020FFF79EFE0120FFF723
:201EA00001FF0120FFF7ACFE0120FFF70FFF0020FFF7E4FE0120FFF7B7FE0020FFF7CAFE9A
:201EC0000020FFF717FF3CE70120FFF785FE0120FFF7E8FE0020FFF793FE0120FFF7F6FE6A
:201EE0000020FFF7CBFE0120FFF79EFE0120FFF7B1FE0020FFF7FEFE26E70120FFF76CFEEA
:201F00000120FFF7CFFE0020FFF77AFE0120FFF7DDFE0120FFF7B2FE0120FFF785FE0120DB
:201F2000FFF798FE0020FFF7E5FE10E70120FFF753FE0020FFF7B6FE0120FFF761FE00205D
:201F4000FFF7C4FE0020FFF799FE0120FFF76CFE0020FFF77FFE0020FFF7CCFEFAE6012027
:201F6000FFF73AFE0120FFF79DFE0120FFF748FE0120FFF7ABFE0120FFF780FE0120FFF7B8
:201F800053FE0120FFF766FE0020FFF7B3FEE4E60120FFF721FE0120FFF784FE0120FFF7FE
:201FA0002FFE0120FFF792FE0020FFF767FE0120FFF73AFE0120FFF74DFE0020FFF79AFE73
:201FC000CEE60120FFF708FE0120FFF76BFE0120FFF716FE0120FFF779FE0120FFF74EFE94
:201FE0000120FFF721FE0020FFF734FE0020FFF781FEB8E60020FFF7EFFD0120FFF752FEC7
:020000040800F2
:202000000020FFF7FDFD0120FFF760FE0120FFF735FE0120FFF708FE0120FFF71BFE002084
:20202000FFF768FEA2E60120FFF7D6FD0120FFF739FE0020FFF7E4FD0020FFF747FE012011
:20204000FFF71CFE0020FFF7EFFD0120FFF702FE0020FFF74FFE8CE60020FFF7BDFD002092
:20206000FFF720FE0120FFF7CBFD0120FFF72EFE0120FFF703FE0120FFF7D6FD0120FFF711
:20208000E9FD0020FFF736FE76E60120FFF7A4FD0120FFF707FE0020FFF7B2FD0120FFF704
:2020A00015FE0120FFF7EAFD0020FFF7BDFD0120FFF7D0FD0020FFF71DFE60E60120FFF7CD
:2020C0008BFD0120FFF7EEFD0020FFF799FD0120FFF7FCFD0120FFF7D1FD0020FFF7A4FD1E
:2020E0000020FFF7B7FD0020FFF704FE4AE600BF000400400020FFF76FFD0020FFF7D2FD64
:202100000020FFF77DFD0020FFF7E0FD0020FFF7B5FD0020FFF788FD0020FFF79BFD01200A
:20212000FFF7E8FD31E60020FFF756FD0020FFF7B9FD0020FFF764FD0020FFF7C7FD002007
:20214000FFF79CFD0020FFF76FFD0020FFF782FD0020FFF7CFFD1BE60020FFF73DFD012085
:20216000FFF7A0FD0120FFF74BFD0020FFF7AEFD0120FFF783FD0120FFF756FD0020FFF795
:2021800069FD0020FFF7B6FD05E60120FFF724FD0020FFF787FD0020FFF732FD0120FFF7F7
:2021A00095FD0020FFF76AFD0020FFF73DFD0120FFF750FD0020FFF79DFDEFE50020FFF7C2
:2021C0000BFD0120FFF76EFD0020FFF719FD0020FFF77CFD0120FFF751FD0020FFF724FD1E
:2021E0000120FFF737FD0020FFF784FDD9E50020FFF7F2FC0020FFF755FD0020FFF700FDC0
:202200000120FFF763FD0120FFF738FD0120FFF70BFD0120FFF71EFD0020FFF76BFDC3E584
:202220000020FFF7D9FC0020FFF73CFD0020FFF7E7FC0020FFF74AFD0120FFF71FFD0120BA
:20224000FFF7F2FC0120FFF705FD0020FFF752FDADE50020FFF7C0FC0120FFF723FD012060
:20226000FFF7CEFC0120FFF731FD0120FFF706FD0120FFF7D9FC0020FFF7ECFC0020FFF73F
:2022800039FD97E50020FFF7A7FC0020FFF70AFD0020FFF7B5FC0020FFF718FD0020FFF7AE
:2022A000EDFC0120FFF7C0FC0020FFF7D3FC0020FFF720FD81E50020FFF78EFC0020FFF72E
:2022C000F1FC0020FFF79CFC0020FFF7FFFC0020FFF7D4FC0020FFF7A7FC0120FFF7BAFCE6
:2022E0000020FFF707FD6BE50020FFF775FC0020FFF7D8FC0020FFF783FC0120FFF7E6FC75
:202300000020FFF7BBFC0020FFF78EFC0020FFF7A1FC0020FFF7EEFC55E50120FFF75CFCF4
:202320000020FFF7BFFC0020FFF76AFC0020FFF7CDFC0020FFF7A2FC0020FFF775FC002016
:20234000FFF788FC0020FFF7D5FC3FE508B50220FFF70CFC0120FFF709FC0220FFF706FCE5
:202360000920FFF7DDFC08BD08B50120FFF7FEFB1020FFF7D5FCC820FDF730FF1120FFF7AA
:20238000CFFC08BD08B530B101224FF480710748FEF7A0F808BD00224FF4807100F1804010
:2023A00000F58430FEF796F8F4E700BF0008014008B530B101224FF400710748FEF78AF8D3
:2023C00008BD00224FF4007100F1804000F58430FEF780F8F4E700BF0008014008B530B11A
:2023E00001224FF480610748FEF774F808BD00224FF4806100F1804000F58430FEF76AF82A
:20240000F4E700BF0008014008B530B101224FF400610748FEF75EF808BD00224FF400614F
:2024200000F1804000F58430FEF754F8F4E700BF0008014010B512E01120FFF771FC454B43
:2024400000221A600FE0012418E0434B9B6813F4807F7AD10020FFF7D7FFFF2C77D13D4B0B
:202460001B68012BE8D000F0E3FE0120FFF78AFF394B9B6813F0200FE5D1FF24364B9B686E
:2024800013F0400F00D00224334B9B6813F0800F00D00324304B9B6813F4807F00D00A2468
:2024A0000020FFF76FFF0120FFF782FF2A4B9B6813F0200F00D00424274B9B6813F0400F97
:2024C00000D00524244B9B6813F0800F00D00624214B9B6813F4807F00D00B240020FFF77B
:2024E00067FF0120FFF77AFF1B4B9B6813F0200F00D00724184B9B6813F0400F00D008249C
:20250000154B9B6813F0800F00D00924124B9B6813F4807F00D00C240020FFF75FFF0120CE
:20252000FFF772FF0C4B9B6813F0200F00D00E24094B9B6813F0400F00D00024064B9B68B5
:2025400013F0800F81D00F247FE70D2482E7204610BD00BF8C000020000C014070B5084C01
:2025600000252560FFF766FF06461420FDF736FE2560FFF75FFF8642F1D1304670BD00BFE9
:202580008C0000202DE9F84F80460E4693469A460220FFF7EBFA1220FFF7C2FB4FF4967034
:2025A000FDF71CFE0220FFF7E1FA1320FFF7B8FB4FF49670FDF712FE0220FFF7D7FA1220D6
:2025C000FFF7AEFB4FF49670FDF708FE0220FFF7CDFA1320FFF7A4FB4FF49670FDF7FEFD3A
:2025E0000220FFF7C3FA1220FFF79AFB4FF49670FDF7F4FD0220FFF7B9FA1120FFF790FB9E
:202600004FF47A70FDF7EAFD1020FFF789FBFFF7A5FF0220FFF7AAFA4FF49670FDF7DEFD9A
:202620000120FFF7A3FA764DA5FB063464092046FFF776FB4FF4FA70FDF7D0FD1120FFF77A
:202640006FFB6420FDF7CAFD0120FFF78FFA642707FB14696B4CA4FB0936F6083046FFF728
:202660005FFB4FF4FA70FDF7B9FD1120FFF758FB3846FDF7B3FD0120FFF778FA06EB860607
:202680007000A9EB0000FFF74BFB4FF4FA70FDF7A5FD1120FFF744FB4FF4FA70FDF79EFD15
:2026A000FFF75CFF0220FFF761FA4FF49670FDF795FD0220FFF75AFA4FF49670FDF78EFD53
:2026C000ABEB08080120FFF751FAA5FB08356D092846FFF725FB4FF4FA70FDF77FFD1120CD
:2026E000FFF71EFB3846FDF779FD0120FFF73EFA07FB1586A4FB0635ED082846FFF710FBB9
:202700004FF4FA70FDF76AFD1120FFF709FB3846FDF764FD0120FFF729FA05EB8505680097
:20272000301AFFF7FDFA4FF4FA70FDF757FD1120FFF7F6FA4FF4FA70FDF750FDFFF70EFF65
:202740000220FFF713FA4FF49670FDF747FD0220FFF70CFA4FF49670FDF740FD0220FFF723
:2027600005FA4FF49670FDF739FD0120FFF7FEF9A4FB0A23DB0803EB83035800AAEB0000C9
:20278000FFF7CEFA4FF4FA70FDF728FD1120FFF7C7FA3846FDF722FD0120FFF7E7F90A9BA0
:2027A000A4FB0334E4082046FFF7BAFA4FF4FA70FDF714FD1120FFF7B3FA3846FDF70EFD44
:2027C0000120FFF7D3F904EB840460000A9B181AFFF7A6FA4FF4FA70FDF700FD1120FFF70D
:2027E0009FFA4FF4FA70FDF7F9FCFFF7B7FE0120FFF7BCF94FF47A70FDF7F0FCBDE8F88FFA
:202800001F85EB51CDCCCCCC38B51020FFF788FA0220FFF7ABF9FFF7A1FE05460120FFF75F
:20282000A5F9284600F0E0FC2846FFF779FA4FF4FA70FDF7D3FC00240AE00120FFF796F9C5
:202840002046FFF76DFA4FF49670FDF7C7FC0134AC42F2D91120FFF763FA00F0E9FC4FF42B
:202860007A70FDF7BBFC284638BD08B50020FFF7B3F90020FFF7C4F90020FFF7D5F900200A
:20288000FFF738FA0020FFF7E5F90020FFF71EFA0020FFF707FA0020FFF7F0F90120FFF7C1
:2028A0009BF94FF4FA70FDF799FC0020FFF794F90120FFF7A5F94FF4FA70FDF78FFC0020AA
:2028C000FFF79EF90120FFF7AFF94FF4FA70FDF785FC0020FFF7A8F90120FFF7BBF94FF4C5
:2028E000FA70FDF77BFC0020FFF7B4F90120FFF7C5F94FF4FA70FDF771FC0020FFF7BEF990
:202900000120FFF7CFF94FF4FA70FDF767FC0020FFF7C8F90120FFF7D9F94FF4FA70FDF773
:202920005DFC0020FFF7D2F90120FFF7E3F94FF4FA70FDF753FC0020FFF7DCF908BDFEE7E5
:2029400000B595B009230A934FF480330B9301231093002311930AA8FDF7DEFD40BB0F23E4
:20296000059301230693002107910891099105A8FDF7F8FF08BB012301934FF400730293B8
:2029800001A8FEF7C1F8E8B9FEF7A8F8104BA3FB00308009FDF788FC0420FDF79BFC0022AF
:2029A00011464FF0FF30FDF73FFC15B05DF804FB4FF4A5710748FFF7C2FF4FF4AC710548FE
:2029C000FFF7BDFF40F25F110248FFF7B8FF00BFD34D6210F43300082DE9F041ADF6987D2D
:2029E00040F68C72002103A800F0F6FB032503950124049404200590069405260796092134
:202A000008910222099206270A970B960C950D9608230E930F914FF0070CCDF840C0119186
:202A2000129513921495159316901797189219971A901B951C951D931E951F92CDF880C027
:202A400021912296249225932693279028942991CDF8A8C02B942C972D912E952F91309107
:202A60003195CDF8C8C0339634943696379338923A91CDF8ECC03C903D913E903F90409609
:202A8000419142924395CDF814C146934794489749904B974C924D934E974F925193529185
:202AA0005391549355975692579359955A905B935C925D965E955F90609261946294CDF862
:202AC0008CC16597CDF898C16791689369926A946B906C936E936F9770967194729573928B
:202AE000749375927695789779977A90CDF8ECC17D917E957F938090819082978491859685
:202B00008696889689938A928B928C958D94CDF838C28F929096919592969391949096931F
:202B20009794989299939A909B939C949D949E94CDF87CC2A090A196A392A493A590A694E4
:202B4000A892CDF8A4C2AB94AC91AD95AE93AF96B092B194B294B496B596B696B791B89787
:202B6000B990BA90BB97BC92BD92BE91BF90C093C191C296C390C491C595C795C893C99422
:202B8000CA91CB97FDF706FBFFF7DAFEFEF78CFF00F020F900F096FA00F00EFA8948FEF7EE
:202BA000A3FCFFF762FEFFF72FFE0646A8423AD000F03EFB844C84FB0023C517C5EBA305EE
:202BC00005EB85056B00C51A049500F031FB84FB0023C717C7EBA30707EB87077B00C71AC4
:202BE000059700F025FB84FB0034C317C3EBA40404EB84046300C41A069400F019FB734B32
:202C000083FB0023A3EBE07303EB43035A00831A0A330793BD42CBD0A742C9D0A542C7D096
:202C200005252C46A4E00025FBE700228DF808208DF809208DF80A2002A96548FEF7C1F93A
:202C400099E000F0F5FA604B83FB0023C217C2EBA30303EB83035A00831A03AA42F82430FE
:202C6000611E52F821209342EBD0A21E03A951F822209342E5D0E21E51F822209342E0D029
:202C8000221F51F822209342DBD08EE0A54240F08F800120FEF76AFF1120FFF741F8012054
:202CA000FEF79AFFFFF75AFC80460220FEF75EFF4046FFF735F84FF4FA70FDF78FFA1120FC
:202CC000FFF72EF80120FFF701F8FFF747FC07460220FEF74BFF3846FFF722F84FF4FA70A6
:202CE000FDF77CFA1120FFF71BF80120FEF7B2FFFFF734FC04460220FEF738FF2046FFF74F
:202D00000FF84FF49670FDF769FA07EB87077B00642202FB083844444AE0FFF725FB01374E
:202D20000023BC421CD3DBB9FFF718FC03AB53F827309842F1D0002202A92548FEF7A2F930
:202D40009DF80A109DF809209DF8083001910092224639462846FFF715FC2C460123E0E75C
:202D600003B9013440F2E2339C4201D9FFF7EEFAA5423FF45AAF032E17D014F0030F7FF4C1
:202D800060AF00F055FA114B83FB0023A3EBE07303EB43035A00831A0A3303AA42F8243064
:202DA000211F52F821209342EBD0032E3FF46EAF0220FEF7DBFE03AB53F82400FEF7B0FF86
:202DC0002F46B1E7B400002067666666ABAAAA2AA000002000B583B01C481D4B03604FF03A
:202DE000FF3343604FF480738360FEF75FFAF0B901238DF8043000228DF805208DF806209A
:202E000001A91248FEF7DDF8B0B901238DF800308DF801308DF8023000228DF803206946BC
:202E20000A48FEF7BBF960B903B05DF804FB3E210848FFF784FDDBE749210648FFF77FFD65
:202E4000E3E753210348FFF77AFDEDE7A0000020002800400434000802680C4B9A4200D0D3
:202E6000704700B583B0FDF73BFB094BDA6942F00062DA61DB6903F000630193019B054B09
:202E800001221A6003B05DF804FB00BF00280040001002403C04424200B583B0244B9A69F7
:202EA00042F001029A619A6902F001020092009ADA6942F08052DA61DB6903F0805301939E
:202EC000019B0320FDF79EF9002211466FF00B00FDF7AAF9002211466FF00A00FDF7A4F9BB
:202EE000002211466FF00900FDF79EF9002211466FF00400FDF798F9002211466FF003002A
:202F0000FDF792F9002211466FF00100FDF78CF9002211464FF0FF30FDF786F9054A53687C
:202F200023F0E06343F00073536003B05DF804FB00100240000001407047FEE7FEE7FEE7E2
:202F4000FEE770477047704708B5FDF735F9FDF7D2F908BD08B5034B01221A600248FEF71D
:202F600058FB08BD8C000020B40000200F4B1A6842F001021A6059680D4A0A405A601A6890
:202F800022F0847222F480321A601A6822F480221A605A6822F4FE025A604FF41F029A6043
:202FA000044B4FF000629A60704700BF001002400000FFF800ED00E000B587B019481A4BE9
:202FC000036041F63F7343600023836040F2CF72C26003618361FEF713FC98B906A94FF4D8
:202FE000805341F8103D0F48FEF78AFA78B900230093019369460B48FEF72AFD60B907B03F
:203000005DF804FB64210948FFF799FCE6E76A210648FFF794FCEAE771210448FFF78FFC9F
:20302000EDE700BFB400002000040040143400080368B3F1804F00D0704782B003F50433CF
:20304000DA6942F00102DA61DB6903F001030193019B02B07047000002680E4B9A4200D07A
:20306000704700B583B003F50333DA6942F00202DA61DB6903F002030193019B00221146EA
:203080001D20FDF7D1F81D20FDF702F903B05DF804FB00BF000400400368B3F1804F00D052
:2030A000704700B585B00123009302230193039369460348FDF724F905B05DF804FB00BF96
:2030C0000008014000B58BB01C484FF080430360032343600023836040F2E732C26003614E
:2030E0008361FEF7A6FBD0B900230893099308A91248FEF7ADFCB8B96023019340F2F3130A
:20310000029300220392059201A90C48FEF7DCFB78B90A48FFF7C0FF0BB05DF804FB40215A
:203120000748FFF70CFCDFE747210548FFF707FCE2E750210248FFF702FCEAE7F400002071
:2031400014340008002103E00B4B5B58435004310A480B4B42189A42F6D30A4A02E000234A
:2031600042F8043B084B9A42F9D3FFF7FFFE00F00FF8FFF731FC70472C340008000000208F
:20318000700000207000002038010020FEE7000070B500250C4E0D4CA41BA410A54209D1A0
:2031A00000F0FCF800250A4E0A4CA41BA410A54205D170BD56F8253098470135EEE756F820
:2031C000253098470135F2E72434000824340008243400082834000803460244934200D1F3
:2031E000704703F8011BF9E738B50D4B05461C68A36B7BB9182000F04FF80A4A0A4BA063B0
:20320000C0E90023094B012283600B2383810023C0E904230022A36B1D615A6138BD00BF46
:203220000C0000200E33CDAB34126DE6ECDE050038B5134B1C68A36B7BB9182000F02CF8E4
:20324000104A114BA063C0E90023104B012283600B2383810023C0E90423A16B0C480A6990
:203260004B6950430B4C04FB0300A2FB04230344541C43F10005C1E9044525F0004038BDBD
:203280000C0000200E33CDAB34126DE6ECDE05002DF451582D7F954C024B0146186800F086
:2032A00003B800BF0C00002070B5CD1C25F0030508350C2D38BF0C25002D064601DBA9425F
:2032C00003D90C233360002070BD00F057F8214A1468214691B9204C23681BB9304600F0FB
:2032E0003DF820602946304600F038F8431C24D10C233046336000F042F8E4E70B685B1BAA
:2033000018D40B2B0FD90B60CC18CD50304600F036F804F10B00231D20F00700C31AD3D0CC
:203320005A42E250D0E74B688C4216BF636013600C46EBE70C464968CCE7C41C24F00304A7
:20334000A04205D0211A304600F008F80130CFD02560DBE7900000209400002038B500238A
:20336000054C05460846236000F00AF8431C02D1236803B12B6038BD34010020704770473A
:20338000044A05491368002B08BF0B4618441060184670479800002038010020F8B500BF75
:2033A000F8BC08BC9E467047F8B500BFF8BC08BC9E46704702030405060708090A0B0C0D21
:2033C0000E0F10100102000002030405060708090A0B0C0D0E0F1010010200000000000013
:2033E00000000000010203040607080900000000010203042E2E2F5372632F6D61696E2EE6
:20340000630000002E2E2F5372632F7274632E63000000002E2E2F5372632F74696D2E63D0
:2034200000000000310100080D010008010000001000000000A24A0410000020000000000B
:2034400000000000000000000000000000000000000000000000000000000000000000006C
:2034600000000000000000000000000000000000000000000000000000000000000000004C
:2034800000000000000000000000000000000000000000000000000000000000FFFFFFFF30
:2034A000FFFFFFFFFFFFFFFFFFFFFFFFFFFFFFFFFFFFFFFFFFFFFFFFFFFFFFFFFFFFFFFF2C
:2034C000FFFFFFFFFFFFFFFFFFFFFFFFFFFFFFFFFFFFFFFFFFFFFFFFFFFFFFFFFFFFFFFF0C
:2034E000FFFFFFFFFFFFFFFFFFFFFFFFFFFFFFFFFFFFFFFFFFFFFFFFFFFFFFFFFFFFFFFFEC
:20350000FFFFFFFFFFFFFFFFFFFFFFFFFFFFFFFFFFFFFFFFFFFFFFFFFFFFFFFFFFFFFFFFCB
:20352000FFFFFFFFFFFFFFFFFFFFFFFFFFFFFFFFFFFFFFFFFFFFFFFFFFFFFFFFFFFFFFFFAB
:20354000FFFFFFFFFFFFFFFFFFFFFFFFFFFFFFFFFFFFFFFFFFFFFFFFFFFFFFFFFFFFFFFF8B
:20356000FFFFFFFFFFFFFFFFFFFFFFFFFFFFFFFFFFFFFFFFFFFFFFFFFFFFFFFFFFFFFFFF6B
:20358000FFFFFFFFFFFFFFFFFFFFFFFFFFFFFFFFFFFFFFFFFFFFFFFFFFFFFFFFFFFFFFFF4B
:2035A000FFFFFFFFFFFFFFFFFFFFFFFFFFFFFFFFFFFFFFFFFFFFFFFFFFFFFFFFFFFFFFFF2B
:2035C000FFFFFFFFFFFFFFFFFFFFFFFFFFFFFFFFFFFFFFFFFFFFFFFFFFFFFFFFFFFFFFFF0B
:2035E000FFFFFFFFFFFFFFFFFFFFFFFFFFFFFFFFFFFFFFFFFFFFFFFFFFFFFFFFFFFFFFFFEB
:20360000FFFFFFFFFFFFFFFFFFFFFFFFFFFFFFFFFFFFFFFFFFFFFFFFFFFFFFFFFFFFFFFFCA
:18362000FFFFFFFFFFFFFFFFFFFFFFFFFFFFFFFFFFFFFFFFFFFFFFFFAA
:00000001FF
